{
  "address": "0xcED8860b723D3bF1b910d9a6833e6624302958B8",
  "abi": [
    {
      "inputs": [],
      "name": "AcceptAdminPendingAdminCheck",
      "type": "error"
    },
    {
      "inputs": [
        {
          "internalType": "uint256",
          "name": "actualAddAmount",
          "type": "uint256"
        }
      ],
      "name": "AddReservesFactorFreshCheck",
      "type": "error"
    },
    {
      "inputs": [],
      "name": "BorrowCashNotAvailable",
      "type": "error"
    },
    {
      "inputs": [
        {
          "internalType": "uint256",
          "name": "errorCode",
          "type": "uint256"
        }
      ],
      "name": "BorrowComptrollerRejection",
      "type": "error"
    },
    {
      "inputs": [],
      "name": "BorrowFreshnessCheck",
      "type": "error"
    },
    {
      "inputs": [
        {
          "internalType": "uint256",
          "name": "errorCode",
          "type": "uint256"
        }
      ],
      "name": "LiquidateAccrueBorrowInterestFailed",
      "type": "error"
    },
    {
      "inputs": [
        {
          "internalType": "uint256",
          "name": "errorCode",
          "type": "uint256"
        }
      ],
      "name": "LiquidateAccrueCollateralInterestFailed",
      "type": "error"
    },
    {
      "inputs": [],
      "name": "LiquidateCloseAmountIsUintMax",
      "type": "error"
    },
    {
      "inputs": [],
      "name": "LiquidateCloseAmountIsZero",
      "type": "error"
    },
    {
      "inputs": [],
      "name": "LiquidateCollateralFreshnessCheck",
      "type": "error"
    },
    {
      "inputs": [
        {
          "internalType": "uint256",
          "name": "errorCode",
          "type": "uint256"
        }
      ],
      "name": "LiquidateComptrollerRejection",
      "type": "error"
    },
    {
      "inputs": [],
      "name": "LiquidateFreshnessCheck",
      "type": "error"
    },
    {
      "inputs": [],
      "name": "LiquidateLiquidatorIsBorrower",
      "type": "error"
    },
    {
      "inputs": [
        {
          "internalType": "uint256",
          "name": "errorCode",
          "type": "uint256"
        }
      ],
      "name": "LiquidateRepayBorrowFreshFailed",
      "type": "error"
    },
    {
      "inputs": [
        {
          "internalType": "uint256",
          "name": "errorCode",
          "type": "uint256"
        }
      ],
      "name": "LiquidateSeizeComptrollerRejection",
      "type": "error"
    },
    {
      "inputs": [],
      "name": "LiquidateSeizeLiquidatorIsBorrower",
      "type": "error"
    },
    {
      "inputs": [
        {
          "internalType": "uint256",
          "name": "errorCode",
          "type": "uint256"
        }
      ],
      "name": "MintComptrollerRejection",
      "type": "error"
    },
    {
      "inputs": [],
      "name": "MintFreshnessCheck",
      "type": "error"
    },
    {
      "inputs": [
        {
          "internalType": "uint256",
          "name": "errorCode",
          "type": "uint256"
        }
      ],
      "name": "RedeemComptrollerRejection",
      "type": "error"
    },
    {
      "inputs": [],
      "name": "RedeemFreshnessCheck",
      "type": "error"
    },
    {
      "inputs": [],
      "name": "RedeemTransferOutNotPossible",
      "type": "error"
    },
    {
      "inputs": [],
      "name": "ReduceReservesAdminCheck",
      "type": "error"
    },
    {
      "inputs": [],
      "name": "ReduceReservesCashNotAvailable",
      "type": "error"
    },
    {
      "inputs": [],
      "name": "ReduceReservesCashValidation",
      "type": "error"
    },
    {
      "inputs": [],
      "name": "ReduceReservesFreshCheck",
      "type": "error"
    },
    {
      "inputs": [
        {
          "internalType": "uint256",
          "name": "errorCode",
          "type": "uint256"
        }
      ],
      "name": "RepayBorrowComptrollerRejection",
      "type": "error"
    },
    {
      "inputs": [],
      "name": "RepayBorrowFreshnessCheck",
      "type": "error"
    },
    {
      "inputs": [],
      "name": "SetComptrollerOwnerCheck",
      "type": "error"
    },
    {
      "inputs": [],
      "name": "SetInterestRateModelFreshCheck",
      "type": "error"
    },
    {
      "inputs": [],
      "name": "SetInterestRateModelOwnerCheck",
      "type": "error"
    },
    {
      "inputs": [],
      "name": "SetPendingAdminOwnerCheck",
      "type": "error"
    },
    {
      "inputs": [],
      "name": "SetReserveFactorAdminCheck",
      "type": "error"
    },
    {
      "inputs": [],
      "name": "SetReserveFactorBoundsCheck",
      "type": "error"
    },
    {
      "inputs": [],
      "name": "SetReserveFactorFreshCheck",
      "type": "error"
    },
    {
      "inputs": [
        {
          "internalType": "uint256",
          "name": "errorCode",
          "type": "uint256"
        }
      ],
      "name": "TransferComptrollerRejection",
      "type": "error"
    },
    {
      "inputs": [],
      "name": "TransferNotAllowed",
      "type": "error"
    },
    {
      "inputs": [],
      "name": "TransferNotEnough",
      "type": "error"
    },
    {
      "inputs": [],
      "name": "TransferTooMuch",
      "type": "error"
    },
    {
      "anonymous": false,
      "inputs": [
        {
          "indexed": false,
          "internalType": "uint256",
          "name": "cashPrior",
          "type": "uint256"
        },
        {
          "indexed": false,
          "internalType": "uint256",
          "name": "interestAccumulated",
          "type": "uint256"
        },
        {
          "indexed": false,
          "internalType": "uint256",
          "name": "borrowIndex",
          "type": "uint256"
        },
        {
          "indexed": false,
          "internalType": "uint256",
          "name": "totalBorrows",
          "type": "uint256"
        }
      ],
      "name": "AccrueInterest",
      "type": "event"
    },
    {
      "anonymous": false,
      "inputs": [
        {
          "indexed": true,
          "internalType": "address",
          "name": "owner",
          "type": "address"
        },
        {
          "indexed": true,
          "internalType": "address",
          "name": "spender",
          "type": "address"
        },
        {
          "indexed": false,
          "internalType": "uint256",
          "name": "amount",
          "type": "uint256"
        }
      ],
      "name": "Approval",
      "type": "event"
    },
    {
      "anonymous": false,
      "inputs": [
        {
          "indexed": false,
          "internalType": "address",
          "name": "borrower",
          "type": "address"
        },
        {
          "indexed": false,
          "internalType": "uint256",
          "name": "borrowAmount",
          "type": "uint256"
        },
        {
          "indexed": false,
          "internalType": "uint256",
          "name": "accountBorrows",
          "type": "uint256"
        },
        {
          "indexed": false,
          "internalType": "uint256",
          "name": "totalBorrows",
          "type": "uint256"
        }
      ],
      "name": "Borrow",
      "type": "event"
    },
    {
      "anonymous": false,
      "inputs": [
        {
          "indexed": false,
          "internalType": "address",
          "name": "liquidator",
          "type": "address"
        },
        {
          "indexed": false,
          "internalType": "address",
          "name": "borrower",
          "type": "address"
        },
        {
          "indexed": false,
          "internalType": "uint256",
          "name": "repayAmount",
          "type": "uint256"
        },
        {
          "indexed": false,
          "internalType": "address",
          "name": "cTokenCollateral",
          "type": "address"
        },
        {
          "indexed": false,
          "internalType": "uint256",
          "name": "seizeTokens",
          "type": "uint256"
        }
      ],
      "name": "LiquidateBorrow",
      "type": "event"
    },
    {
      "anonymous": false,
      "inputs": [
        {
          "indexed": false,
          "internalType": "address",
          "name": "minter",
          "type": "address"
        },
        {
          "indexed": false,
          "internalType": "uint256",
          "name": "mintAmount",
          "type": "uint256"
        },
        {
          "indexed": false,
          "internalType": "uint256",
          "name": "mintTokens",
          "type": "uint256"
        }
      ],
      "name": "Mint",
      "type": "event"
    },
    {
      "anonymous": false,
      "inputs": [
        {
          "indexed": false,
          "internalType": "address",
          "name": "oldAdmin",
          "type": "address"
        },
        {
          "indexed": false,
          "internalType": "address",
          "name": "newAdmin",
          "type": "address"
        }
      ],
      "name": "NewAdmin",
      "type": "event"
    },
    {
      "anonymous": false,
      "inputs": [
        {
          "indexed": false,
          "internalType": "contract ComptrollerInterface",
          "name": "oldComptroller",
          "type": "address"
        },
        {
          "indexed": false,
          "internalType": "contract ComptrollerInterface",
          "name": "newComptroller",
          "type": "address"
        }
      ],
      "name": "NewComptroller",
      "type": "event"
    },
    {
      "anonymous": false,
      "inputs": [
        {
          "indexed": false,
          "internalType": "contract InterestRateModel",
          "name": "oldInterestRateModel",
          "type": "address"
        },
        {
          "indexed": false,
          "internalType": "contract InterestRateModel",
          "name": "newInterestRateModel",
          "type": "address"
        }
      ],
      "name": "NewMarketInterestRateModel",
      "type": "event"
    },
    {
      "anonymous": false,
      "inputs": [
        {
          "indexed": false,
          "internalType": "address",
          "name": "oldPendingAdmin",
          "type": "address"
        },
        {
          "indexed": false,
          "internalType": "address",
          "name": "newPendingAdmin",
          "type": "address"
        }
      ],
      "name": "NewPendingAdmin",
      "type": "event"
    },
    {
      "anonymous": false,
      "inputs": [
        {
          "indexed": false,
          "internalType": "uint256",
          "name": "oldReserveFactorMantissa",
          "type": "uint256"
        },
        {
          "indexed": false,
          "internalType": "uint256",
          "name": "newReserveFactorMantissa",
          "type": "uint256"
        }
      ],
      "name": "NewReserveFactor",
      "type": "event"
    },
    {
      "anonymous": false,
      "inputs": [
        {
          "indexed": false,
          "internalType": "address",
          "name": "redeemer",
          "type": "address"
        },
        {
          "indexed": false,
          "internalType": "uint256",
          "name": "redeemAmount",
          "type": "uint256"
        },
        {
          "indexed": false,
          "internalType": "uint256",
          "name": "redeemTokens",
          "type": "uint256"
        }
      ],
      "name": "Redeem",
      "type": "event"
    },
    {
      "anonymous": false,
      "inputs": [
        {
          "indexed": false,
          "internalType": "address",
          "name": "payer",
          "type": "address"
        },
        {
          "indexed": false,
          "internalType": "address",
          "name": "borrower",
          "type": "address"
        },
        {
          "indexed": false,
          "internalType": "uint256",
          "name": "repayAmount",
          "type": "uint256"
        },
        {
          "indexed": false,
          "internalType": "uint256",
          "name": "accountBorrows",
          "type": "uint256"
        },
        {
          "indexed": false,
          "internalType": "uint256",
          "name": "totalBorrows",
          "type": "uint256"
        }
      ],
      "name": "RepayBorrow",
      "type": "event"
    },
    {
      "anonymous": false,
      "inputs": [
        {
          "indexed": false,
          "internalType": "address",
          "name": "benefactor",
          "type": "address"
        },
        {
          "indexed": false,
          "internalType": "uint256",
          "name": "addAmount",
          "type": "uint256"
        },
        {
          "indexed": false,
          "internalType": "uint256",
          "name": "newTotalReserves",
          "type": "uint256"
        }
      ],
      "name": "ReservesAdded",
      "type": "event"
    },
    {
      "anonymous": false,
      "inputs": [
        {
          "indexed": false,
          "internalType": "address",
          "name": "admin",
          "type": "address"
        },
        {
          "indexed": false,
          "internalType": "uint256",
          "name": "reduceAmount",
          "type": "uint256"
        },
        {
          "indexed": false,
          "internalType": "uint256",
          "name": "newTotalReserves",
          "type": "uint256"
        }
      ],
      "name": "ReservesReduced",
      "type": "event"
    },
    {
      "anonymous": false,
      "inputs": [
        {
          "indexed": true,
          "internalType": "address",
          "name": "from",
          "type": "address"
        },
        {
          "indexed": true,
          "internalType": "address",
          "name": "to",
          "type": "address"
        },
        {
          "indexed": false,
          "internalType": "uint256",
          "name": "amount",
          "type": "uint256"
        }
      ],
      "name": "Transfer",
      "type": "event"
    },
    {
      "inputs": [],
      "name": "NO_ERROR",
      "outputs": [
        {
          "internalType": "uint256",
          "name": "",
          "type": "uint256"
        }
      ],
      "stateMutability": "view",
      "type": "function"
    },
    {
      "inputs": [],
      "name": "_acceptAdmin",
      "outputs": [
        {
          "internalType": "uint256",
          "name": "",
          "type": "uint256"
        }
      ],
      "stateMutability": "nonpayable",
      "type": "function"
    },
    {
      "inputs": [
        {
          "internalType": "uint256",
          "name": "addAmount",
          "type": "uint256"
        }
      ],
      "name": "_addReserves",
      "outputs": [
        {
          "internalType": "uint256",
          "name": "",
          "type": "uint256"
        }
      ],
      "stateMutability": "nonpayable",
      "type": "function"
    },
    {
      "inputs": [
        {
          "internalType": "bytes",
          "name": "data",
          "type": "bytes"
        }
      ],
      "name": "_becomeImplementation",
      "outputs": [],
      "stateMutability": "nonpayable",
      "type": "function"
    },
    {
      "inputs": [
        {
          "internalType": "address",
          "name": "compLikeDelegatee",
          "type": "address"
        }
      ],
      "name": "_delegateCompLikeTo",
      "outputs": [],
      "stateMutability": "nonpayable",
      "type": "function"
    },
    {
      "inputs": [],
      "name": "_reduceReserves",
      "outputs": [
        {
          "internalType": "uint256",
          "name": "",
          "type": "uint256"
        }
      ],
      "stateMutability": "nonpayable",
      "type": "function"
    },
    {
      "inputs": [],
      "name": "_resignImplementation",
      "outputs": [],
      "stateMutability": "nonpayable",
      "type": "function"
    },
    {
      "inputs": [
        {
          "internalType": "contract ComptrollerInterface",
          "name": "newComptroller",
          "type": "address"
        }
      ],
      "name": "_setComptroller",
      "outputs": [
        {
          "internalType": "uint256",
          "name": "",
          "type": "uint256"
        }
      ],
      "stateMutability": "nonpayable",
      "type": "function"
    },
    {
      "inputs": [
        {
          "internalType": "contract InterestRateModel",
          "name": "newInterestRateModel",
          "type": "address"
        }
      ],
      "name": "_setInterestRateModel",
      "outputs": [
        {
          "internalType": "uint256",
          "name": "",
          "type": "uint256"
        }
      ],
      "stateMutability": "nonpayable",
      "type": "function"
    },
    {
      "inputs": [
        {
          "internalType": "address payable",
          "name": "newPendingAdmin",
          "type": "address"
        }
      ],
      "name": "_setPendingAdmin",
      "outputs": [
        {
          "internalType": "uint256",
          "name": "",
          "type": "uint256"
        }
      ],
      "stateMutability": "nonpayable",
      "type": "function"
    },
    {
      "inputs": [
        {
          "internalType": "uint256",
          "name": "newReserveFactorMantissa",
          "type": "uint256"
        }
      ],
      "name": "_setReserveFactor",
      "outputs": [
        {
          "internalType": "uint256",
          "name": "",
          "type": "uint256"
        }
      ],
      "stateMutability": "nonpayable",
      "type": "function"
    },
    {
      "inputs": [],
      "name": "accrualBlockNumber",
      "outputs": [
        {
          "internalType": "uint256",
          "name": "",
          "type": "uint256"
        }
      ],
      "stateMutability": "view",
      "type": "function"
    },
    {
      "inputs": [],
      "name": "accrueInterest",
      "outputs": [
        {
          "internalType": "uint256",
          "name": "",
          "type": "uint256"
        }
      ],
      "stateMutability": "nonpayable",
      "type": "function"
    },
    {
      "inputs": [],
      "name": "admin",
      "outputs": [
        {
          "internalType": "address payable",
          "name": "",
          "type": "address"
        }
      ],
      "stateMutability": "view",
      "type": "function"
    },
    {
      "inputs": [
        {
          "internalType": "address",
          "name": "owner",
          "type": "address"
        },
        {
          "internalType": "address",
          "name": "spender",
          "type": "address"
        }
      ],
      "name": "allowance",
      "outputs": [
        {
          "internalType": "uint256",
          "name": "",
          "type": "uint256"
        }
      ],
      "stateMutability": "view",
      "type": "function"
    },
    {
      "inputs": [
        {
          "internalType": "address",
          "name": "spender",
          "type": "address"
        },
        {
          "internalType": "uint256",
          "name": "amount",
          "type": "uint256"
        }
      ],
      "name": "approve",
      "outputs": [
        {
          "internalType": "bool",
          "name": "",
          "type": "bool"
        }
      ],
      "stateMutability": "nonpayable",
      "type": "function"
    },
    {
      "inputs": [
        {
          "internalType": "address",
          "name": "owner",
          "type": "address"
        }
      ],
      "name": "balanceOf",
      "outputs": [
        {
          "internalType": "uint256",
          "name": "",
          "type": "uint256"
        }
      ],
      "stateMutability": "view",
      "type": "function"
    },
    {
      "inputs": [
        {
          "internalType": "address",
          "name": "owner",
          "type": "address"
        }
      ],
      "name": "balanceOfUnderlying",
      "outputs": [
        {
          "internalType": "uint256",
          "name": "",
          "type": "uint256"
        }
      ],
      "stateMutability": "nonpayable",
      "type": "function"
    },
    {
      "inputs": [
        {
          "internalType": "uint256",
          "name": "borrowAmount",
          "type": "uint256"
        }
      ],
      "name": "borrow",
      "outputs": [
        {
          "internalType": "uint256",
          "name": "",
          "type": "uint256"
        }
      ],
      "stateMutability": "nonpayable",
      "type": "function"
    },
    {
      "inputs": [
        {
          "internalType": "address",
          "name": "account",
          "type": "address"
        }
      ],
      "name": "borrowBalanceCurrent",
      "outputs": [
        {
          "internalType": "uint256",
          "name": "",
          "type": "uint256"
        }
      ],
      "stateMutability": "nonpayable",
      "type": "function"
    },
    {
      "inputs": [
        {
          "internalType": "address",
          "name": "account",
          "type": "address"
        }
      ],
      "name": "borrowBalanceStored",
      "outputs": [
        {
          "internalType": "uint256",
          "name": "",
          "type": "uint256"
        }
      ],
      "stateMutability": "view",
      "type": "function"
    },
    {
      "inputs": [],
      "name": "borrowIndex",
      "outputs": [
        {
          "internalType": "uint256",
          "name": "",
          "type": "uint256"
        }
      ],
      "stateMutability": "view",
      "type": "function"
    },
    {
      "inputs": [],
      "name": "borrowRatePerBlock",
      "outputs": [
        {
          "internalType": "uint256",
          "name": "",
          "type": "uint256"
        }
      ],
      "stateMutability": "view",
      "type": "function"
    },
    {
      "inputs": [],
      "name": "comptroller",
      "outputs": [
        {
          "internalType": "contract ComptrollerInterface",
          "name": "",
          "type": "address"
        }
      ],
      "stateMutability": "view",
      "type": "function"
    },
    {
      "inputs": [],
      "name": "decimals",
      "outputs": [
        {
          "internalType": "uint8",
          "name": "",
          "type": "uint8"
        }
      ],
      "stateMutability": "view",
      "type": "function"
    },
    {
      "inputs": [],
      "name": "exchangeRateCurrent",
      "outputs": [
        {
          "internalType": "uint256",
          "name": "",
          "type": "uint256"
        }
      ],
      "stateMutability": "nonpayable",
      "type": "function"
    },
    {
      "inputs": [],
      "name": "exchangeRateStored",
      "outputs": [
        {
          "internalType": "uint256",
          "name": "",
          "type": "uint256"
        }
      ],
      "stateMutability": "view",
      "type": "function"
    },
    {
      "inputs": [
        {
          "internalType": "address",
          "name": "account",
          "type": "address"
        }
      ],
      "name": "getAccountSnapshot",
      "outputs": [
        {
          "internalType": "uint256",
          "name": "",
          "type": "uint256"
        },
        {
          "internalType": "uint256",
          "name": "",
          "type": "uint256"
        },
        {
          "internalType": "uint256",
          "name": "",
          "type": "uint256"
        },
        {
          "internalType": "uint256",
          "name": "",
          "type": "uint256"
        }
      ],
      "stateMutability": "view",
      "type": "function"
    },
    {
      "inputs": [],
      "name": "getCash",
      "outputs": [
        {
          "internalType": "uint256",
          "name": "",
          "type": "uint256"
        }
      ],
      "stateMutability": "view",
      "type": "function"
    },
    {
      "inputs": [],
      "name": "implementation",
      "outputs": [
        {
          "internalType": "address",
          "name": "",
          "type": "address"
        }
      ],
      "stateMutability": "view",
      "type": "function"
    },
    {
      "inputs": [
        {
          "internalType": "address",
          "name": "underlying_",
          "type": "address"
        },
        {
          "internalType": "contract ComptrollerInterface",
          "name": "comptroller_",
          "type": "address"
        },
        {
          "internalType": "contract InterestRateModel",
          "name": "interestRateModel_",
          "type": "address"
        },
        {
          "internalType": "uint256",
          "name": "initialExchangeRateMantissa_",
          "type": "uint256"
        },
        {
          "internalType": "string",
          "name": "name_",
          "type": "string"
        },
        {
          "internalType": "string",
          "name": "symbol_",
          "type": "string"
        },
        {
          "internalType": "uint8",
          "name": "decimals_",
          "type": "uint8"
        }
      ],
      "name": "initialize",
      "outputs": [],
      "stateMutability": "nonpayable",
      "type": "function"
    },
    {
      "inputs": [
        {
          "internalType": "contract ComptrollerInterface",
          "name": "comptroller_",
          "type": "address"
        },
        {
          "internalType": "contract InterestRateModel",
          "name": "interestRateModel_",
          "type": "address"
        },
        {
          "internalType": "uint256",
          "name": "initialExchangeRateMantissa_",
          "type": "uint256"
        },
        {
          "internalType": "string",
          "name": "name_",
          "type": "string"
        },
        {
          "internalType": "string",
          "name": "symbol_",
          "type": "string"
        },
        {
          "internalType": "uint8",
          "name": "decimals_",
          "type": "uint8"
        }
      ],
      "name": "initialize",
      "outputs": [],
      "stateMutability": "nonpayable",
      "type": "function"
    },
    {
      "inputs": [],
      "name": "interestRateModel",
      "outputs": [
        {
          "internalType": "contract InterestRateModel",
          "name": "",
          "type": "address"
        }
      ],
      "stateMutability": "view",
      "type": "function"
    },
    {
      "inputs": [],
      "name": "isCToken",
      "outputs": [
        {
          "internalType": "bool",
          "name": "",
          "type": "bool"
        }
      ],
      "stateMutability": "view",
      "type": "function"
    },
    {
      "inputs": [
        {
          "internalType": "address",
          "name": "borrower",
          "type": "address"
        },
        {
          "internalType": "uint256",
          "name": "repayAmount",
          "type": "uint256"
        },
        {
          "internalType": "contract CTokenInterface",
          "name": "cTokenCollateral",
          "type": "address"
        }
      ],
      "name": "liquidateBorrow",
      "outputs": [
        {
          "internalType": "uint256",
          "name": "",
          "type": "uint256"
        }
      ],
      "stateMutability": "nonpayable",
      "type": "function"
    },
    {
      "inputs": [
        {
          "internalType": "uint256",
          "name": "mintAmount",
          "type": "uint256"
        }
      ],
      "name": "mint",
      "outputs": [
        {
          "internalType": "uint256",
          "name": "",
          "type": "uint256"
        }
      ],
      "stateMutability": "nonpayable",
      "type": "function"
    },
    {
      "inputs": [
        {
          "internalType": "uint256",
          "name": "mintAmount",
          "type": "uint256"
        }
      ],
      "name": "mintSt",
      "outputs": [
        {
          "internalType": "uint256",
          "name": "",
          "type": "uint256"
        }
      ],
      "stateMutability": "nonpayable",
      "type": "function"
    },
    {
      "inputs": [],
      "name": "name",
      "outputs": [
        {
          "internalType": "string",
          "name": "",
          "type": "string"
        }
      ],
      "stateMutability": "view",
      "type": "function"
    },
    {
      "inputs": [],
      "name": "pendingAdmin",
      "outputs": [
        {
          "internalType": "address payable",
          "name": "",
          "type": "address"
        }
      ],
      "stateMutability": "view",
      "type": "function"
    },
    {
      "inputs": [],
      "name": "protocolSeizeShareMantissa",
      "outputs": [
        {
          "internalType": "uint256",
          "name": "",
          "type": "uint256"
        }
      ],
      "stateMutability": "view",
      "type": "function"
    },
    {
      "inputs": [
        {
          "internalType": "uint256",
          "name": "redeemTokens",
          "type": "uint256"
        }
      ],
      "name": "redeem",
      "outputs": [
        {
          "internalType": "uint256",
          "name": "",
          "type": "uint256"
        }
      ],
      "stateMutability": "nonpayable",
      "type": "function"
    },
    {
      "inputs": [
        {
          "internalType": "uint256",
          "name": "redeemTokens",
          "type": "uint256"
        }
      ],
      "name": "redeemSt",
      "outputs": [
        {
          "internalType": "uint256",
          "name": "",
          "type": "uint256"
        }
      ],
      "stateMutability": "nonpayable",
      "type": "function"
    },
    {
      "inputs": [
        {
          "internalType": "uint256",
          "name": "redeemAmount",
          "type": "uint256"
        }
      ],
      "name": "redeemUnderlying",
      "outputs": [
        {
          "internalType": "uint256",
          "name": "",
          "type": "uint256"
        }
      ],
      "stateMutability": "nonpayable",
      "type": "function"
    },
    {
      "inputs": [
        {
          "internalType": "uint256",
          "name": "repayAmount",
          "type": "uint256"
        }
      ],
      "name": "repayBorrow",
      "outputs": [
        {
          "internalType": "uint256",
          "name": "",
          "type": "uint256"
        }
      ],
      "stateMutability": "nonpayable",
      "type": "function"
    },
    {
      "inputs": [
        {
          "internalType": "address",
          "name": "borrower",
          "type": "address"
        },
        {
          "internalType": "uint256",
          "name": "repayAmount",
          "type": "uint256"
        }
      ],
      "name": "repayBorrowBehalf",
      "outputs": [
        {
          "internalType": "uint256",
          "name": "",
          "type": "uint256"
        }
      ],
      "stateMutability": "nonpayable",
      "type": "function"
    },
    {
      "inputs": [],
      "name": "reserveFactorMantissa",
      "outputs": [
        {
          "internalType": "uint256",
          "name": "",
          "type": "uint256"
        }
      ],
      "stateMutability": "view",
      "type": "function"
    },
    {
      "inputs": [
        {
          "internalType": "address",
          "name": "liquidator",
          "type": "address"
        },
        {
          "internalType": "address",
          "name": "borrower",
          "type": "address"
        },
        {
          "internalType": "uint256",
          "name": "seizeTokens",
          "type": "uint256"
        }
      ],
      "name": "seize",
      "outputs": [
        {
          "internalType": "uint256",
          "name": "",
          "type": "uint256"
        }
      ],
      "stateMutability": "nonpayable",
      "type": "function"
    },
    {
      "inputs": [],
      "name": "stakedTON",
      "outputs": [
        {
          "internalType": "address",
          "name": "",
          "type": "address"
        }
      ],
      "stateMutability": "view",
      "type": "function"
    },
    {
      "inputs": [],
      "name": "supplyRatePerBlock",
      "outputs": [
        {
          "internalType": "uint256",
          "name": "",
          "type": "uint256"
        }
      ],
      "stateMutability": "view",
      "type": "function"
    },
    {
      "inputs": [
        {
          "internalType": "contract EIP20NonStandardInterface",
          "name": "token",
          "type": "address"
        }
      ],
      "name": "sweepToken",
      "outputs": [],
      "stateMutability": "nonpayable",
      "type": "function"
    },
    {
      "inputs": [],
      "name": "symbol",
      "outputs": [
        {
          "internalType": "string",
          "name": "",
          "type": "string"
        }
      ],
      "stateMutability": "view",
      "type": "function"
    },
    {
      "inputs": [],
      "name": "totalBorrows",
      "outputs": [
        {
          "internalType": "uint256",
          "name": "",
          "type": "uint256"
        }
      ],
      "stateMutability": "view",
      "type": "function"
    },
    {
      "inputs": [],
      "name": "totalBorrowsCurrent",
      "outputs": [
        {
          "internalType": "uint256",
          "name": "",
          "type": "uint256"
        }
      ],
      "stateMutability": "nonpayable",
      "type": "function"
    },
    {
      "inputs": [],
      "name": "totalReserves",
      "outputs": [
        {
          "internalType": "uint256",
          "name": "",
          "type": "uint256"
        }
      ],
      "stateMutability": "view",
      "type": "function"
    },
    {
      "inputs": [],
      "name": "totalSupply",
      "outputs": [
        {
          "internalType": "uint256",
          "name": "",
          "type": "uint256"
        }
      ],
      "stateMutability": "view",
      "type": "function"
    },
    {
      "inputs": [
        {
          "internalType": "address",
          "name": "dst",
          "type": "address"
        },
        {
          "internalType": "uint256",
          "name": "amount",
          "type": "uint256"
        }
      ],
      "name": "transfer",
      "outputs": [
        {
          "internalType": "bool",
          "name": "",
          "type": "bool"
        }
      ],
      "stateMutability": "nonpayable",
      "type": "function"
    },
    {
      "inputs": [
        {
          "internalType": "address",
          "name": "src",
          "type": "address"
        },
        {
          "internalType": "address",
          "name": "dst",
          "type": "address"
        },
        {
          "internalType": "uint256",
          "name": "amount",
          "type": "uint256"
        }
      ],
      "name": "transferFrom",
      "outputs": [
        {
          "internalType": "bool",
          "name": "",
          "type": "bool"
        }
      ],
      "stateMutability": "nonpayable",
      "type": "function"
    },
    {
      "inputs": [],
      "name": "underlying",
      "outputs": [
        {
          "internalType": "address",
          "name": "",
          "type": "address"
        }
      ],
      "stateMutability": "view",
      "type": "function"
    }
  ],
  "transactionHash": "0x51abed4a650e2b682a9fbad4cdc63c7045e813ede30cd151b53abf3caf9e8582",
  "args": [],
  "numDeployments": 1,
  "solcInputHash": "97d2cd6cbe320a46584a944c083ce6a6",
  "bytecode": "0x608060405234801561001057600080fd5b50614468806100206000396000f3fe608060405234801561001057600080fd5b506004361061038e5760003560e01c806373acee98116101de578063b71d1a0c1161010f578063f2b3abbd116100ad578063f8f9da281161007c578063f8f9da281461078b578063fb82a0c714610793578063fca7820b146107a6578063fe9c44ae146107b957600080fd5b8063f2b3abbd1461073a578063f3fdb15a1461074d578063f5e3c46214610760578063f851a4401461077357600080fd5b8063c5ebeaec116100e9578063c5ebeaec146106d3578063db006a75146106e6578063dd62ed3e146106f9578063e9c714f21461073257600080fd5b8063b71d1a0c14610685578063bd6d894d14610698578063c37f68e2146106a057600080fd5b806399d8c1b41161017c578063a9059cbb11610156578063a9059cbb1461064e578063aa5af0fd14610661578063ae9d70b01461066a578063b2a02ff11461067257600080fd5b806399d8c1b414610620578063a0712d6814610633578063a6afed951461064657600080fd5b8063852a12e3116101b8578063852a12e3146105e95780638f840ddd146105fc57806395d89b411461060557806395dd91931461060d57600080fd5b806373acee98146105c65780637f1e06be146105ce57806381df4f21146105e157600080fd5b8063313ce567116102c357806356e677281161026157806369ab32501161023057806369ab3250146105795780636c540baf146105815780636f307dc31461058a57806370a082311461059d57600080fd5b806356e67728146105325780635c60da1b146105455780635fe3b567146105585780636752e7021461056b57600080fd5b80633e9410101161029d5780633e941010146104f05780634576b5db1461050357806347bd3718146105165780634a6244531461051f57600080fd5b8063313ce567146104b65780633af9e669146104d55780633b1d21a2146104e857600080fd5b8063182df0f51161033057806323b872dd1161030a57806323b872dd1461045257806325772642146104655780632608f8181461049057806326782247146104a357600080fd5b8063182df0f5146104245780631a31d4651461042c5780631be195601461043f57600080fd5b8063153ab5051161036c578063153ab505146103f5578063173b9904146103ff57806317bfdfbc1461040857806318160ddd1461041b57600080fd5b806306fdde0314610393578063095ea7b3146103b15780630e752702146103d4575b600080fd5b61039b6107c1565b6040516103a89190613d8f565b60405180910390f35b6103c46103bf366004613df2565b61084f565b60405190151581526020016103a8565b6103e76103e2366004613e1e565b6108bf565b6040519081526020016103a8565b6103fd6108d2565b005b6103e760085481565b6103e7610416366004613e37565b61094e565b6103e7600d5481565b6103e76109a1565b6103fd61043a366004613f16565b6109b0565b6103fd61044d366004613e37565b610a45565b6103c4610460366004613fcc565b610c11565b601354610478906001600160a01b031681565b6040516001600160a01b0390911681526020016103a8565b6103e761049e366004613df2565b610c61565b600454610478906001600160a01b031681565b6003546104c39060ff1681565b60405160ff90911681526020016103a8565b6103e76104e3366004613e37565b610c76565b6103e7610cbc565b6103e76104fe366004613e1e565b610cc6565b6103e7610511366004613e37565b610cd1565b6103e7600b5481565b6103e761052d366004613e1e565b610e23565b6103fd61054036600461400d565b611131565b601254610478906001600160a01b031681565b600554610478906001600160a01b031681565b6103e7666379da05b6000081565b6103e7600081565b6103e760095481565b601154610478906001600160a01b031681565b6103e76105ab366004613e37565b6001600160a01b03166000908152600e602052604090205490565b6103e76111ce565b6103fd6105dc366004613e37565b611218565b6103e76112ef565b6103e76105f7366004613e1e565b611344565b6103e7600c5481565b61039b61134f565b6103e761061b366004613e37565b61135c565b6103fd61062e366004614056565b611367565b6103e7610641366004613e1e565b6115b4565b6103e76115bf565b6103c461065c366004613df2565b6117ac565b6103e7600a5481565b6103e76117fb565b6103e7610680366004613fcc565b611893565b6103e7610693366004613e37565b6118e2565b6103e761196f565b6106b36106ae366004613e37565b6119bf565b6040805194855260208501939093529183015260608201526080016103a8565b6103e76106e1366004613e1e565b611a00565b6103e76106f4366004613e1e565b611a0b565b6103e76107073660046140f8565b6001600160a01b039182166000908152600f6020908152604080832093909416825291909152205490565b6103e7611a16565b6103e7610748366004613e37565b611b1d565b600654610478906001600160a01b031681565b6103e761076e366004614131565b611b31565b6003546104789061010090046001600160a01b031681565b6103e7611b48565b6103e76107a1366004613e1e565b611b9b565b6103e76107b4366004613e1e565b611e4f565b6103c4600181565b600180546107ce90614173565b80601f01602080910402602001604051908101604052809291908181526020018280546107fa90614173565b80156108475780601f1061081c57610100808354040283529160200191610847565b820191906000526020600020905b81548152906001019060200180831161082a57829003601f168201915b505050505081565b336000818152600f602090815260408083206001600160a01b03871680855292528083208590555191929182907f8c5be1e5ebec7d5bd14f71427d1e84f3dd0314c0f7b2291e5b200ac8c7c3b925906108ab9087815260200190565b60405180910390a360019150505b92915050565b60006108ca82611e8e565b506000919050565b60035461010090046001600160a01b0316331461094c5760405162461bcd60e51b815260206004820152602d60248201527f6f6e6c79207468652061646d696e206d61792063616c6c205f72657369676e4960448201526c36b83632b6b2b73a30ba34b7b760991b60648201526084015b60405180910390fd5b565b6000805460ff166109715760405162461bcd60e51b8152600401610943906141ad565b6000805460ff191690556109836115bf565b5061098d8261135c565b90506000805460ff19166001179055919050565b60006109ab611edf565b905090565b6109be868686868686611367565b601180546001600160a01b0319166001600160a01b038916908117909155604080516318160ddd60e01b815290516318160ddd916004808201926020929091908290030181865afa158015610a17573d6000803e3d6000fd5b505050506040513d601f19601f82011682018060405250810190610a3b91906141d1565b5050505050505050565b60035461010090046001600160a01b03163314610abc5760405162461bcd60e51b815260206004820152602f60248201527f4345726332303a3a7377656570546f6b656e3a206f6e6c792061646d696e206360448201526e616e20737765657020746f6b656e7360881b6064820152608401610943565b6011546001600160a01b0390811690821603610b355760405162461bcd60e51b815260206004820152603260248201527f4345726332303a3a7377656570546f6b656e3a2063616e206e6f74207377656560448201527138103ab73232b9363cb4b733903a37b5b2b760711b6064820152608401610943565b6040516370a0823160e01b81523060048201526000906001600160a01b038316906370a0823190602401602060405180830381865afa158015610b7c573d6000803e3d6000fd5b505050506040513d601f19601f82011682018060405250810190610ba091906141d1565b60035460405163a9059cbb60e01b81526001600160a01b03610100909204821660048201526024810183905291925083169063a9059cbb90604401600060405180830381600087803b158015610bf557600080fd5b505af1158015610c09573d6000803e3d6000fd5b505050505050565b6000805460ff16610c345760405162461bcd60e51b8152600401610943906141ad565b6000805460ff19168155610c4a33868686611f47565b1490506000805460ff191660011790559392505050565b6000610c6d8383612173565b50600092915050565b6000806040518060200160405280610c8c61196f565b90526001600160a01b0384166000908152600e6020526040902054909150610cb59082906121c5565b9392505050565b60006109ab6121e5565b60006108b98261225a565b60035460009061010090046001600160a01b03163314610d045760405163d219dc1f60e01b815260040160405180910390fd5b60055460408051623f1ee960e11b815290516001600160a01b0392831692851691627e3dd29160048083019260209291908290030181865afa158015610d4e573d6000803e3d6000fd5b505050506040513d601f19601f82011682018060405250810190610d7291906141ea565b610dbe5760405162461bcd60e51b815260206004820152601c60248201527f6d61726b6572206d6574686f642072657475726e65642066616c7365000000006044820152606401610943565b600580546001600160a01b0319166001600160a01b0385811691821790925560408051928416835260208301919091527f7ac369dbd14fa5ea3f473ed67cc9d598964a77501540ba6751eb0b3decf5870d91015b60405180910390a150600092915050565b6000610e2d6115bf565b503382610e715760405162461bcd60e51b815260206004820152601260248201527114995919595b481e995c9bc8185b5bdd5b9d60721b6044820152606401610943565b60006040518060200160405280610e86611edf565b905290506000610e9682866121c5565b60055460405163eabe7d9160e01b81529192506000916001600160a01b039091169063eabe7d9190610ed090309088908b9060040161420c565b6020604051808303816000875af1158015610eef573d6000803e3d6000fd5b505050506040513d601f19601f82011682018060405250810190610f1391906141d1565b90508015610f375760405163480f424760e01b815260048101829052602401610943565b4360095414610f59576040516397b5cfcd60e01b815260040160405180910390fd5b81610f626121e5565b1015610f81576040516391240a1b60e01b815260040160405180910390fd5b85600d54610f8f9190614246565b600d556001600160a01b0384166000908152600e6020526040902054610fb6908790614246565b6001600160a01b038581166000818152600e602052604090819020939093556011549251635d043b2960e11b815260048101869052602481019190915230604482015291169063ba087652906064016020604051808303816000875af1158015611024573d6000803e3d6000fd5b505050506040513d601f19601f8201168201806040525081019061104891906141d1565b5060405186815230906001600160a01b038616906000805160206144138339815191529060200160405180910390a37fe5b754fb1abb7f01b499791d0b820ae3b6af3424ac1c59768edb53f4ec31a9298483886040516110aa93929190614259565b60405180910390a16005546040516351dff98960e01b81523060048201526001600160a01b0386811660248301526044820185905260648201899052909116906351dff98990608401600060405180830381600087803b15801561110d57600080fd5b505af1158015611121573d6000803e3d6000fd5b5060009998505050505050505050565b60035461010090046001600160a01b031633146111a95760405162461bcd60e51b815260206004820152603060248201527f6f6e6c79207468652061646d696e206d617920696e697469616c697a6520746860448201526f329034b6b83632b6b2b73a30ba34b7b760811b6064820152608401610943565b6000818060200190518101906111bf919061427a565b90506111ca816122b1565b5050565b6000805460ff166111f15760405162461bcd60e51b8152600401610943906141ad565b6000805460ff191690556112036115bf565b5050600b546000805460ff1916600117905590565b60035461010090046001600160a01b0316331461128d5760405162461bcd60e51b815260206004820152602d60248201527f6f6e6c79207468652061646d696e206d6179207365742074686520636f6d702d60448201526c6c696b652064656c656761746560981b6064820152608401610943565b6011546040516317066a5760e21b81526001600160a01b03838116600483015290911690635c19a95c90602401600060405180830381600087803b1580156112d457600080fd5b505af11580156112e8573d6000803e3d6000fd5b5050505050565b6000805460ff166113125760405162461bcd60e51b8152600401610943906141ad565b6000805460ff191690556113246115bf565b50600c546113318161233d565b9150506000805460ff1916600117905590565b60006108ca82612534565b600280546107ce90614173565b60006108b982612585565b60035461010090046001600160a01b031633146113d25760405162461bcd60e51b8152602060048201526024808201527f6f6e6c792061646d696e206d617920696e697469616c697a6520746865206d616044820152631c9ad95d60e21b6064820152608401610943565b6009541580156113e25750600a54155b61143a5760405162461bcd60e51b815260206004820152602360248201527f6d61726b6574206d6179206f6e6c7920626520696e697469616c697a6564206f6044820152626e636560e81b6064820152608401610943565b6007849055836114a55760405162461bcd60e51b815260206004820152603060248201527f696e697469616c2065786368616e67652072617465206d75737420626520677260448201526f32b0ba32b9103a3430b7103d32b9379760811b6064820152608401610943565b60006114b087610cd1565b905080156115005760405162461bcd60e51b815260206004820152601a60248201527f73657474696e6720636f6d7074726f6c6c6572206661696c65640000000000006044820152606401610943565b43600955670de0b6b3a7640000600a55611519866125d1565b905080156115745760405162461bcd60e51b815260206004820152602260248201527f73657474696e6720696e7465726573742072617465206d6f64656c206661696c604482015261195960f21b6064820152608401610943565b600161158085826142e2565b50600261158d84826142e2565b50506003805460ff90921660ff199283161790556000805490911660011790555050505050565b60006108ca82612746565b60095460009043908181036115d75760009250505090565b60006115e16121e5565b600b54600c54600a546006546040516315f2405360e01b81526004810186905260248101859052604481018490529495509293919290916000916001600160a01b0316906315f2405390606401602060405180830381865afa15801561164b573d6000803e3d6000fd5b505050506040513d601f19601f8201168201806040525081019061166f91906141d1565b905065048c273950008111156116c75760405162461bcd60e51b815260206004820152601c60248201527f626f72726f772072617465206973206162737572646c792068696768000000006044820152606401610943565b60006116d38789614246565b905060006116ef60405180602001604052808581525083612785565b905060006116fd82886121c5565b9050600061170b88836143a2565b9050600061172a6040518060200160405280600854815250848a6127b6565b9050600061173985898a6127b6565b60098e9055600a819055600b849055600c839055604080518d815260208101879052908101829052606081018590529091507f4dec04e750ca11537cabcd8a9eab06494de08da3735bc8871cd41250e190bc049060800160405180910390a160009d505050505050505050505050505090565b6000805460ff166117cf5760405162461bcd60e51b8152600401610943906141ad565b6000805460ff191681556117e533808686611f47565b1490506000805460ff1916600117905592915050565b6006546000906001600160a01b031663b81688166118176121e5565b600b54600c546008546040516001600160e01b031960e087901b16815260048101949094526024840192909252604483015260648201526084015b602060405180830381865afa15801561186f573d6000803e3d6000fd5b505050506040513d601f19601f820116820180604052508101906109ab91906141d1565b6000805460ff166118b65760405162461bcd60e51b8152600401610943906141ad565b6000805460ff191690556118cc338585856127d7565b50600080805460ff191660011790559392505050565b60035460009061010090046001600160a01b0316331461191557604051635cb56c2b60e01b815260040160405180910390fd5b600480546001600160a01b038481166001600160a01b031983168117909355604080519190921680825260208201939093527fca4f2f25d0898edd99413412fb94012f9e54ec8142f9b093e7720646a95b16a99101610e12565b6000805460ff166119925760405162461bcd60e51b8152600401610943906141ad565b6000805460ff191690556119a46115bf565b506119ad6109a1565b90506000805460ff1916600117905590565b6001600160a01b0381166000908152600e602052604081205481908190819081906119e987612585565b6119f1611edf565b93509350935093509193509193565b60006108ca82612a4f565b60006108ca82612a8e565b6004546000906001600160a01b031633141580611a31575033155b15611a4f57604051631ba24f2960e21b815260040160405180910390fd5b60038054600480546001600160a01b03808216610100818102610100600160a81b0319871617968790556001600160a01b031990931690935560408051948390048216808652929095041660208401529290917ff9ffabca9c8276e99321725bcb43fb076a6c66a54b7f21c4e8146d8519b417dc910160405180910390a1600454604080516001600160a01b03808516825290921660208301527fca4f2f25d0898edd99413412fb94012f9e54ec8142f9b093e7720646a95b16a9910160405180910390a160009250505090565b6000611b276115bf565b506108b9826125d1565b6000611b3e848484612acf565b5060009392505050565b6006546000906001600160a01b03166315f24053611b646121e5565b600b54600c546040516001600160e01b031960e086901b168152600481019390935260248301919091526044820152606401611852565b6000611ba56115bf565b50334360095414611bc9576040516338d8859760e01b815260040160405180910390fd5b60006040518060200160405280611bde611edf565b90526013546040516323b872dd60e01b81529192506001600160a01b0316906323b872dd90611c159085903090899060040161420c565b6020604051808303816000875af1158015611c34573d6000803e3d6000fd5b505050506040513d601f19601f82011682018060405250810190611c5891906141ea565b50611c6284612bad565b601154604051636e553f6560e01b8152600481018690523060248201526000916001600160a01b031690636e553f65906044016020604051808303816000875af1158015611cb4573d6000803e3d6000fd5b505050506040513d601f19601f82011682018060405250810190611cd891906141d1565b600554604051634ef4c3e160e01b81529192506000916001600160a01b0390911690634ef4c3e190611d129030908890879060040161420c565b6020604051808303816000875af1158015611d31573d6000803e3d6000fd5b505050506040513d601f19601f82011682018060405250810190611d5591906141d1565b90508015611d79576040516349abd4fd60e01b815260048101829052602401610943565b6000611d858385612c6c565b905080600d54611d9591906143a2565b600d556001600160a01b0385166000908152600e6020526040902054611dbc9082906143a2565b6001600160a01b0386166000908152600e60205260409081902091909155517f4c209b5fc8ad50758f13e2e1088ba56a560dff690a1c6fef26394f4c03821c4f90611e0c90879086908590614259565b60405180910390a16040518181526001600160a01b0386169030906000805160206144138339815191529060200160405180910390a35060009695505050505050565b6000805460ff16611e725760405162461bcd60e51b8152600401610943906141ad565b6000805460ff19169055611e846115bf565b5061098d82612c8a565b60005460ff16611eb05760405162461bcd60e51b8152600401610943906141ad565b6000805460ff19169055611ec26115bf565b50611ece333383612d46565b50506000805460ff19166001179055565b600d54600090808203611ef457505060075490565b6000611efe6121e5565b90506000600c54600b5483611f1391906143a2565b611f1d9190614246565b9050600083611f34670de0b6b3a7640000846143b5565b611f3e91906143cc565b95945050505050565b6005546040516317b9b84b60e31b81523060048201526001600160a01b038581166024830152848116604483015260648201849052600092839291169063bdcdc258906084016020604051808303816000875af1158015611fac573d6000803e3d6000fd5b505050506040513d601f19601f82011682018060405250810190611fd091906141d1565b90508015611ff45760405163089d427760e11b815260048101829052602401610943565b836001600160a01b0316856001600160a01b03160361202657604051638cd22d1960e01b815260040160405180910390fd5b6000856001600160a01b0316876001600160a01b03160361204a5750600019612072565b506001600160a01b038086166000908152600f60209081526040808320938a16835292905220545b600061207e8583614246565b6001600160a01b0388166000908152600e6020526040812054919250906120a6908790614246565b6001600160a01b0388166000908152600e6020526040812054919250906120ce9088906143a2565b6001600160a01b03808b166000908152600e6020526040808220869055918b1681522081905590506000198414612128576001600160a01b03808a166000908152600f60209081526040808320938e168352929052208390555b876001600160a01b0316896001600160a01b03166000805160206144138339815191528960405161215b91815260200190565b60405180910390a35060009998505050505050505050565b60005460ff166121955760405162461bcd60e51b8152600401610943906141ad565b6000805460ff191690556121a76115bf565b506121b3338383612d46565b50506000805460ff1916600117905550565b6000806121d28484612785565b90506121dd81612eef565b949350505050565b6011546040516370a0823160e01b81523060048201526000916001600160a01b03169081906370a0823190602401602060405180830381865afa158015612230573d6000803e3d6000fd5b505050506040513d601f19601f8201168201806040525081019061225491906141d1565b91505090565b6000805460ff1661227d5760405162461bcd60e51b8152600401610943906141ad565b6000805460ff1916905561228f6115bf565b5061229982612f07565b5050600090506000805460ff19166001179055919050565b601380546001600160a01b0319166001600160a01b0383811691821790925560115460405163095ea7b360e01b81529216600483015260001960248301529063095ea7b3906044015b6020604051808303816000875af1158015612319573d6000803e3d6000fd5b505050506040513d601f19601f820116820180604052508101906111ca91906141ea565b600080600560009054906101000a90046001600160a01b03166001600160a01b03166361d027b36040518163ffffffff1660e01b8152600401602060405180830381865afa158015612393573d6000803e3d6000fd5b505050506040513d601f19601f820116820180604052508101906123b7919061427a565b6001600160a01b0316336001600160a01b0316146123e857604051630f7e5e6d60e41b815260040160405180910390fd5b436009541461240a57604051630dff50cb60e41b815260040160405180910390fd5b826124136121e5565b101561243257604051633345e99960e01b815260040160405180910390fd5b600c54831115612455576040516378d2980560e11b815260040160405180910390fd5b82600c546124639190614246565b905080600c819055506124ec600560009054906101000a90046001600160a01b03166001600160a01b03166361d027b36040518163ffffffff1660e01b8152600401602060405180830381865afa1580156124c2573d6000803e3d6000fd5b505050506040513d601f19601f820116820180604052508101906124e6919061427a565b84612f9b565b7f3bad0c59cf2f06e7314077049f48a93578cd16f5ef92329f1dab1420a99c177e600360019054906101000a90046001600160a01b03168483604051610e1293929190614259565b60005460ff166125565760405162461bcd60e51b8152600401610943906141ad565b6000805460ff191690556125686115bf565b5061257533600083613085565b506000805460ff19166001179055565b6001600160a01b0381166000908152601060205260408120805482036125ae5750600092915050565b600a5481546000916125bf916143b5565b90508160010154816121dd91906143cc565b600354600090819061010090046001600160a01b031633146126065760405163407fded560e01b815260040160405180910390fd5b436009541461262857604051630be2a5cb60e11b815260040160405180910390fd5b600660009054906101000a90046001600160a01b03169050826001600160a01b0316632191f92a6040518163ffffffff1660e01b8152600401602060405180830381865afa15801561267e573d6000803e3d6000fd5b505050506040513d601f19601f820116820180604052508101906126a291906141ea565b6126ee5760405162461bcd60e51b815260206004820152601c60248201527f6d61726b6572206d6574686f642072657475726e65642066616c7365000000006044820152606401610943565b600680546001600160a01b0319166001600160a01b0385811691821790925560408051928416835260208301919091527fedffc32e068c7c95dfd4bdfd5c4d939a084d6b11c4199eac8436ed234d72f9269101610e12565b60005460ff166127685760405162461bcd60e51b8152600401610943906141ad565b6000805460ff1916905561277a6115bf565b506125753382613362565b60408051602081019091526000815260405180602001604052806127ad856000015185613518565b90529392505050565b6000806127c38585612785565b9050611f3e6127d182612eef565b84613524565b60055460405163d02f735160e01b81523060048201526001600160a01b0386811660248301528581166044830152848116606483015260848201849052600092169063d02f73519060a4016020604051808303816000875af1158015612841573d6000803e3d6000fd5b505050506040513d601f19601f8201168201806040525081019061286591906141d1565b90508015612889576040516363e00e3360e11b815260048101829052602401610943565b836001600160a01b0316836001600160a01b0316036128bb57604051633a94626760e11b815260040160405180910390fd5b60006128dc836040518060200160405280666379da05b60000815250613530565b905060006128ea8285614246565b905060006040518060200160405280612901611edf565b90529050600061291182856121c5565b9050600081600c5461292391906143a2565b600c819055600d54909150612939908690614246565b600d556001600160a01b0388166000908152600e6020526040902054612960908890614246565b6001600160a01b03808a166000908152600e602052604080822093909355908b16815220546129909085906143a2565b6001600160a01b03808b166000818152600e602052604090819020939093559151908a1690600080516020614413833981519152906129d29088815260200190565b60405180910390a360405185815230906001600160a01b038a16906000805160206144138339815191529060200160405180910390a37fa91e67c5ea634cd43a12c5a482724b03de01e85ca68702a53d0c2f45cb7c1dc5308383604051612a3b93929190614259565b60405180910390a150505050505050505050565b60005460ff16612a715760405162461bcd60e51b8152600401610943906141ad565b6000805460ff19169055612a836115bf565b506125753382613553565b60005460ff16612ab05760405162461bcd60e51b8152600401610943906141ad565b6000805460ff19169055612ac26115bf565b5061257533826000613085565b60005460ff16612af15760405162461bcd60e51b8152600401610943906141ad565b6000805460ff19169055612b036115bf565b506000816001600160a01b031663a6afed956040518163ffffffff1660e01b81526004016020604051808303816000875af1158015612b46573d6000803e3d6000fd5b505050506040513d601f19601f82011682018060405250810190612b6a91906141d1565b90508015612b8e57604051633eea49b760e11b815260048101829052602401610943565b612b9a338585856136f2565b50506000805460ff191660011790555050565b601354601154604051636eb1769f60e11b81523060048201526001600160a01b0391821660248201528392919091169063dd62ed3e90604401602060405180830381865afa158015612c03573d6000803e3d6000fd5b505050506040513d601f19601f82011682018060405250810190612c2791906141d1565b1015612c695760135460115460405163095ea7b360e01b81526001600160a01b039182166004820152600019602482015291169063095ea7b3906044016122fa565b50565b6000610cb5612c8384670de0b6b3a7640000613518565b8351613bac565b60035460009061010090046001600160a01b03163314612cbd57604051631205b57b60e11b815260040160405180910390fd5b4360095414612cdf57604051637dfca6b760e11b815260040160405180910390fd5b670de0b6b3a7640000821115612d085760405163717220f360e11b815260040160405180910390fd5b600880549083905560408051828152602081018590527faaa68312e2ea9d50e16af5068410ab56e1a1fd06037b1a35664812c30f8214609101610e12565b600554604051631200453160e11b81523060048201526001600160a01b03858116602483015284811660448301526064820184905260009283929116906324008a62906084016020604051808303816000875af1158015612dab573d6000803e3d6000fd5b505050506040513d601f19601f82011682018060405250810190612dcf91906141d1565b90508015612df357604051638c81362d60e01b815260048101829052602401610943565b4360095414612e155760405163c9021e2f60e01b815260040160405180910390fd5b6000612e2085612585565b905060006000198514612e335784612e35565b815b90506000612e438883613bb8565b90506000612e518285614246565b9050600082600b54612e639190614246565b6001600160a01b038a8116600081815260106020908152604091829020878155600a54600190910155600b8590558151938f168452830191909152810185905260608101849052608081018290529091507f1a2a22cb034d26d1854bdc6666a5b91fe25efbbb5dcad3b0355478d6f5c362a19060a00160405180910390a1509098975050505050505050565b80516000906108b990670de0b6b3a7640000906143cc565b60008080804360095414612f31576040516338acf79960e01b815260048101829052602401610943565b612f3b3386613bb8565b905080600c54612f4b91906143a2565b915081600c819055507fa91e67c5ea634cd43a12c5a482724b03de01e85ca68702a53d0c2f45cb7c1dc5338284604051612f8793929190614259565b60405180910390a160009590945092505050565b60115460405163a9059cbb60e01b81526001600160a01b0384811660048301526024820184905290911690819063a9059cbb90604401600060405180830381600087803b158015612feb57600080fd5b505af1158015612fff573d6000803e3d6000fd5b5050505060003d6000811461301b576020811461302557600080fd5b6000199150613031565b60206000803e60005191505b508061307f5760405162461bcd60e51b815260206004820152601960248201527f544f4b454e5f5452414e534645525f4f55545f4641494c4544000000000000006044820152606401610943565b50505050565b811580613090575080155b6130f95760405162461bcd60e51b815260206004820152603460248201527f6f6e65206f662072656465656d546f6b656e73496e206f722072656465656d416044820152736d6f756e74496e206d757374206265207a65726f60601b6064820152608401610943565b6000604051806020016040528061310e611edf565b90529050600080841561312f5784915061312883866121c5565b905061313f565b6131398484612c6c565b91508390505b60055460405163eabe7d9160e01b81526000916001600160a01b03169063eabe7d91906131749030908b90889060040161420c565b6020604051808303816000875af1158015613193573d6000803e3d6000fd5b505050506040513d601f19601f820116820180604052508101906131b791906141d1565b905080156131db5760405163480f424760e01b815260048101829052602401610943565b43600954146131fd576040516397b5cfcd60e01b815260040160405180910390fd5b816132066121e5565b1015613225576040516391240a1b60e01b815260040160405180910390fd5b82600d546132339190614246565b600d556001600160a01b0387166000908152600e602052604090205461325a908490614246565b6001600160a01b0388166000908152600e602052604090205561327d8783612f9b565b60405183815230906001600160a01b038916906000805160206144138339815191529060200160405180910390a37fe5b754fb1abb7f01b499791d0b820ae3b6af3424ac1c59768edb53f4ec31a9298783856040516132de93929190614259565b60405180910390a16005546040516351dff98960e01b81523060048201526001600160a01b0389811660248301526044820185905260648201869052909116906351dff98990608401600060405180830381600087803b15801561334157600080fd5b505af1158015613355573d6000803e3d6000fd5b5050505050505050505050565b600554604051634ef4c3e160e01b81526000916001600160a01b031690634ef4c3e1906133979030908790879060040161420c565b6020604051808303816000875af11580156133b6573d6000803e3d6000fd5b505050506040513d601f19601f820116820180604052508101906133da91906141d1565b905080156133fe576040516349abd4fd60e01b815260048101829052602401610943565b4360095414613420576040516338d8859760e01b815260040160405180910390fd5b60006040518060200160405280613435611edf565b9052905060006134458585613bb8565b905060006134538284612c6c565b905080600d5461346391906143a2565b600d556001600160a01b0386166000908152600e602052604090205461348a9082906143a2565b6001600160a01b0387166000908152600e60205260409081902091909155517f4c209b5fc8ad50758f13e2e1088ba56a560dff690a1c6fef26394f4c03821c4f906134da90889085908590614259565b60405180910390a16040518181526001600160a01b0387169030906000805160206144138339815191529060200160405180910390a3505050505050565b6000610cb582846143b5565b6000610cb582846143a2565b6000670de0b6b3a7640000613549848460000151613518565b610cb591906143cc565b60055460405163368f515360e21b81526000916001600160a01b03169063da3d454c906135889030908790879060040161420c565b6020604051808303816000875af11580156135a7573d6000803e3d6000fd5b505050506040513d601f19601f820116820180604052508101906135cb91906141d1565b905080156135ef5760405163918db40f60e01b815260048101829052602401610943565b436009541461361157604051630e8d8c6160e21b815260040160405180910390fd5b8161361a6121e5565b1015613639576040516348c2588160e01b815260040160405180910390fd5b600061364484612585565b9050600061365284836143a2565b9050600084600b5461366491906143a2565b6001600160a01b0387166000908152601060205260409020838155600a54600190910155600b81905590506136998686612f9b565b604080516001600160a01b038816815260208101879052908101839052606081018290527f13ed6866d4e1ee6da46f845c46d7e54120883d75c5ea9a2dacc1c4ca8984ab809060800160405180910390a1505050505050565b600554604051632fe3f38f60e11b81523060048201526001600160a01b03838116602483015286811660448301528581166064830152608482018590526000921690635fc7e71e9060a4016020604051808303816000875af115801561375c573d6000803e3d6000fd5b505050506040513d601f19601f8201168201806040525081019061378091906141d1565b905080156137a457604051630a14d17960e11b815260048101829052602401610943565b43600954146137c6576040516380965b1b60e01b815260040160405180910390fd5b43826001600160a01b0316636c540baf6040518163ffffffff1660e01b8152600401602060405180830381865afa158015613805573d6000803e3d6000fd5b505050506040513d601f19601f8201168201806040525081019061382991906141d1565b1461384757604051631046f38d60e31b815260040160405180910390fd5b846001600160a01b0316846001600160a01b03160361387957604051631bd1a62160e21b815260040160405180910390fd5b8260000361389a5760405163d29da7ef60e01b815260040160405180910390fd5b60001983036138bc57604051635982c5bb60e11b815260040160405180910390fd5b60006138c9868686612d46565b60055460405163c488847b60e01b815291925060009182916001600160a01b03169063c488847b906139039030908990889060040161420c565b6040805180830381865afa15801561391f573d6000803e3d6000fd5b505050506040513d601f19601f8201168201806040525081019061394391906143ee565b91509150600082146139b35760405162461bcd60e51b815260206004820152603360248201527f4c49515549444154455f434f4d5054524f4c4c45525f43414c43554c4154455f604482015272105353d5539517d4d152569157d19052531151606a1b6064820152608401610943565b6040516370a0823160e01b81526001600160a01b0388811660048301528291908716906370a0823190602401602060405180830381865afa1580156139fc573d6000803e3d6000fd5b505050506040513d601f19601f82011682018060405250810190613a2091906141d1565b1015613a6e5760405162461bcd60e51b815260206004820152601860248201527f4c49515549444154455f5345495a455f544f4f5f4d55434800000000000000006044820152606401610943565b306001600160a01b03861603613a8f57613a8a308989846127d7565b613b49565b60405163b2a02ff160e01b81526000906001600160a01b0387169063b2a02ff190613ac2908c908c90879060040161420c565b6020604051808303816000875af1158015613ae1573d6000803e3d6000fd5b505050506040513d601f19601f82011682018060405250810190613b0591906141d1565b14613b495760405162461bcd60e51b81526020600482015260146024820152731d1bdad95b881cd95a5e9d5c994819985a5b195960621b6044820152606401610943565b604080516001600160a01b038a811682528981166020830152818301869052871660608201526080810183905290517f298637f684da70674f26509b10f07ec2fbc77a335ab1e7d6215a4b2484d8bb529181900360a00190a15050505050505050565b6000610cb582846143cc565b6011546040516370a0823160e01b81523060048201526000916001600160a01b0316908190839082906370a0823190602401602060405180830381865afa158015613c07573d6000803e3d6000fd5b505050506040513d601f19601f82011682018060405250810190613c2b91906141d1565b6040516323b872dd60e01b81529091506001600160a01b038316906323b872dd90613c5e90899030908a9060040161420c565b600060405180830381600087803b158015613c7857600080fd5b505af1158015613c8c573d6000803e3d6000fd5b5050505060003d60008114613ca85760208114613cb257600080fd5b6000199150613cbe565b60206000803e60005191505b5080613d0c5760405162461bcd60e51b815260206004820152601860248201527f544f4b454e5f5452414e534645525f494e5f4641494c454400000000000000006044820152606401610943565b6040516370a0823160e01b81523060048201526000906001600160a01b038616906370a0823190602401602060405180830381865afa158015613d53573d6000803e3d6000fd5b505050506040513d601f19601f82011682018060405250810190613d7791906141d1565b9050613d838382614246565b98975050505050505050565b600060208083528351808285015260005b81811015613dbc57858101830151858201604001528201613da0565b506000604082860101526040601f19601f8301168501019250505092915050565b6001600160a01b0381168114612c6957600080fd5b60008060408385031215613e0557600080fd5b8235613e1081613ddd565b946020939093013593505050565b600060208284031215613e3057600080fd5b5035919050565b600060208284031215613e4957600080fd5b8135610cb581613ddd565b634e487b7160e01b600052604160045260246000fd5b600067ffffffffffffffff80841115613e8557613e85613e54565b604051601f8501601f19908116603f01168101908282118183101715613ead57613ead613e54565b81604052809350858152868686011115613ec657600080fd5b858560208301376000602087830101525050509392505050565b600082601f830112613ef157600080fd5b610cb583833560208501613e6a565b803560ff81168114613f1157600080fd5b919050565b600080600080600080600060e0888a031215613f3157600080fd5b8735613f3c81613ddd565b96506020880135613f4c81613ddd565b95506040880135613f5c81613ddd565b945060608801359350608088013567ffffffffffffffff80821115613f8057600080fd5b613f8c8b838c01613ee0565b945060a08a0135915080821115613fa257600080fd5b50613faf8a828b01613ee0565b925050613fbe60c08901613f00565b905092959891949750929550565b600080600060608486031215613fe157600080fd5b8335613fec81613ddd565b92506020840135613ffc81613ddd565b929592945050506040919091013590565b60006020828403121561401f57600080fd5b813567ffffffffffffffff81111561403657600080fd5b8201601f8101841361404757600080fd5b6121dd84823560208401613e6a565b60008060008060008060c0878903121561406f57600080fd5b863561407a81613ddd565b9550602087013561408a81613ddd565b945060408701359350606087013567ffffffffffffffff808211156140ae57600080fd5b6140ba8a838b01613ee0565b945060808901359150808211156140d057600080fd5b506140dd89828a01613ee0565b9250506140ec60a08801613f00565b90509295509295509295565b6000806040838503121561410b57600080fd5b823561411681613ddd565b9150602083013561412681613ddd565b809150509250929050565b60008060006060848603121561414657600080fd5b833561415181613ddd565b925060208401359150604084013561416881613ddd565b809150509250925092565b600181811c9082168061418757607f821691505b6020821081036141a757634e487b7160e01b600052602260045260246000fd5b50919050565b6020808252600a90820152691c994b595b9d195c995960b21b604082015260600190565b6000602082840312156141e357600080fd5b5051919050565b6000602082840312156141fc57600080fd5b81518015158114610cb557600080fd5b6001600160a01b039384168152919092166020820152604081019190915260600190565b634e487b7160e01b600052601160045260246000fd5b818103818111156108b9576108b9614230565b6001600160a01b039390931683526020830191909152604082015260600190565b60006020828403121561428c57600080fd5b8151610cb581613ddd565b601f8211156142dd57600081815260208120601f850160051c810160208610156142be5750805b601f850160051c820191505b81811015610c09578281556001016142ca565b505050565b815167ffffffffffffffff8111156142fc576142fc613e54565b6143108161430a8454614173565b84614297565b602080601f831160018114614345576000841561432d5750858301515b600019600386901b1c1916600185901b178555610c09565b600085815260208120601f198616915b8281101561437457888601518255948401946001909101908401614355565b50858210156143925787850151600019600388901b60f8161c191681555b5050505050600190811b01905550565b808201808211156108b9576108b9614230565b80820281158282048414176108b9576108b9614230565b6000826143e957634e487b7160e01b600052601260045260246000fd5b500490565b6000806040838503121561440157600080fd5b50508051602090910151909290915056feddf252ad1be2c89b69c2b068fc378daa952ba7f163c4a11628f55a4df523b3efa26469706673582212205e599e19b023bbd21303cd0f1a23e6edbf927687b348d119ba2c0894f490490a64736f6c63430008130033",
  "devdoc": {
    "author": "Compound",
    "kind": "dev",
    "methods": {
      "_acceptAdmin()": {
        "details": "Admin function for pending admin to accept role and update admin",
        "returns": {
          "_0": "uint 0=success, otherwise a failure (see ErrorReporter.sol for details)"
        }
      },
      "_addReserves(uint256)": {
        "params": {
          "addAmount": "The amount fo underlying token to add as reserves"
        },
        "returns": {
          "_0": "uint 0=success, otherwise a failure (see ErrorReporter.sol for details)"
        }
      },
      "_becomeImplementation(bytes)": {
        "params": {
          "data": "The encoded arguments for becoming"
        }
      },
      "_delegateCompLikeTo(address)": {
        "details": "CTokens whose underlying are not CompLike should revert here",
        "params": {
          "compLikeDelegatee": "The address to delegate votes to"
        }
      },
      "_reduceReserves()": {
        "returns": {
          "_0": "uint 0=success, otherwise a failure (see ErrorReporter.sol for details)"
        }
      },
      "_setComptroller(address)": {
        "details": "Admin function to set a new comptroller",
        "returns": {
          "_0": "uint 0=success, otherwise a failure (see ErrorReporter.sol for details)"
        }
      },
      "_setInterestRateModel(address)": {
        "details": "Admin function to accrue interest and update the interest rate model",
        "params": {
          "newInterestRateModel": "the new interest rate model to use"
        },
        "returns": {
          "_0": "uint 0=success, otherwise a failure (see ErrorReporter.sol for details)"
        }
      },
      "_setPendingAdmin(address)": {
        "details": "Admin function to begin change of admin. The newPendingAdmin must call `_acceptAdmin` to finalize the transfer.",
        "params": {
          "newPendingAdmin": "New pending admin."
        },
        "returns": {
          "_0": "uint 0=success, otherwise a failure (see ErrorReporter.sol for details)"
        }
      },
      "_setReserveFactor(uint256)": {
        "details": "Admin function to accrue interest and set a new reserve factor",
        "returns": {
          "_0": "uint 0=success, otherwise a failure (see ErrorReporter.sol for details)"
        }
      },
      "accrueInterest()": {
        "details": "This calculates interest accrued from the last checkpointed block   up to the current block and writes new checkpoint to storage."
      },
      "allowance(address,address)": {
        "params": {
          "owner": "The address of the account which owns the tokens to be spent",
          "spender": "The address of the account which may transfer tokens"
        },
        "returns": {
          "_0": "The number of tokens allowed to be spent (-1 means infinite)"
        }
      },
      "approve(address,uint256)": {
        "details": "This will overwrite the approval amount for `spender`  and is subject to issues noted [here](https://eips.ethereum.org/EIPS/eip-20#approve)",
        "params": {
          "amount": "The number of tokens that are approved (uint256.max means infinite)",
          "spender": "The address of the account which may transfer tokens"
        },
        "returns": {
          "_0": "Whether or not the approval succeeded"
        }
      },
      "balanceOf(address)": {
        "params": {
          "owner": "The address of the account to query"
        },
        "returns": {
          "_0": "The number of tokens owned by `owner`"
        }
      },
      "balanceOfUnderlying(address)": {
        "details": "This also accrues interest in a transaction",
        "params": {
          "owner": "The address of the account to query"
        },
        "returns": {
          "_0": "The amount of underlying owned by `owner`"
        }
      },
      "borrow(uint256)": {
        "params": {
          "borrowAmount": "The amount of the underlying asset to borrow"
        },
        "returns": {
          "_0": "uint 0=success, otherwise a failure (see ErrorReporter.sol for details)"
        }
      },
      "borrowBalanceCurrent(address)": {
        "params": {
          "account": "The address whose balance should be calculated after updating borrowIndex"
        },
        "returns": {
          "_0": "The calculated balance"
        }
      },
      "borrowBalanceStored(address)": {
        "params": {
          "account": "The address whose balance should be calculated"
        },
        "returns": {
          "_0": "The calculated balance"
        }
      },
      "borrowRatePerBlock()": {
        "returns": {
          "_0": "The borrow interest rate per block, scaled by 1e18"
        }
      },
      "exchangeRateCurrent()": {
        "returns": {
          "_0": "Calculated exchange rate scaled by 1e18"
        }
      },
      "exchangeRateStored()": {
        "details": "This function does not accrue interest before calculating the exchange rate",
        "returns": {
          "_0": "Calculated exchange rate scaled by 1e18"
        }
      },
      "getAccountSnapshot(address)": {
        "details": "This is used by comptroller to more efficiently perform liquidity checks.",
        "params": {
          "account": "Address of the account to snapshot"
        },
        "returns": {
          "_0": "(possible error, token balance, borrow balance, exchange rate mantissa)"
        }
      },
      "getCash()": {
        "returns": {
          "_0": "The quantity of underlying asset owned by this contract"
        }
      },
      "initialize(address,address,address,uint256,string,string,uint8)": {
        "params": {
          "comptroller_": "The address of the Comptroller",
          "decimals_": "ERC-20 decimal precision of this token",
          "initialExchangeRateMantissa_": "The initial exchange rate, scaled by 1e18",
          "interestRateModel_": "The address of the interest rate model",
          "name_": "ERC-20 name of this token",
          "symbol_": "ERC-20 symbol of this token",
          "underlying_": "The address of the underlying asset"
        }
      },
      "initialize(address,address,uint256,string,string,uint8)": {
        "params": {
          "comptroller_": "The address of the Comptroller",
          "decimals_": "EIP-20 decimal precision of this token",
          "initialExchangeRateMantissa_": "The initial exchange rate, scaled by 1e18",
          "interestRateModel_": "The address of the interest rate model",
          "name_": "EIP-20 name of this token",
          "symbol_": "EIP-20 symbol of this token"
        }
      },
      "liquidateBorrow(address,uint256,address)": {
        "params": {
          "borrower": "The borrower of this cToken to be liquidated",
          "cTokenCollateral": "The market in which to seize collateral from the borrower",
          "repayAmount": "The amount of the underlying borrowed asset to repay"
        },
        "returns": {
          "_0": "uint 0=success, otherwise a failure (see ErrorReporter.sol for details)"
        }
      },
      "mint(uint256)": {
        "details": "Accrues interest whether or not the operation succeeds, unless reverted",
        "params": {
          "mintAmount": "The amount of the underlying asset to supply"
        },
        "returns": {
          "_0": "uint 0=success, otherwise a failure (see ErrorReporter.sol for details)"
        }
      },
      "mintSt(uint256)": {
        "details": "Accrues interest whether or not the operation succeeds, unless reverted",
        "params": {
          "mintAmount": "The amount of the stakedTON asset to supply"
        },
        "returns": {
          "_0": "uint 0=success, otherwise a failure (see ErrorReporter.sol for details)"
        }
      },
      "redeem(uint256)": {
        "details": "Accrues interest whether or not the operation succeeds, unless reverted",
        "params": {
          "redeemTokens": "The number of cTokens to redeem into underlying"
        },
        "returns": {
          "_0": "uint 0=success, otherwise a failure (see ErrorReporter.sol for details)"
        }
      },
      "redeemSt(uint256)": {
        "details": "Accrues interest whether or not the operation succeeds, unless reverted",
        "params": {
          "redeemTokens": "The number of cTokens to redeem into stakedTON tokens"
        },
        "returns": {
          "_0": "uint 0=success, otherwise a failure (see ErrorReporter.sol for details)"
        }
      },
      "redeemUnderlying(uint256)": {
        "details": "Accrues interest whether or not the operation succeeds, unless reverted",
        "params": {
          "redeemAmount": "The amount of underlying to redeem"
        },
        "returns": {
          "_0": "uint 0=success, otherwise a failure (see ErrorReporter.sol for details)"
        }
      },
      "repayBorrow(uint256)": {
        "params": {
          "repayAmount": "The amount to repay, or -1 for the full outstanding amount"
        },
        "returns": {
          "_0": "uint 0=success, otherwise a failure (see ErrorReporter.sol for details)"
        }
      },
      "repayBorrowBehalf(address,uint256)": {
        "params": {
          "borrower": "the account with the debt being payed off",
          "repayAmount": "The amount to repay, or -1 for the full outstanding amount"
        },
        "returns": {
          "_0": "uint 0=success, otherwise a failure (see ErrorReporter.sol for details)"
        }
      },
      "seize(address,address,uint256)": {
        "details": "Will fail unless called by another cToken during the process of liquidation.  Its absolutely critical to use msg.sender as the borrowed cToken and not a parameter.",
        "params": {
          "borrower": "The account having collateral seized",
          "liquidator": "The account receiving seized collateral",
          "seizeTokens": "The number of cTokens to seize"
        },
        "returns": {
          "_0": "uint 0=success, otherwise a failure (see ErrorReporter.sol for details)"
        }
      },
      "supplyRatePerBlock()": {
        "returns": {
          "_0": "The supply interest rate per block, scaled by 1e18"
        }
      },
      "sweepToken(address)": {
        "params": {
          "token": "The address of the ERC-20 token to sweep"
        }
      },
      "totalBorrowsCurrent()": {
        "returns": {
          "_0": "The total borrows with interest"
        }
      },
      "transfer(address,uint256)": {
        "params": {
          "amount": "The number of tokens to transfer",
          "dst": "The address of the destination account"
        },
        "returns": {
          "_0": "Whether or not the transfer succeeded"
        }
      },
      "transferFrom(address,address,uint256)": {
        "params": {
          "amount": "The number of tokens to transfer",
          "dst": "The address of the destination account",
          "src": "The address of the source account"
        },
        "returns": {
          "_0": "Whether or not the transfer succeeded"
        }
      }
    },
    "title": "Compound's CDai Contract",
    "version": 1
  },
  "userdoc": {
    "events": {
      "AccrueInterest(uint256,uint256,uint256,uint256)": {
        "notice": "Event emitted when interest is accrued"
      },
      "Approval(address,address,uint256)": {
        "notice": "EIP20 Approval event"
      },
      "Borrow(address,uint256,uint256,uint256)": {
        "notice": "Event emitted when underlying is borrowed"
      },
      "LiquidateBorrow(address,address,uint256,address,uint256)": {
        "notice": "Event emitted when a borrow is liquidated"
      },
      "Mint(address,uint256,uint256)": {
        "notice": "Event emitted when tokens are minted"
      },
      "NewAdmin(address,address)": {
        "notice": "Event emitted when pendingAdmin is accepted, which means admin is updated"
      },
      "NewComptroller(address,address)": {
        "notice": "Event emitted when comptroller is changed"
      },
      "NewMarketInterestRateModel(address,address)": {
        "notice": "Event emitted when interestRateModel is changed"
      },
      "NewPendingAdmin(address,address)": {
        "notice": "Event emitted when pendingAdmin is changed"
      },
      "NewReserveFactor(uint256,uint256)": {
        "notice": "Event emitted when the reserve factor is changed"
      },
      "Redeem(address,uint256,uint256)": {
        "notice": "Event emitted when tokens are redeemed"
      },
      "RepayBorrow(address,address,uint256,uint256,uint256)": {
        "notice": "Event emitted when a borrow is repaid"
      },
      "ReservesAdded(address,uint256,uint256)": {
        "notice": "Event emitted when the reserves are added"
      },
      "ReservesReduced(address,uint256,uint256)": {
        "notice": "Event emitted when the reserves are reduced"
      },
      "Transfer(address,address,uint256)": {
        "notice": "EIP20 Transfer event"
      }
    },
    "kind": "user",
    "methods": {
      "_acceptAdmin()": {
        "notice": "Accepts transfer of admin rights. msg.sender must be pendingAdmin"
      },
      "_addReserves(uint256)": {
        "notice": "The sender adds to reserves."
      },
      "_becomeImplementation(bytes)": {
        "notice": "Delegate interface to become the implementation"
      },
      "_delegateCompLikeTo(address)": {
        "notice": "Admin call to delegate the votes of the COMP-like underlying"
      },
      "_reduceReserves()": {
        "notice": "Accrues interest and reduces all reserves by transferring to treasury"
      },
      "_resignImplementation()": {
        "notice": "Called by the delegator on a delegate to forfeit its responsibility"
      },
      "_setComptroller(address)": {
        "notice": "Sets a new comptroller for the market"
      },
      "_setInterestRateModel(address)": {
        "notice": "accrues interest and updates the interest rate model using _setInterestRateModelFresh"
      },
      "_setPendingAdmin(address)": {
        "notice": "Begins transfer of admin rights. The newPendingAdmin must call `_acceptAdmin` to finalize the transfer."
      },
      "_setReserveFactor(uint256)": {
        "notice": "accrues interest and sets a new reserve factor for the protocol using _setReserveFactorFresh"
      },
      "accrualBlockNumber()": {
        "notice": "Block number that interest was last accrued at"
      },
      "accrueInterest()": {
        "notice": "Applies accrued interest to total borrows and reserves"
      },
      "admin()": {
        "notice": "Administrator for this contract"
      },
      "allowance(address,address)": {
        "notice": "Get the current allowance from `owner` for `spender`"
      },
      "approve(address,uint256)": {
        "notice": "Approve `spender` to transfer up to `amount` from `src`"
      },
      "balanceOf(address)": {
        "notice": "Get the token balance of the `owner`"
      },
      "balanceOfUnderlying(address)": {
        "notice": "Get the underlying balance of the `owner`"
      },
      "borrow(uint256)": {
        "notice": "Sender borrows assets from the protocol to their own address"
      },
      "borrowBalanceCurrent(address)": {
        "notice": "Accrue interest to updated borrowIndex and then calculate account's borrow balance using the updated borrowIndex"
      },
      "borrowBalanceStored(address)": {
        "notice": "Return the borrow balance of account based on stored data"
      },
      "borrowIndex()": {
        "notice": "Accumulator of the total earned interest rate since the opening of the market"
      },
      "borrowRatePerBlock()": {
        "notice": "Returns the current per-block borrow interest rate for this cToken"
      },
      "comptroller()": {
        "notice": "Contract which oversees inter-cToken operations"
      },
      "decimals()": {
        "notice": "EIP-20 token decimals for this token"
      },
      "exchangeRateCurrent()": {
        "notice": "Accrue interest then return the up-to-date exchange rate"
      },
      "exchangeRateStored()": {
        "notice": "Calculates the exchange rate from the underlying to the CToken"
      },
      "getAccountSnapshot(address)": {
        "notice": "Get a snapshot of the account's balances, and the cached exchange rate"
      },
      "getCash()": {
        "notice": "Get cash balance of this cToken in the underlying asset"
      },
      "implementation()": {
        "notice": "Implementation address for this contract"
      },
      "initialize(address,address,address,uint256,string,string,uint8)": {
        "notice": "Initialize the new money market"
      },
      "initialize(address,address,uint256,string,string,uint8)": {
        "notice": "Initialize the money market"
      },
      "interestRateModel()": {
        "notice": "Model which tells what the current interest rate should be"
      },
      "isCToken()": {
        "notice": "Indicator that this is a CToken contract (for inspection)"
      },
      "liquidateBorrow(address,uint256,address)": {
        "notice": "The sender liquidates the borrowers collateral.  The collateral seized is transferred to the liquidator."
      },
      "mint(uint256)": {
        "notice": "Sender supplies assets into the market and receives cTokens in exchange"
      },
      "mintSt(uint256)": {
        "notice": "Sender supplies stakedTON assets into the market and receives cTokens in exchange stakedTON wraps into PooledTON (underlying) inside"
      },
      "name()": {
        "notice": "EIP-20 token name for this token"
      },
      "pendingAdmin()": {
        "notice": "Pending administrator for this contract"
      },
      "protocolSeizeShareMantissa()": {
        "notice": "Share of seized collateral that is added to reserves"
      },
      "redeem(uint256)": {
        "notice": "Sender redeems cTokens in exchange for the underlying asset"
      },
      "redeemSt(uint256)": {
        "notice": "Sender redeems cTokens in exchange for the stakedTON tokens"
      },
      "redeemUnderlying(uint256)": {
        "notice": "Sender redeems cTokens in exchange for a specified amount of underlying asset"
      },
      "repayBorrow(uint256)": {
        "notice": "Sender repays their own borrow"
      },
      "repayBorrowBehalf(address,uint256)": {
        "notice": "Sender repays a borrow belonging to borrower"
      },
      "reserveFactorMantissa()": {
        "notice": "Fraction of interest currently set aside for reserves"
      },
      "seize(address,address,uint256)": {
        "notice": "Transfers collateral tokens (this market) to the liquidator."
      },
      "stakedTON()": {
        "notice": "StakedTON contract address"
      },
      "supplyRatePerBlock()": {
        "notice": "Returns the current per-block supply interest rate for this cToken"
      },
      "sweepToken(address)": {
        "notice": "A public function to sweep accidental ERC-20 transfers to this contract. Tokens are sent to admin (timelock)"
      },
      "symbol()": {
        "notice": "EIP-20 token symbol for this token"
      },
      "totalBorrows()": {
        "notice": "Total amount of outstanding borrows of the underlying in this market"
      },
      "totalBorrowsCurrent()": {
        "notice": "Returns the current total borrows plus accrued interest"
      },
      "totalReserves()": {
        "notice": "Total amount of reserves of the underlying held in this market"
      },
      "totalSupply()": {
        "notice": "Total number of tokens in circulation"
      },
      "transfer(address,uint256)": {
        "notice": "Transfer `amount` tokens from `msg.sender` to `dst`"
      },
      "transferFrom(address,address,uint256)": {
        "notice": "Transfer `amount` tokens from `src` to `dst`"
      },
      "underlying()": {
        "notice": "Underlying asset for this CToken"
      }
    },
    "notice": "CToken which wraps Multi-Collateral DAI",
    "version": 1
  },
  "storageLayout": {
    "storage": [
      {
        "astId": 3526,
        "contract": "contracts/CpTonDelegate.sol:CpTonDelegate",
        "label": "_notEntered",
        "offset": 0,
        "slot": "0",
        "type": "t_bool"
      },
      {
        "astId": 3529,
        "contract": "contracts/CpTonDelegate.sol:CpTonDelegate",
        "label": "name",
        "offset": 0,
        "slot": "1",
        "type": "t_string_storage"
      },
      {
        "astId": 3532,
        "contract": "contracts/CpTonDelegate.sol:CpTonDelegate",
        "label": "symbol",
        "offset": 0,
        "slot": "2",
        "type": "t_string_storage"
      },
      {
        "astId": 3535,
        "contract": "contracts/CpTonDelegate.sol:CpTonDelegate",
        "label": "decimals",
        "offset": 0,
        "slot": "3",
        "type": "t_uint8"
      },
      {
        "astId": 3544,
        "contract": "contracts/CpTonDelegate.sol:CpTonDelegate",
        "label": "admin",
        "offset": 1,
        "slot": "3",
        "type": "t_address_payable"
      },
      {
        "astId": 3547,
        "contract": "contracts/CpTonDelegate.sol:CpTonDelegate",
        "label": "pendingAdmin",
        "offset": 0,
        "slot": "4",
        "type": "t_address_payable"
      },
      {
        "astId": 3551,
        "contract": "contracts/CpTonDelegate.sol:CpTonDelegate",
        "label": "comptroller",
        "offset": 0,
        "slot": "5",
        "type": "t_contract(ComptrollerInterface)12032"
      },
      {
        "astId": 3555,
        "contract": "contracts/CpTonDelegate.sol:CpTonDelegate",
        "label": "interestRateModel",
        "offset": 0,
        "slot": "6",
        "type": "t_contract(InterestRateModel)16024"
      },
      {
        "astId": 3557,
        "contract": "contracts/CpTonDelegate.sol:CpTonDelegate",
        "label": "initialExchangeRateMantissa",
        "offset": 0,
        "slot": "7",
        "type": "t_uint256"
      },
      {
        "astId": 3560,
        "contract": "contracts/CpTonDelegate.sol:CpTonDelegate",
        "label": "reserveFactorMantissa",
        "offset": 0,
        "slot": "8",
        "type": "t_uint256"
      },
      {
        "astId": 3563,
        "contract": "contracts/CpTonDelegate.sol:CpTonDelegate",
        "label": "accrualBlockNumber",
        "offset": 0,
        "slot": "9",
        "type": "t_uint256"
      },
      {
        "astId": 3566,
        "contract": "contracts/CpTonDelegate.sol:CpTonDelegate",
        "label": "borrowIndex",
        "offset": 0,
        "slot": "10",
        "type": "t_uint256"
      },
      {
        "astId": 3569,
        "contract": "contracts/CpTonDelegate.sol:CpTonDelegate",
        "label": "totalBorrows",
        "offset": 0,
        "slot": "11",
        "type": "t_uint256"
      },
      {
        "astId": 3572,
        "contract": "contracts/CpTonDelegate.sol:CpTonDelegate",
        "label": "totalReserves",
        "offset": 0,
        "slot": "12",
        "type": "t_uint256"
      },
      {
        "astId": 3575,
        "contract": "contracts/CpTonDelegate.sol:CpTonDelegate",
        "label": "totalSupply",
        "offset": 0,
        "slot": "13",
        "type": "t_uint256"
      },
      {
        "astId": 3579,
        "contract": "contracts/CpTonDelegate.sol:CpTonDelegate",
        "label": "accountTokens",
        "offset": 0,
        "slot": "14",
        "type": "t_mapping(t_address,t_uint256)"
      },
      {
        "astId": 3585,
        "contract": "contracts/CpTonDelegate.sol:CpTonDelegate",
        "label": "transferAllowances",
        "offset": 0,
        "slot": "15",
        "type": "t_mapping(t_address,t_mapping(t_address,t_uint256))"
      },
      {
        "astId": 3595,
        "contract": "contracts/CpTonDelegate.sol:CpTonDelegate",
        "label": "accountBorrows",
        "offset": 0,
        "slot": "16",
        "type": "t_mapping(t_address,t_struct(BorrowSnapshot)3590_storage)"
      },
      {
        "astId": 3916,
        "contract": "contracts/CpTonDelegate.sol:CpTonDelegate",
        "label": "underlying",
        "offset": 0,
        "slot": "17",
        "type": "t_address"
      },
      {
        "astId": 3992,
        "contract": "contracts/CpTonDelegate.sol:CpTonDelegate",
        "label": "implementation",
        "offset": 0,
        "slot": "18",
        "type": "t_address"
      },
      {
        "astId": 12263,
        "contract": "contracts/CpTonDelegate.sol:CpTonDelegate",
        "label": "stakedTON",
        "offset": 0,
        "slot": "19",
        "type": "t_address"
      }
    ],
    "types": {
      "t_address": {
        "encoding": "inplace",
        "label": "address",
        "numberOfBytes": "20"
      },
      "t_address_payable": {
        "encoding": "inplace",
        "label": "address payable",
        "numberOfBytes": "20"
      },
      "t_bool": {
        "encoding": "inplace",
        "label": "bool",
        "numberOfBytes": "1"
      },
      "t_contract(ComptrollerInterface)12032": {
        "encoding": "inplace",
        "label": "contract ComptrollerInterface",
        "numberOfBytes": "20"
      },
      "t_contract(InterestRateModel)16024": {
        "encoding": "inplace",
        "label": "contract InterestRateModel",
        "numberOfBytes": "20"
      },
      "t_mapping(t_address,t_mapping(t_address,t_uint256))": {
        "encoding": "mapping",
        "key": "t_address",
        "label": "mapping(address => mapping(address => uint256))",
        "numberOfBytes": "32",
        "value": "t_mapping(t_address,t_uint256)"
      },
      "t_mapping(t_address,t_struct(BorrowSnapshot)3590_storage)": {
        "encoding": "mapping",
        "key": "t_address",
        "label": "mapping(address => struct CTokenStorage.BorrowSnapshot)",
        "numberOfBytes": "32",
        "value": "t_struct(BorrowSnapshot)3590_storage"
      },
      "t_mapping(t_address,t_uint256)": {
        "encoding": "mapping",
        "key": "t_address",
        "label": "mapping(address => uint256)",
        "numberOfBytes": "32",
        "value": "t_uint256"
      },
      "t_string_storage": {
        "encoding": "bytes",
        "label": "string",
        "numberOfBytes": "32"
      },
      "t_struct(BorrowSnapshot)3590_storage": {
        "encoding": "inplace",
        "label": "struct CTokenStorage.BorrowSnapshot",
        "members": [
          {
            "astId": 3587,
            "contract": "contracts/CpTonDelegate.sol:CpTonDelegate",
            "label": "principal",
            "offset": 0,
            "slot": "0",
            "type": "t_uint256"
          },
          {
            "astId": 3589,
            "contract": "contracts/CpTonDelegate.sol:CpTonDelegate",
            "label": "interestIndex",
            "offset": 0,
            "slot": "1",
            "type": "t_uint256"
          }
        ],
        "numberOfBytes": "64"
      },
      "t_uint256": {
        "encoding": "inplace",
        "label": "uint256",
        "numberOfBytes": "32"
      },
      "t_uint8": {
        "encoding": "inplace",
        "label": "uint8",
        "numberOfBytes": "1"
      }
    }
  }
}