{
  "address": "0xf8643939eb4D441625c3d6c669A1690D082bD036",
  "abi": [
    {
      "inputs": [
        {
          "internalType": "uint32",
          "name": "twapPeriod_",
          "type": "uint32"
        },
        {
          "internalType": "address",
          "name": "baseUnderlying",
          "type": "address"
        },
        {
          "internalType": "contract AggregatorV3Interface",
          "name": "baseAssetFeed_",
          "type": "address"
        },
        {
          "internalType": "uint128",
          "name": "baseAssetHeartBeat",
          "type": "uint128"
        }
      ],
      "stateMutability": "nonpayable",
      "type": "constructor"
    },
    {
      "inputs": [],
      "name": "AnchorTooBig",
      "type": "error"
    },
    {
      "inputs": [
        {
          "internalType": "address",
          "name": "",
          "type": "address"
        }
      ],
      "name": "InvalidCToken",
      "type": "error"
    },
    {
      "inputs": [],
      "name": "InvalidFeedDecimals",
      "type": "error"
    },
    {
      "inputs": [],
      "name": "InvalidHeartbeat",
      "type": "error"
    },
    {
      "inputs": [
        {
          "internalType": "address",
          "name": "uniswapPool",
          "type": "address"
        },
        {
          "internalType": "address",
          "name": "underlying",
          "type": "address"
        }
      ],
      "name": "InvalidMarket",
      "type": "error"
    },
    {
      "inputs": [],
      "name": "InvalidPrice",
      "type": "error"
    },
    {
      "inputs": [],
      "name": "InvalidTwap",
      "type": "error"
    },
    {
      "inputs": [],
      "name": "PriceConversionError",
      "type": "error"
    },
    {
      "inputs": [],
      "name": "TwapNotInRange",
      "type": "error"
    },
    {
      "inputs": [],
      "name": "TwatGtMax",
      "type": "error"
    },
    {
      "inputs": [],
      "name": "WrongLengths",
      "type": "error"
    },
    {
      "inputs": [],
      "name": "ZeroAddress",
      "type": "error"
    },
    {
      "anonymous": false,
      "inputs": [
        {
          "indexed": true,
          "internalType": "address",
          "name": "cToken",
          "type": "address"
        },
        {
          "indexed": false,
          "internalType": "address",
          "name": "uniswapMarket",
          "type": "address"
        }
      ],
      "name": "ConfigUpdate",
      "type": "event"
    },
    {
      "anonymous": false,
      "inputs": [
        {
          "indexed": true,
          "internalType": "address",
          "name": "asset",
          "type": "address"
        },
        {
          "indexed": false,
          "internalType": "address",
          "name": "oldFeed",
          "type": "address"
        },
        {
          "indexed": false,
          "internalType": "address",
          "name": "newFeed",
          "type": "address"
        }
      ],
      "name": "NewFeedForAsset",
      "type": "event"
    },
    {
      "anonymous": false,
      "inputs": [
        {
          "indexed": false,
          "internalType": "uint256",
          "name": "newTwap",
          "type": "uint256"
        }
      ],
      "name": "NewTwapPeriod",
      "type": "event"
    },
    {
      "anonymous": false,
      "inputs": [
        {
          "indexed": true,
          "internalType": "address",
          "name": "previousOwner",
          "type": "address"
        },
        {
          "indexed": true,
          "internalType": "address",
          "name": "newOwner",
          "type": "address"
        }
      ],
      "name": "OwnershipTransferred",
      "type": "event"
    },
    {
      "anonymous": false,
      "inputs": [
        {
          "indexed": true,
          "internalType": "bytes32",
          "name": "symbolHash",
          "type": "bytes32"
        },
        {
          "indexed": false,
          "internalType": "uint256",
          "name": "price",
          "type": "uint256"
        }
      ],
      "name": "PriceUpdated",
      "type": "event"
    },
    {
      "inputs": [],
      "name": "ETH_BASE_UNIT",
      "outputs": [
        {
          "internalType": "uint256",
          "name": "",
          "type": "uint256"
        }
      ],
      "stateMutability": "view",
      "type": "function"
    },
    {
      "inputs": [],
      "name": "EXP_SCALE",
      "outputs": [
        {
          "internalType": "uint256",
          "name": "",
          "type": "uint256"
        }
      ],
      "stateMutability": "view",
      "type": "function"
    },
    {
      "inputs": [],
      "name": "baseAsset",
      "outputs": [
        {
          "internalType": "address",
          "name": "",
          "type": "address"
        }
      ],
      "stateMutability": "view",
      "type": "function"
    },
    {
      "inputs": [],
      "name": "baseAssetFeed",
      "outputs": [
        {
          "internalType": "contract AggregatorV3Interface",
          "name": "",
          "type": "address"
        }
      ],
      "stateMutability": "view",
      "type": "function"
    },
    {
      "inputs": [],
      "name": "baseAssetFeedDenominator",
      "outputs": [
        {
          "internalType": "uint256",
          "name": "",
          "type": "uint256"
        }
      ],
      "stateMutability": "view",
      "type": "function"
    },
    {
      "inputs": [
        {
          "internalType": "address",
          "name": "",
          "type": "address"
        }
      ],
      "name": "cTokenConfig",
      "outputs": [
        {
          "internalType": "address",
          "name": "underlying",
          "type": "address"
        },
        {
          "internalType": "bytes32",
          "name": "symbolHash",
          "type": "bytes32"
        },
        {
          "internalType": "uint256",
          "name": "baseUnit",
          "type": "uint256"
        },
        {
          "internalType": "address",
          "name": "uniswapMarket",
          "type": "address"
        },
        {
          "internalType": "bool",
          "name": "isUniswapReversed",
          "type": "bool"
        }
      ],
      "stateMutability": "view",
      "type": "function"
    },
    {
      "inputs": [
        {
          "internalType": "address",
          "name": "",
          "type": "address"
        }
      ],
      "name": "chainLinkFeeds",
      "outputs": [
        {
          "internalType": "address",
          "name": "priceFeed",
          "type": "address"
        },
        {
          "internalType": "uint128",
          "name": "heartbeat",
          "type": "uint128"
        },
        {
          "internalType": "uint8",
          "name": "feedDecimals",
          "type": "uint8"
        },
        {
          "internalType": "uint8",
          "name": "assetDecimals",
          "type": "uint8"
        }
      ],
      "stateMutability": "view",
      "type": "function"
    },
    {
      "inputs": [
        {
          "internalType": "address",
          "name": "cToken",
          "type": "address"
        },
        {
          "internalType": "uint256",
          "name": "amount",
          "type": "uint256"
        },
        {
          "internalType": "bool",
          "name": "reverse",
          "type": "bool"
        }
      ],
      "name": "getEvaluation",
      "outputs": [
        {
          "internalType": "uint256",
          "name": "",
          "type": "uint256"
        }
      ],
      "stateMutability": "nonpayable",
      "type": "function"
    },
    {
      "inputs": [
        {
          "internalType": "address",
          "name": "cToken",
          "type": "address"
        },
        {
          "internalType": "uint256",
          "name": "amount",
          "type": "uint256"
        },
        {
          "internalType": "bool",
          "name": "reverse",
          "type": "bool"
        }
      ],
      "name": "getEvaluationStored",
      "outputs": [
        {
          "internalType": "uint256",
          "name": "",
          "type": "uint256"
        }
      ],
      "stateMutability": "view",
      "type": "function"
    },
    {
      "inputs": [
        {
          "internalType": "address",
          "name": "cToken",
          "type": "address"
        }
      ],
      "name": "getTokenConfigByCToken",
      "outputs": [
        {
          "components": [
            {
              "internalType": "address",
              "name": "underlying",
              "type": "address"
            },
            {
              "internalType": "bytes32",
              "name": "symbolHash",
              "type": "bytes32"
            },
            {
              "internalType": "uint256",
              "name": "baseUnit",
              "type": "uint256"
            },
            {
              "internalType": "address",
              "name": "uniswapMarket",
              "type": "address"
            },
            {
              "internalType": "bool",
              "name": "isUniswapReversed",
              "type": "bool"
            }
          ],
          "internalType": "struct UniswapConfig.TokenConfig",
          "name": "",
          "type": "tuple"
        }
      ],
      "stateMutability": "view",
      "type": "function"
    },
    {
      "inputs": [
        {
          "internalType": "string",
          "name": "symbol",
          "type": "string"
        }
      ],
      "name": "getTokenConfigBySymbol",
      "outputs": [
        {
          "components": [
            {
              "internalType": "address",
              "name": "underlying",
              "type": "address"
            },
            {
              "internalType": "bytes32",
              "name": "symbolHash",
              "type": "bytes32"
            },
            {
              "internalType": "uint256",
              "name": "baseUnit",
              "type": "uint256"
            },
            {
              "internalType": "address",
              "name": "uniswapMarket",
              "type": "address"
            },
            {
              "internalType": "bool",
              "name": "isUniswapReversed",
              "type": "bool"
            }
          ],
          "internalType": "struct UniswapConfig.TokenConfig",
          "name": "",
          "type": "tuple"
        }
      ],
      "stateMutability": "view",
      "type": "function"
    },
    {
      "inputs": [
        {
          "internalType": "bytes32",
          "name": "symbolHash",
          "type": "bytes32"
        }
      ],
      "name": "getTokenConfigBySymbolHash",
      "outputs": [
        {
          "components": [
            {
              "internalType": "address",
              "name": "underlying",
              "type": "address"
            },
            {
              "internalType": "bytes32",
              "name": "symbolHash",
              "type": "bytes32"
            },
            {
              "internalType": "uint256",
              "name": "baseUnit",
              "type": "uint256"
            },
            {
              "internalType": "address",
              "name": "uniswapMarket",
              "type": "address"
            },
            {
              "internalType": "bool",
              "name": "isUniswapReversed",
              "type": "bool"
            }
          ],
          "internalType": "struct UniswapConfig.TokenConfig",
          "name": "",
          "type": "tuple"
        }
      ],
      "stateMutability": "view",
      "type": "function"
    },
    {
      "inputs": [
        {
          "internalType": "address",
          "name": "underlying",
          "type": "address"
        }
      ],
      "name": "getTokenConfigByUnderlying",
      "outputs": [
        {
          "components": [
            {
              "internalType": "address",
              "name": "underlying",
              "type": "address"
            },
            {
              "internalType": "bytes32",
              "name": "symbolHash",
              "type": "bytes32"
            },
            {
              "internalType": "uint256",
              "name": "baseUnit",
              "type": "uint256"
            },
            {
              "internalType": "address",
              "name": "uniswapMarket",
              "type": "address"
            },
            {
              "internalType": "bool",
              "name": "isUniswapReversed",
              "type": "bool"
            }
          ],
          "internalType": "struct UniswapConfig.TokenConfig",
          "name": "",
          "type": "tuple"
        }
      ],
      "stateMutability": "view",
      "type": "function"
    },
    {
      "inputs": [
        {
          "internalType": "address",
          "name": "cToken",
          "type": "address"
        }
      ],
      "name": "getUnderlyingPrice",
      "outputs": [
        {
          "internalType": "uint256",
          "name": "",
          "type": "uint256"
        }
      ],
      "stateMutability": "view",
      "type": "function"
    },
    {
      "inputs": [],
      "name": "owner",
      "outputs": [
        {
          "internalType": "address",
          "name": "",
          "type": "address"
        }
      ],
      "stateMutability": "view",
      "type": "function"
    },
    {
      "inputs": [],
      "name": "renounceOwnership",
      "outputs": [],
      "stateMutability": "nonpayable",
      "type": "function"
    },
    {
      "inputs": [
        {
          "internalType": "address",
          "name": "_underlying",
          "type": "address"
        },
        {
          "internalType": "address",
          "name": "_priceFeed",
          "type": "address"
        },
        {
          "internalType": "uint128",
          "name": "_heartbeat",
          "type": "uint128"
        }
      ],
      "name": "setPriceFeedForUnderlying",
      "outputs": [],
      "stateMutability": "nonpayable",
      "type": "function"
    },
    {
      "inputs": [
        {
          "internalType": "address[]",
          "name": "_underlyings",
          "type": "address[]"
        },
        {
          "internalType": "address[]",
          "name": "_priceFeeds",
          "type": "address[]"
        },
        {
          "internalType": "uint128[]",
          "name": "_heartbeats",
          "type": "uint128[]"
        }
      ],
      "name": "setPriceFeedsForUnderlyings",
      "outputs": [],
      "stateMutability": "nonpayable",
      "type": "function"
    },
    {
      "inputs": [
        {
          "internalType": "address",
          "name": "cToken",
          "type": "address"
        },
        {
          "internalType": "address",
          "name": "uniswapMarket",
          "type": "address"
        }
      ],
      "name": "setTokenConfig",
      "outputs": [],
      "stateMutability": "nonpayable",
      "type": "function"
    },
    {
      "inputs": [
        {
          "internalType": "uint256",
          "name": "newTwap",
          "type": "uint256"
        }
      ],
      "name": "setTwapPeriod",
      "outputs": [],
      "stateMutability": "nonpayable",
      "type": "function"
    },
    {
      "inputs": [
        {
          "internalType": "address",
          "name": "newOwner",
          "type": "address"
        }
      ],
      "name": "transferOwnership",
      "outputs": [],
      "stateMutability": "nonpayable",
      "type": "function"
    },
    {
      "inputs": [],
      "name": "twapPeriod",
      "outputs": [
        {
          "internalType": "uint256",
          "name": "",
          "type": "uint256"
        }
      ],
      "stateMutability": "view",
      "type": "function"
    }
  ],
  "transactionHash": "0x9914b87a41e943005c278888493f2d9a7c5224ce19b98a9b75fef779e7616dee",
  "args": [
    "2700",
    "0xbAb960249b6F939aF3B5FF56Fd68bDc2F7a6f37A",
    "0xD4a33860578De61DBAbDc8BFdb98FD742fA7028e",
    "3600"
  ],
  "numDeployments": 2,
  "solcInputHash": "c322d054a39afdfcce2a7172013a04ab",
  "bytecode": "0x60e06040523480156200001157600080fd5b5060405162002cc238038062002cc28339810160408190526200003491620003fb565b6200003f3362000160565b6102588463ffffffff1610806200005e575062093a808463ffffffff16115b156200007d576040516377e2560960e11b815260040160405180910390fd5b63ffffffff84166005556001600160a01b038316620000af5760405163d92e233d60e01b815260040160405180910390fd5b6001600160a01b03808416608052821660a08190526040805163313ce56760e01b815290516000929163313ce5679160048083019260209291908290030181865afa15801562000103573d6000803e3d6000fd5b505050506040513d601f19601f8201168201806040525081019062000129919062000476565b905062000138600682620004b8565b6200014590600a620005d7565b60c05262000155848484620001b2565b5050505050620005e8565b600380546001600160a01b038381166001600160a01b0319831681179093556040519116919082907f8be0079c531659141344cd1fd0a4f28419497f9722a3daafe3b4186f6b6457e090600090a35050565b6001600160801b0381161580620001d457506202a300816001600160801b0316115b15620001f357604051638f1825c960e01b815260040160405180910390fd5b6000826001600160a01b031663313ce5676040518163ffffffff1660e01b8152600401602060405180830381865afa15801562000234573d6000803e3d6000fd5b505050506040513d601f19601f820116820180604052508101906200025a919062000476565b905060128160ff161115620002825760405163da0623a160e01b815260040160405180910390fd5b6000846001600160a01b031663313ce5676040518163ffffffff1660e01b8152600401602060405180830381865afa158015620002c3573d6000803e3d6000fd5b505050506040513d601f19601f82011682018060405250810190620002e9919062000476565b6001600160a01b038681166000818152600460208181526040808420805482516080810184528d89168082526001600160801b038e811683880190815260ff8f81168589019081528e8216606087019081529b8d905299895293518c166001600160a01b031986161786555160019095018054985199518416600160881b0260ff60881b199a909416600160801b026001600160881b0319909916959091169490941796909617969096169590951790558051939095168084529083019190915293945090917f33232b700ab62b15cace2ecf9e2e94a9c01f0119d48e2c9cb9d5528270d1994e910160405180910390a2505050505050565b6001600160a01b0381168114620003f857600080fd5b50565b600080600080608085870312156200041257600080fd5b845163ffffffff811681146200042757600080fd5b60208601519094506200043a81620003e2565b60408601519093506200044d81620003e2565b60608601519092506001600160801b03811681146200046b57600080fd5b939692955090935050565b6000602082840312156200048957600080fd5b815160ff811681146200049b57600080fd5b9392505050565b634e487b7160e01b600052601160045260246000fd5b60ff8281168282160390811115620004d457620004d4620004a2565b92915050565b600181815b808511156200051b578160001904821115620004ff57620004ff620004a2565b808516156200050d57918102915b93841c9390800290620004df565b509250929050565b6000826200053457506001620004d4565b816200054357506000620004d4565b81600181146200055c5760028114620005675762000587565b6001915050620004d4565b60ff8411156200057b576200057b620004a2565b50506001821b620004d4565b5060208310610133831016604e8410600b8410161715620005ac575081810a620004d4565b620005b88383620004da565b8060001904821115620005cf57620005cf620004a2565b029392505050565b60006200049b60ff84168362000523565b60805160a05160c0516126876200063b600039600081816102510152611d160152600081816104220152611c920152600081816103df01528181610a2e015281816113580152611cc001526126876000f3fe608060405234801561001057600080fd5b50600436106101425760003560e01c8063715018a6116100b8578063bbba205d1161007c578063bbba205d14610147578063cdf456e1146103da578063f2fde38b14610401578063f620732614610414578063f75aa68d1461041d578063fc57d4df1461044457600080fd5b8063715018a6146103745780637fdd7a791461037c5780638da5cb5b1461038f5780639f599631146103b4578063ad3d19d5146103c757600080fd5b80632ae3c3481161010a5780632ae3c34814610286578063343e2874146103135780634da21942146103285780635e657adf1461033b578063616b3c271461034e5780636517805e1461036157600080fd5b8063152810fb146101475780631a125204146101695780631e99a061146101c957806325fa01231461024c578063276c2cba14610273575b600080fd5b610156670de0b6b3a764000081565b6040519081526020015b60405180910390f35b61017c610177366004611dba565b610457565b604051610160919081516001600160a01b03908116825260208084015190830152604080840151908301526060808401519091169082015260809182015115159181019190915260a00190565b6102156101d7366004611de8565b60006020819052908152604090208054600182015460028301546003909301546001600160a01b03928316939192811690600160a01b900460ff1685565b604080516001600160a01b03968716815260208101959095528401929092529092166060820152901515608082015260a001610160565b6101567f000000000000000000000000000000000000000000000000000000000000000081565b61017c610281366004611e05565b6104c9565b6102d8610294366004611de8565b600460205260009081526040902080546001909101546001600160a01b03909116906001600160801b0381169060ff600160801b8204811691600160881b90041684565b604080516001600160a01b0390951685526001600160801b03909316602085015260ff91821692840192909252166060820152608001610160565b610326610321366004611e77565b610573565b005b61017c610336366004611de8565b610589565b610326610349366004611dba565b610600565b61015661035c366004611ebe565b610673565b61032661036f366004611f4c565b61077a565b610326610848565b61032661038a366004612002565b61085c565b6003546001600160a01b03165b6040516001600160a01b039091168152602001610160565b61017c6103c2366004611de8565b610874565b6101566103d5366004611ebe565b6108e1565b61039c7f000000000000000000000000000000000000000000000000000000000000000081565b61032661040f366004611de8565b61092d565b61015660055481565b61039c7f000000000000000000000000000000000000000000000000000000000000000081565b610156610452366004611de8565b6109ab565b61045f611d8c565b506000908152600160208181526040808420546001600160a01b03908116855284835293819020815160a0810183528154861681529381015492840192909252600282015490830152600301549182166060820152600160a01b90910460ff161515608082015290565b6104d1611d8c565b60008060006001600087876040516104ea929190612049565b604080519182900390912082526020808301939093529081016000908120546001600160a01b03908116855284840195909552928101909220825160a0810184528154851681526001820154928101929092526002810154928201929092526003909101549182166060820152600160a01b90910460ff16151560808201529150505b92915050565b61057b610a8d565b6105858282610ae7565b5050565b610591611d8c565b506001600160a01b039081166000908152600260208181526040808420548516845283825292839020835160a0810185528154861681526001820154928101929092529182015492810192909252600301549182166060820152600160a01b90910460ff161515608082015290565b610608610a8d565b61025881108061061a575062093a8081115b15610638576040516377e2560960e11b815260040160405180910390fd5b60058190556040518181527fdac58b37a20c84a78ea340a0206bc95bfbc4d50b216db3a5732643cc86b2803e9060200160405180910390a150565b6000806040518060200160405280866001600160a01b031663bd6d894d6040518163ffffffff1660e01b81526004016020604051808303816000875af11580156106c1573d6000803e3d6000fd5b505050506040513d601f19601f820116820180604052508101906106e59190612059565b9052905060006106f4866109ab565b9050806000036107165760405162bfc92160e01b815260040160405180910390fd5b604080516020810190915281815284156107515760006107368783610fa6565b905060006107448286610fa6565b9550610773945050505050565b600061075d8488610fc4565b9050600061076b8383610fc4565b955050505050505b9392505050565b610782610a8d565b84831415806107915750848114155b156107af576040516381e4d28d60e01b815260040160405180910390fd5b60005b8581101561083f576108378787838181106107cf576107cf612072565b90506020020160208101906107e49190611de8565b8686848181106107f6576107f6612072565b905060200201602081019061080b9190611de8565b85858581811061081d5761081d612072565b90506020020160208101906108329190612088565b610fdc565b6001016107b2565b50505050505050565b610850610a8d565b61085a6000611202565b565b610864610a8d565b61086f838383610fdc565b505050565b61087c611d8c565b506001600160a01b0390811660009081526020818152604091829020825160a0810184528154851681526001820154928101929092526002810154928201929092526003909101549182166060820152600160a01b90910460ff161515608082015290565b6000806040518060200160405280866001600160a01b031663182df0f56040518163ffffffff1660e01b8152600401602060405180830381865afa1580156106c1573d6000803e3d6000fd5b610935610a8d565b6001600160a01b03811661099f5760405162461bcd60e51b815260206004820152602660248201527f4f776e61626c653a206e6577206f776e657220697320746865207a65726f206160448201526564647265737360d01b60648201526084015b60405180910390fd5b6109a881611202565b50565b600080826001600160a01b0316636f307dc36040518163ffffffff1660e01b8152600401602060405180830381865afa1580156109ec573d6000803e3d6000fd5b505050506040513d601f19601f82011682018060405250810190610a1091906120a3565b90506000610a1d82611254565b90508015610a2c579392505050565b7f00000000000000000000000000000000000000000000000000000000000000006001600160a01b0316826001600160a01b031603610a8457610a6d611350565b610a7c9064e8d4a510006120d6565b949350505050565b610a7c846113a5565b6003546001600160a01b0316331461085a5760405162461bcd60e51b815260206004820181905260248201527f4f776e61626c653a2063616c6c6572206973206e6f7420746865206f776e65726044820152606401610996565b816001600160a01b031663fe9c44ae6040518163ffffffff1660e01b8152600401602060405180830381865afa158015610b25573d6000803e3d6000fd5b505050506040513d601f19601f82011682018060405250810190610b4991906120ed565b610b7157604051633244264960e01b81526001600160a01b0383166004820152602401610996565b6000826001600160a01b0316636f307dc36040518163ffffffff1660e01b8152600401602060405180830381865afa158015610bb1573d6000803e3d6000fd5b505050506040513d601f19601f82011682018060405250810190610bd591906120a3565b90506001600160a01b038216610bfe5760405163d92e233d60e01b815260040160405180910390fd5b806001600160a01b0316826001600160a01b0316630dfe16816040518163ffffffff1660e01b8152600401602060405180830381865afa158015610c46573d6000803e3d6000fd5b505050506040513d601f19601f82011682018060405250810190610c6a91906120a3565b6001600160a01b031614158015610cf45750806001600160a01b0316826001600160a01b031663d21220a76040518163ffffffff1660e01b8152600401602060405180830381865afa158015610cc4573d6000803e3d6000fd5b505050506040513d601f19601f82011682018060405250810190610ce891906120a3565b6001600160a01b031614155b15610d255760405163d4c0effd60e01b81526001600160a01b03808416600483015282166024820152604401610996565b6000816001600160a01b03166395d89b416040518163ffffffff1660e01b8152600401600060405180830381865afa158015610d65573d6000803e3d6000fd5b505050506040513d6000823e601f3d908101601f19168201604052610d8d9190810190612151565b8051906020012090506000826001600160a01b031663313ce5676040518163ffffffff1660e01b8152600401602060405180830381865afa158015610dd6573d6000803e3d6000fd5b505050506040513d601f19601f82011682018060405250810190610dfa91906121fd565b610e0590600a612304565b90506000836001600160a01b0316856001600160a01b0316630dfe16816040518163ffffffff1660e01b8152600401602060405180830381865afa158015610e51573d6000803e3d6000fd5b505050506040513d601f19601f82011682018060405250810190610e7591906120a3565b6001600160a01b031614610e8a576001610e8d565b60005b6040805160a0810182526001600160a01b0380881680835260208084018981528486018981528c851660608701908152881515608088019081528f871660008181528087528a812099518a54908a166001600160a01b0319918216178b5595516001808c019190915594516002808c019190915593516003909a01805493511515600160a01b026001600160a81b03199094169a90991699909917919091179096558b8752908352868620805483168617905592855291905291839020805490921681179091559051919250907f3f3d4bd03348b12ec1e6c0d687a4c6a7416b85c302f44f95262a302ca495244190610f969088906001600160a01b0391909116815260200190565b60405180910390a2505050505050565b6000610773610fbd84670de0b6b3a7640000611419565b8351611425565b600080610fd18484611431565b9050610a7c81611462565b6001600160801b0381161580610ffd57506202a300816001600160801b0316115b1561101b57604051638f1825c960e01b815260040160405180910390fd5b6000826001600160a01b031663313ce5676040518163ffffffff1660e01b8152600401602060405180830381865afa15801561105b573d6000803e3d6000fd5b505050506040513d601f19601f8201168201806040525081019061107f91906121fd565b905060128160ff1611156110a65760405163da0623a160e01b815260040160405180910390fd5b6000846001600160a01b031663313ce5676040518163ffffffff1660e01b8152600401602060405180830381865afa1580156110e6573d6000803e3d6000fd5b505050506040513d601f19601f8201168201806040525081019061110a91906121fd565b6001600160a01b038681166000818152600460208181526040808420805482516080810184528d89168082526001600160801b038e811683880190815260ff8f81168589019081528e8216606087019081529b8d905299895293518c166001600160a01b031986161786555160019095018054985199518416600160881b0260ff60881b199a909416600160801b0270ffffffffffffffffffffffffffffffffff19909916959091169490941796909617969096169590951790558051939095168084529083019190915293945090917f33232b700ab62b15cace2ecf9e2e94a9c01f0119d48e2c9cb9d5528270d1994e9101610f96565b600380546001600160a01b038381166001600160a01b0319831681179093556040519116919082907f8be0079c531659141344cd1fd0a4f28419497f9722a3daafe3b4186f6b6457e090600090a35050565b6001600160a01b038082166000908152600460209081526040808320815160808101835281549095168086526001909101546001600160801b0381169386019390935260ff600160801b8404811692860192909252600160881b9092041660608401529091906112c75750600092915050565b6000806112d7836000015161147a565b915091504283602001516001600160801b0316826112f59190612313565b101561130657506000949350505050565b81606084015161131790600a612304565b6040850151611327906024612326565b61133290600a612304565b61133c90836120d6565b6113469190612355565b9695505050505050565b60008061137c7f0000000000000000000000000000000000000000000000000000000000000000610589565b80519091506001600160a01b031661139657600091505090565b61139f816114f2565b91505090565b6000806113b183610874565b80519091506001600160a01b03166113cc5750600092915050565b60006113d7826116eb565b9050600160f81b81106113fd576040516315ab0cef60e21b815260040160405180910390fd5b610a7c6c0c9f2c9cd04674edea40000000828460400151611702565b600061077382846120d6565b60006107738284612355565b6040805160208101909152600081526040518060200160405280611459856000015185611419565b90529392505050565b805160009061056d90670de0b6b3a764000090612355565b600080600080846001600160a01b031663feaf968c6040518163ffffffff1660e01b815260040160a060405180830381865afa1580156114be573d6000803e3d6000fd5b505050506040513d601f19601f820116820180604052508101906114e29190612383565b5091989197509095505050505050565b6005546040805160028082526060820183526000939284929190602083019080368337019050509050818160008151811061152f5761152f612072565b63ffffffff90921660209283029190910190910152606084015160405163883bdbfd60e01b81526000916001600160a01b03169063883bdbfd906115779085906004016123d3565b600060405180830381865afa158015611594573d6000803e3d6000fd5b505050506040513d6000823e601f3d908101601f191682016040526115bc91908101906124b5565b50905060008363ffffffff169050600081836000815181106115e0576115e0612072565b6020026020010151846001815181106115fb576115fb612072565b602002602001015161160d9190612581565b61161791906125ae565b9050620d89e719600682900b12806116405750611637620d89e7196125ec565b60020b8160060b135b1561165e57604051636565f3fd60e11b815260040160405180910390fd5b627fffff600682900b126116855760405163cda87ab160e01b815260040160405180910390fd5b608087015181901561169d5761169a816125ec565b90505b60006116a88261186e565b905060006116c46001600160a01b03831680600160601b611702565b90506116dd670de0b6b3a764000082600160601b611702565b9a9950505050505050505050565b6000806116f6611c88565b90506107738382611d4a565b600080806000198587098587029250828110838203039150508060000361173b576000841161173057600080fd5b508290049050610773565b80841161174757600080fd5b600084868809808403938111909203919050600061176786196001612313565b861695869004959384900493600081900304600101905061178881846120d6565b9093179260006117998760036120d6565b60021890506117a881886120d6565b6117b390600261260e565b6117bd90826120d6565b90506117c981886120d6565b6117d490600261260e565b6117de90826120d6565b90506117ea81886120d6565b6117f590600261260e565b6117ff90826120d6565b905061180b81886120d6565b61181690600261260e565b61182090826120d6565b905061182c81886120d6565b61183790600261260e565b61184190826120d6565b905061184d81886120d6565b61185890600261260e565b61186290826120d6565b905061076b81866120d6565b60008060008360020b12611885578260020b611892565b8260020b61189290612621565b90506118a1620d89e7196125ec565b62ffffff168111156118d95760405162461bcd60e51b81526020600482015260016024820152601560fa1b6044820152606401610996565b6000816001166000036118f057600160801b611902565b6ffffcb933bd6fad37aa2d162d1a5940015b70ffffffffffffffffffffffffffffffffff169050600282161561194157608061193c826ffff97272373d413259a46990580e213a6120d6565b901c90505b600482161561196b576080611966826ffff2e50f5f656932ef12357cf3c7fdcc6120d6565b901c90505b6008821615611995576080611990826fffe5caca7e10e4e61c3624eaa0941cd06120d6565b901c90505b60108216156119bf5760806119ba826fffcb9843d60f6159c9db58835c9266446120d6565b901c90505b60208216156119e95760806119e4826fff973b41fa98c081472e6896dfb254c06120d6565b901c90505b6040821615611a13576080611a0e826fff2ea16466c96a3843ec78b326b528616120d6565b901c90505b6080821615611a3d576080611a38826ffe5dee046a99a2a811c461f1969c30536120d6565b901c90505b610100821615611a68576080611a63826ffcbe86c7900a88aedcffc83b479aa3a46120d6565b901c90505b610200821615611a93576080611a8e826ff987a7253ac413176f2b074cf7815e546120d6565b901c90505b610400821615611abe576080611ab9826ff3392b0822b70005940c7a398e4b70f36120d6565b901c90505b610800821615611ae9576080611ae4826fe7159475a2c29b7443b29c7fa6e889d96120d6565b901c90505b611000821615611b14576080611b0f826fd097f3bdfd2022b8845ad8f792aa58256120d6565b901c90505b612000821615611b3f576080611b3a826fa9f746462d870fdf8a65dc1f90e061e56120d6565b901c90505b614000821615611b6a576080611b65826f70d869a156d2a1b890bb3df62baf32f76120d6565b901c90505b618000821615611b95576080611b90826f31be135f97d08fd981231505542fcfa66120d6565b901c90505b62010000821615611bc1576080611bbc826f09aa508b5b7a84e1c677de54f3e99bc96120d6565b901c90505b62020000821615611bec576080611be7826e5d6af8dedb81196699c329225ee6046120d6565b901c90505b62040000821615611c16576080611c11826d2216e584f5fa1ea926041bedfe986120d6565b901c90505b62080000821615611c3e576080611c39826b048a170391f7dc42444e8fa26120d6565b901c90505b60008460020b1315611c5957611c5681600019612355565b90505b611c686401000000008261263d565b15611c74576001611c77565b60005b610a7c9060ff16602083901c612313565b6000806000611cb67f000000000000000000000000000000000000000000000000000000000000000061147a565b6001600160a01b037f00000000000000000000000000000000000000000000000000000000000000001660009081526004602052604090206001015491935091504290611d0c906001600160801b031683612313565b10611d4257611d3b7f000000000000000000000000000000000000000000000000000000000000000083612355565b9250505090565b611d3b611350565b600080611d56846114f2565b90506000611d6484836120d6565b90506000670de0b6b3a764000080876040015184611d8291906120d6565b61133c9190612355565b6040805160a08101825260008082526020820181905291810182905260608101829052608081019190915290565b600060208284031215611dcc57600080fd5b5035919050565b6001600160a01b03811681146109a857600080fd5b600060208284031215611dfa57600080fd5b813561077381611dd3565b60008060208385031215611e1857600080fd5b823567ffffffffffffffff80821115611e3057600080fd5b818501915085601f830112611e4457600080fd5b813581811115611e5357600080fd5b866020828501011115611e6557600080fd5b60209290920196919550909350505050565b60008060408385031215611e8a57600080fd5b8235611e9581611dd3565b91506020830135611ea581611dd3565b809150509250929050565b80151581146109a857600080fd5b600080600060608486031215611ed357600080fd5b8335611ede81611dd3565b9250602084013591506040840135611ef581611eb0565b809150509250925092565b60008083601f840112611f1257600080fd5b50813567ffffffffffffffff811115611f2a57600080fd5b6020830191508360208260051b8501011115611f4557600080fd5b9250929050565b60008060008060008060608789031215611f6557600080fd5b863567ffffffffffffffff80821115611f7d57600080fd5b611f898a838b01611f00565b90985096506020890135915080821115611fa257600080fd5b611fae8a838b01611f00565b90965094506040890135915080821115611fc757600080fd5b50611fd489828a01611f00565b979a9699509497509295939492505050565b80356001600160801b0381168114611ffd57600080fd5b919050565b60008060006060848603121561201757600080fd5b833561202281611dd3565b9250602084013561203281611dd3565b915061204060408501611fe6565b90509250925092565b8183823760009101908152919050565b60006020828403121561206b57600080fd5b5051919050565b634e487b7160e01b600052603260045260246000fd5b60006020828403121561209a57600080fd5b61077382611fe6565b6000602082840312156120b557600080fd5b815161077381611dd3565b634e487b7160e01b600052601160045260246000fd5b808202811582820484141761056d5761056d6120c0565b6000602082840312156120ff57600080fd5b815161077381611eb0565b634e487b7160e01b600052604160045260246000fd5b604051601f8201601f1916810167ffffffffffffffff811182821017156121495761214961210a565b604052919050565b6000602080838503121561216457600080fd5b825167ffffffffffffffff8082111561217c57600080fd5b818501915085601f83011261219057600080fd5b8151818111156121a2576121a261210a565b6121b4601f8201601f19168501612120565b915080825286848285010111156121ca57600080fd5b60005b818110156121e85783810185015183820186015284016121cd565b50600090820190930192909252509392505050565b60006020828403121561220f57600080fd5b815160ff8116811461077357600080fd5b600181815b8085111561225b578160001904821115612241576122416120c0565b8085161561224e57918102915b93841c9390800290612225565b509250929050565b6000826122725750600161056d565b8161227f5750600061056d565b8160018114612295576002811461229f576122bb565b600191505061056d565b60ff8411156122b0576122b06120c0565b50506001821b61056d565b5060208310610133831016604e8410600b84101617156122de575081810a61056d565b6122e88383612220565b80600019048211156122fc576122fc6120c0565b029392505050565b600061077360ff841683612263565b8082018082111561056d5761056d6120c0565b60ff828116828216039081111561056d5761056d6120c0565b634e487b7160e01b600052601260045260246000fd5b6000826123645761236461233f565b500490565b805169ffffffffffffffffffff81168114611ffd57600080fd5b600080600080600060a0868803121561239b57600080fd5b6123a486612369565b94506020860151935060408601519250606086015191506123c760808701612369565b90509295509295909350565b6020808252825182820181905260009190848201906040850190845b8181101561241157835163ffffffff16835292840192918401916001016123ef565b50909695505050505050565b600067ffffffffffffffff8211156124375761243761210a565b5060051b60200190565b600082601f83011261245257600080fd5b815160206124676124628361241d565b612120565b82815260059290921b8401810191818101908684111561248657600080fd5b8286015b848110156124aa57805161249d81611dd3565b835291830191830161248a565b509695505050505050565b600080604083850312156124c857600080fd5b825167ffffffffffffffff808211156124e057600080fd5b818501915085601f8301126124f457600080fd5b815160206125046124628361241d565b82815260059290921b8401810191818101908984111561252357600080fd5b948201945b838610156125515785518060060b81146125425760008081fd5b82529482019490820190612528565b9188015191965090935050508082111561256a57600080fd5b5061257785828601612441565b9150509250929050565b600682810b9082900b03667fffffffffffff198112667fffffffffffff8213171561056d5761056d6120c0565b60008160060b8360060b806125c5576125c561233f565b667fffffffffffff198214600019821416156125e3576125e36120c0565b90059392505050565b60008160020b627fffff198103612605576126056120c0565b60000392915050565b8181038181111561056d5761056d6120c0565b6000600160ff1b8201612636576126366120c0565b5060000390565b60008261264c5761264c61233f565b50069056fea26469706673582212209ac83325ae247ce825047fb2de1b8e0a12d8c66fbe05f2e150c7107bc0798c1f64736f6c63430008130033",
  "devdoc": {
    "kind": "dev",
    "methods": {
      "constructor": {
        "details": "Note that to avoid immature TWAPs, the system must run for at least a single twapPeriod before using.      NOTE: Reported prices are set to 1 during construction. We assume that this contract will not be voted in by      governance until prices have been updated through `validate` for each TokenConfig.",
        "params": {
          "twapPeriod_": "The time difference to calculate twap price"
        }
      },
      "getEvaluation(address,uint256,bool)": {
        "params": {
          "amount": "Amount of tokens to evaluate according to 'reverse' order",
          "cToken": "Market to evaluate",
          "reverse": "Order of evaluation"
        },
        "returns": {
          "_0": "Depending on 'reverse' order:                     false - return USD amount equal to 'amount' of 'cToken' in wei                     true - return cTokens equal to 'amount' of USD represented in wei                            e.g. 123e18 = 123.00$"
        }
      },
      "getEvaluationStored(address,uint256,bool)": {
        "params": {
          "amount": "Amount of tokens to evaluate according to 'reverse' order",
          "cToken": "Market to evaluate",
          "reverse": "Order of evaluation"
        },
        "returns": {
          "_0": "Depending on 'reverse' order:                     false - return USD amount equal to 'amount' of 'cToken' in wei                     true - return cTokens equal to 'amount' of USD represented in wei                            e.g. 123e18 = 123.00$"
        }
      },
      "getTokenConfigByCToken(address)": {
        "params": {
          "cToken": "The address of the cToken of the config to get"
        },
        "returns": {
          "_0": "The config object"
        }
      },
      "getTokenConfigBySymbol(string)": {
        "params": {
          "symbol": "The symbol of the config to get"
        },
        "returns": {
          "_0": "The config object"
        }
      },
      "getTokenConfigBySymbolHash(bytes32)": {
        "params": {
          "symbolHash": "The keccack256 of the symbol of the config to get"
        },
        "returns": {
          "_0": "The config object"
        }
      },
      "getTokenConfigByUnderlying(address)": {
        "details": "The underlying address of ETH is the zero address",
        "params": {
          "underlying": "The address of the underlying asset of the config to get"
        },
        "returns": {
          "_0": "The config object"
        }
      },
      "getUnderlyingPrice(address)": {
        "params": {
          "cToken": "The cToken to get the underlying price of"
        },
        "returns": {
          "_0": "The underlying asset price mantissa (scaled by 1e(36 - assetDecimals)).         Zero means the price is unavailable."
        }
      },
      "owner()": {
        "details": "Returns the address of the current owner."
      },
      "renounceOwnership()": {
        "details": "Leaves the contract without owner. It will not be possible to call `onlyOwner` functions anymore. Can only be called by the current owner. NOTE: Renouncing ownership will leave the contract without an owner, thereby removing any functionality that is only available to the owner."
      },
      "setTokenConfig(address,address)": {
        "params": {
          "cToken": "The address of the Compound Token",
          "uniswapMarket": "The address of the V3 pool being used as the anchor for this market"
        }
      },
      "setTwapPeriod(uint256)": {
        "params": {
          "newTwap": "The time interval to for TWAP price calculation"
        }
      },
      "transferOwnership(address)": {
        "details": "Transfers ownership of the contract to a new account (`newOwner`). Can only be called by the current owner."
      }
    },
    "version": 1
  },
  "userdoc": {
    "events": {
      "NewFeedForAsset(address,address,address)": {
        "notice": "The event emitted when new PriceFeed added (updated)"
      },
      "NewTwapPeriod(uint256)": {
        "notice": "The event emitted when twapPeriod updated"
      },
      "PriceUpdated(bytes32,uint256)": {
        "notice": "The event emitted when the stored price is updated"
      }
    },
    "kind": "user",
    "methods": {
      "ETH_BASE_UNIT()": {
        "notice": "The number of wei in 1 ETH"
      },
      "EXP_SCALE()": {
        "notice": "A common scaling factor to maintain precision"
      },
      "baseAsset()": {
        "notice": "weth address"
      },
      "baseAssetFeed()": {
        "notice": "chainlink price feed ETH / USD"
      },
      "baseAssetFeedDenominator()": {
        "notice": "denominator to scale price from chainlink price feed"
      },
      "cTokenConfig(address)": {
        "notice": "cToken configs"
      },
      "chainLinkFeeds(address)": {
        "notice": "ChainLink Feed address by underlying address"
      },
      "constructor": {
        "notice": "Construct a Uniswap anchored view for a set of token configurations"
      },
      "getEvaluation(address,uint256,bool)": {
        "notice": "Evaluates input amount according to stored price, accrues interest"
      },
      "getEvaluationStored(address,uint256,bool)": {
        "notice": "Evaluates input amount according to stored price, doesn't accrue interest"
      },
      "getTokenConfigByCToken(address)": {
        "notice": "Get the config for the cToken"
      },
      "getTokenConfigBySymbol(string)": {
        "notice": "Get the config for symbol"
      },
      "getTokenConfigBySymbolHash(bytes32)": {
        "notice": "Get the config for the symbolHash"
      },
      "getTokenConfigByUnderlying(address)": {
        "notice": "Get the config for an underlying asset"
      },
      "getUnderlyingPrice(address)": {
        "notice": "Get the underlying price of a cToken asset"
      },
      "setTokenConfig(address,address)": {
        "notice": "Sets config to fetch underlying price"
      },
      "setTwapPeriod(uint256)": {
        "notice": "Sets config to fetch underlying price"
      },
      "twapPeriod()": {
        "notice": "The time interval to for TWAP price calculation"
      }
    },
    "version": 1
  },
  "storageLayout": {
    "storage": [
      {
        "astId": 1758,
        "contract": "contracts/Oracles/TonpoundPriceOracle.sol:TonpoundPriceOracle",
        "label": "cTokenConfig",
        "offset": 0,
        "slot": "0",
        "type": "t_mapping(t_address,t_struct(TokenConfig)1752_storage)"
      },
      {
        "astId": 1763,
        "contract": "contracts/Oracles/TonpoundPriceOracle.sol:TonpoundPriceOracle",
        "label": "cTokenBySymbolHash",
        "offset": 0,
        "slot": "1",
        "type": "t_mapping(t_bytes32,t_address)"
      },
      {
        "astId": 1768,
        "contract": "contracts/Oracles/TonpoundPriceOracle.sol:TonpoundPriceOracle",
        "label": "cTokenByUnderlying",
        "offset": 0,
        "slot": "2",
        "type": "t_mapping(t_address,t_address)"
      },
      {
        "astId": 7,
        "contract": "contracts/Oracles/TonpoundPriceOracle.sol:TonpoundPriceOracle",
        "label": "_owner",
        "offset": 0,
        "slot": "3",
        "type": "t_address"
      },
      {
        "astId": 799,
        "contract": "contracts/Oracles/TonpoundPriceOracle.sol:TonpoundPriceOracle",
        "label": "chainLinkFeeds",
        "offset": 0,
        "slot": "4",
        "type": "t_mapping(t_address,t_struct(FeedData)793_storage)"
      },
      {
        "astId": 820,
        "contract": "contracts/Oracles/TonpoundPriceOracle.sol:TonpoundPriceOracle",
        "label": "twapPeriod",
        "offset": 0,
        "slot": "5",
        "type": "t_uint256"
      }
    ],
    "types": {
      "t_address": {
        "encoding": "inplace",
        "label": "address",
        "numberOfBytes": "20"
      },
      "t_bool": {
        "encoding": "inplace",
        "label": "bool",
        "numberOfBytes": "1"
      },
      "t_bytes32": {
        "encoding": "inplace",
        "label": "bytes32",
        "numberOfBytes": "32"
      },
      "t_mapping(t_address,t_address)": {
        "encoding": "mapping",
        "key": "t_address",
        "label": "mapping(address => address)",
        "numberOfBytes": "32",
        "value": "t_address"
      },
      "t_mapping(t_address,t_struct(FeedData)793_storage)": {
        "encoding": "mapping",
        "key": "t_address",
        "label": "mapping(address => struct TonpoundPriceOracle.FeedData)",
        "numberOfBytes": "32",
        "value": "t_struct(FeedData)793_storage"
      },
      "t_mapping(t_address,t_struct(TokenConfig)1752_storage)": {
        "encoding": "mapping",
        "key": "t_address",
        "label": "mapping(address => struct UniswapConfig.TokenConfig)",
        "numberOfBytes": "32",
        "value": "t_struct(TokenConfig)1752_storage"
      },
      "t_mapping(t_bytes32,t_address)": {
        "encoding": "mapping",
        "key": "t_bytes32",
        "label": "mapping(bytes32 => address)",
        "numberOfBytes": "32",
        "value": "t_address"
      },
      "t_struct(FeedData)793_storage": {
        "encoding": "inplace",
        "label": "struct TonpoundPriceOracle.FeedData",
        "members": [
          {
            "astId": 783,
            "contract": "contracts/Oracles/TonpoundPriceOracle.sol:TonpoundPriceOracle",
            "label": "priceFeed",
            "offset": 0,
            "slot": "0",
            "type": "t_address"
          },
          {
            "astId": 786,
            "contract": "contracts/Oracles/TonpoundPriceOracle.sol:TonpoundPriceOracle",
            "label": "heartbeat",
            "offset": 0,
            "slot": "1",
            "type": "t_uint128"
          },
          {
            "astId": 789,
            "contract": "contracts/Oracles/TonpoundPriceOracle.sol:TonpoundPriceOracle",
            "label": "feedDecimals",
            "offset": 16,
            "slot": "1",
            "type": "t_uint8"
          },
          {
            "astId": 792,
            "contract": "contracts/Oracles/TonpoundPriceOracle.sol:TonpoundPriceOracle",
            "label": "assetDecimals",
            "offset": 17,
            "slot": "1",
            "type": "t_uint8"
          }
        ],
        "numberOfBytes": "64"
      },
      "t_struct(TokenConfig)1752_storage": {
        "encoding": "inplace",
        "label": "struct UniswapConfig.TokenConfig",
        "members": [
          {
            "astId": 1743,
            "contract": "contracts/Oracles/TonpoundPriceOracle.sol:TonpoundPriceOracle",
            "label": "underlying",
            "offset": 0,
            "slot": "0",
            "type": "t_address"
          },
          {
            "astId": 1745,
            "contract": "contracts/Oracles/TonpoundPriceOracle.sol:TonpoundPriceOracle",
            "label": "symbolHash",
            "offset": 0,
            "slot": "1",
            "type": "t_bytes32"
          },
          {
            "astId": 1747,
            "contract": "contracts/Oracles/TonpoundPriceOracle.sol:TonpoundPriceOracle",
            "label": "baseUnit",
            "offset": 0,
            "slot": "2",
            "type": "t_uint256"
          },
          {
            "astId": 1749,
            "contract": "contracts/Oracles/TonpoundPriceOracle.sol:TonpoundPriceOracle",
            "label": "uniswapMarket",
            "offset": 0,
            "slot": "3",
            "type": "t_address"
          },
          {
            "astId": 1751,
            "contract": "contracts/Oracles/TonpoundPriceOracle.sol:TonpoundPriceOracle",
            "label": "isUniswapReversed",
            "offset": 20,
            "slot": "3",
            "type": "t_bool"
          }
        ],
        "numberOfBytes": "128"
      },
      "t_uint128": {
        "encoding": "inplace",
        "label": "uint128",
        "numberOfBytes": "16"
      },
      "t_uint256": {
        "encoding": "inplace",
        "label": "uint256",
        "numberOfBytes": "32"
      },
      "t_uint8": {
        "encoding": "inplace",
        "label": "uint8",
        "numberOfBytes": "1"
      }
    }
  }
}