{
  "address": "0xec379562CD1f180C6AB777e00FD486420CC5E918",
  "abi": [
    {
      "inputs": [
        {
          "internalType": "uint32",
          "name": "twapPeriod_",
          "type": "uint32"
        },
        {
          "internalType": "address",
          "name": "baseUnderlying",
          "type": "address"
        },
        {
          "internalType": "contract AggregatorV3Interface",
          "name": "baseAssetFeed_",
          "type": "address"
        }
      ],
      "stateMutability": "nonpayable",
      "type": "constructor"
    },
    {
      "anonymous": false,
      "inputs": [
        {
          "indexed": true,
          "internalType": "address",
          "name": "cToken",
          "type": "address"
        },
        {
          "indexed": false,
          "internalType": "address",
          "name": "uniswapMarket",
          "type": "address"
        }
      ],
      "name": "ConfigUpdate",
      "type": "event"
    },
    {
      "anonymous": false,
      "inputs": [
        {
          "indexed": true,
          "internalType": "address",
          "name": "asset",
          "type": "address"
        },
        {
          "indexed": false,
          "internalType": "address",
          "name": "oldFeed",
          "type": "address"
        },
        {
          "indexed": false,
          "internalType": "address",
          "name": "newFeed",
          "type": "address"
        }
      ],
      "name": "NewFeedForAsset",
      "type": "event"
    },
    {
      "anonymous": false,
      "inputs": [
        {
          "indexed": false,
          "internalType": "uint256",
          "name": "newTwap",
          "type": "uint256"
        }
      ],
      "name": "NewTwapPeriod",
      "type": "event"
    },
    {
      "anonymous": false,
      "inputs": [
        {
          "indexed": true,
          "internalType": "address",
          "name": "previousOwner",
          "type": "address"
        },
        {
          "indexed": true,
          "internalType": "address",
          "name": "newOwner",
          "type": "address"
        }
      ],
      "name": "OwnershipTransferred",
      "type": "event"
    },
    {
      "anonymous": false,
      "inputs": [
        {
          "indexed": true,
          "internalType": "bytes32",
          "name": "symbolHash",
          "type": "bytes32"
        },
        {
          "indexed": false,
          "internalType": "uint256",
          "name": "price",
          "type": "uint256"
        }
      ],
      "name": "PriceUpdated",
      "type": "event"
    },
    {
      "inputs": [],
      "name": "ETH_BASE_UNIT",
      "outputs": [
        {
          "internalType": "uint256",
          "name": "",
          "type": "uint256"
        }
      ],
      "stateMutability": "view",
      "type": "function"
    },
    {
      "inputs": [],
      "name": "EXP_SCALE",
      "outputs": [
        {
          "internalType": "uint256",
          "name": "",
          "type": "uint256"
        }
      ],
      "stateMutability": "view",
      "type": "function"
    },
    {
      "inputs": [
        {
          "internalType": "address",
          "name": "_underlying",
          "type": "address"
        },
        {
          "internalType": "address",
          "name": "_chainlinkFeed",
          "type": "address"
        },
        {
          "internalType": "uint8",
          "name": "_priceFeedDecimals",
          "type": "uint8"
        }
      ],
      "name": "_setPriceFeedForUnderlying",
      "outputs": [],
      "stateMutability": "nonpayable",
      "type": "function"
    },
    {
      "inputs": [
        {
          "internalType": "address[]",
          "name": "_underlyings",
          "type": "address[]"
        },
        {
          "internalType": "address[]",
          "name": "_chainlinkFeeds",
          "type": "address[]"
        },
        {
          "internalType": "uint8[]",
          "name": "_priceFeedsDecimals",
          "type": "uint8[]"
        }
      ],
      "name": "_setPriceFeedsForUnderlyings",
      "outputs": [],
      "stateMutability": "nonpayable",
      "type": "function"
    },
    {
      "inputs": [
        {
          "internalType": "address",
          "name": "",
          "type": "address"
        }
      ],
      "name": "assetsDecimals",
      "outputs": [
        {
          "internalType": "uint8",
          "name": "",
          "type": "uint8"
        }
      ],
      "stateMutability": "view",
      "type": "function"
    },
    {
      "inputs": [],
      "name": "baseAssetFeed",
      "outputs": [
        {
          "internalType": "contract AggregatorV3Interface",
          "name": "",
          "type": "address"
        }
      ],
      "stateMutability": "view",
      "type": "function"
    },
    {
      "inputs": [],
      "name": "baseAssetFeedDenominator",
      "outputs": [
        {
          "internalType": "uint256",
          "name": "",
          "type": "uint256"
        }
      ],
      "stateMutability": "view",
      "type": "function"
    },
    {
      "inputs": [
        {
          "internalType": "address",
          "name": "",
          "type": "address"
        }
      ],
      "name": "cTokenConfig",
      "outputs": [
        {
          "internalType": "address",
          "name": "underlying",
          "type": "address"
        },
        {
          "internalType": "bytes32",
          "name": "symbolHash",
          "type": "bytes32"
        },
        {
          "internalType": "uint256",
          "name": "baseUnit",
          "type": "uint256"
        },
        {
          "internalType": "address",
          "name": "uniswapMarket",
          "type": "address"
        },
        {
          "internalType": "bool",
          "name": "isUniswapReversed",
          "type": "bool"
        }
      ],
      "stateMutability": "view",
      "type": "function"
    },
    {
      "inputs": [
        {
          "internalType": "address",
          "name": "",
          "type": "address"
        }
      ],
      "name": "chainLinkFeedDecimals",
      "outputs": [
        {
          "internalType": "uint8",
          "name": "",
          "type": "uint8"
        }
      ],
      "stateMutability": "view",
      "type": "function"
    },
    {
      "inputs": [
        {
          "internalType": "address",
          "name": "",
          "type": "address"
        }
      ],
      "name": "chainLinkFeeds",
      "outputs": [
        {
          "internalType": "address",
          "name": "",
          "type": "address"
        }
      ],
      "stateMutability": "view",
      "type": "function"
    },
    {
      "inputs": [
        {
          "internalType": "address",
          "name": "cToken",
          "type": "address"
        },
        {
          "internalType": "uint256",
          "name": "amount",
          "type": "uint256"
        },
        {
          "internalType": "bool",
          "name": "reverse",
          "type": "bool"
        }
      ],
      "name": "getEvaluation",
      "outputs": [
        {
          "internalType": "uint256",
          "name": "",
          "type": "uint256"
        }
      ],
      "stateMutability": "nonpayable",
      "type": "function"
    },
    {
      "inputs": [
        {
          "internalType": "address",
          "name": "cToken",
          "type": "address"
        },
        {
          "internalType": "uint256",
          "name": "amount",
          "type": "uint256"
        },
        {
          "internalType": "bool",
          "name": "reverse",
          "type": "bool"
        }
      ],
      "name": "getEvaluationStored",
      "outputs": [
        {
          "internalType": "uint256",
          "name": "",
          "type": "uint256"
        }
      ],
      "stateMutability": "view",
      "type": "function"
    },
    {
      "inputs": [
        {
          "internalType": "address",
          "name": "cToken",
          "type": "address"
        }
      ],
      "name": "getTokenConfigByCToken",
      "outputs": [
        {
          "components": [
            {
              "internalType": "address",
              "name": "underlying",
              "type": "address"
            },
            {
              "internalType": "bytes32",
              "name": "symbolHash",
              "type": "bytes32"
            },
            {
              "internalType": "uint256",
              "name": "baseUnit",
              "type": "uint256"
            },
            {
              "internalType": "address",
              "name": "uniswapMarket",
              "type": "address"
            },
            {
              "internalType": "bool",
              "name": "isUniswapReversed",
              "type": "bool"
            }
          ],
          "internalType": "struct UniswapConfig.TokenConfig",
          "name": "",
          "type": "tuple"
        }
      ],
      "stateMutability": "view",
      "type": "function"
    },
    {
      "inputs": [
        {
          "internalType": "string",
          "name": "symbol",
          "type": "string"
        }
      ],
      "name": "getTokenConfigBySymbol",
      "outputs": [
        {
          "components": [
            {
              "internalType": "address",
              "name": "underlying",
              "type": "address"
            },
            {
              "internalType": "bytes32",
              "name": "symbolHash",
              "type": "bytes32"
            },
            {
              "internalType": "uint256",
              "name": "baseUnit",
              "type": "uint256"
            },
            {
              "internalType": "address",
              "name": "uniswapMarket",
              "type": "address"
            },
            {
              "internalType": "bool",
              "name": "isUniswapReversed",
              "type": "bool"
            }
          ],
          "internalType": "struct UniswapConfig.TokenConfig",
          "name": "",
          "type": "tuple"
        }
      ],
      "stateMutability": "view",
      "type": "function"
    },
    {
      "inputs": [
        {
          "internalType": "bytes32",
          "name": "symbolHash",
          "type": "bytes32"
        }
      ],
      "name": "getTokenConfigBySymbolHash",
      "outputs": [
        {
          "components": [
            {
              "internalType": "address",
              "name": "underlying",
              "type": "address"
            },
            {
              "internalType": "bytes32",
              "name": "symbolHash",
              "type": "bytes32"
            },
            {
              "internalType": "uint256",
              "name": "baseUnit",
              "type": "uint256"
            },
            {
              "internalType": "address",
              "name": "uniswapMarket",
              "type": "address"
            },
            {
              "internalType": "bool",
              "name": "isUniswapReversed",
              "type": "bool"
            }
          ],
          "internalType": "struct UniswapConfig.TokenConfig",
          "name": "",
          "type": "tuple"
        }
      ],
      "stateMutability": "view",
      "type": "function"
    },
    {
      "inputs": [
        {
          "internalType": "address",
          "name": "underlying",
          "type": "address"
        }
      ],
      "name": "getTokenConfigByUnderlying",
      "outputs": [
        {
          "components": [
            {
              "internalType": "address",
              "name": "underlying",
              "type": "address"
            },
            {
              "internalType": "bytes32",
              "name": "symbolHash",
              "type": "bytes32"
            },
            {
              "internalType": "uint256",
              "name": "baseUnit",
              "type": "uint256"
            },
            {
              "internalType": "address",
              "name": "uniswapMarket",
              "type": "address"
            },
            {
              "internalType": "bool",
              "name": "isUniswapReversed",
              "type": "bool"
            }
          ],
          "internalType": "struct UniswapConfig.TokenConfig",
          "name": "",
          "type": "tuple"
        }
      ],
      "stateMutability": "view",
      "type": "function"
    },
    {
      "inputs": [
        {
          "internalType": "address",
          "name": "cToken",
          "type": "address"
        }
      ],
      "name": "getUnderlyingPrice",
      "outputs": [
        {
          "internalType": "uint256",
          "name": "",
          "type": "uint256"
        }
      ],
      "stateMutability": "view",
      "type": "function"
    },
    {
      "inputs": [],
      "name": "owner",
      "outputs": [
        {
          "internalType": "address",
          "name": "",
          "type": "address"
        }
      ],
      "stateMutability": "view",
      "type": "function"
    },
    {
      "inputs": [],
      "name": "renounceOwnership",
      "outputs": [],
      "stateMutability": "nonpayable",
      "type": "function"
    },
    {
      "inputs": [
        {
          "internalType": "address",
          "name": "cToken",
          "type": "address"
        },
        {
          "internalType": "address",
          "name": "uniswapMarket",
          "type": "address"
        }
      ],
      "name": "setTokenConfig",
      "outputs": [],
      "stateMutability": "nonpayable",
      "type": "function"
    },
    {
      "inputs": [
        {
          "internalType": "uint256",
          "name": "newTwap",
          "type": "uint256"
        }
      ],
      "name": "setTwapPeriod",
      "outputs": [],
      "stateMutability": "nonpayable",
      "type": "function"
    },
    {
      "inputs": [
        {
          "internalType": "address",
          "name": "newOwner",
          "type": "address"
        }
      ],
      "name": "transferOwnership",
      "outputs": [],
      "stateMutability": "nonpayable",
      "type": "function"
    },
    {
      "inputs": [],
      "name": "twapPeriod",
      "outputs": [
        {
          "internalType": "uint256",
          "name": "",
          "type": "uint256"
        }
      ],
      "stateMutability": "view",
      "type": "function"
    }
  ],
  "transactionHash": "0x341e7dab7ca138d09dd5cea8c03d5c055498537240067c1f5fbdf954128b8ef4",
  "args": [
    "2700",
    "0xbAb960249b6F939aF3B5FF56Fd68bDc2F7a6f37A",
    "0xD4a33860578De61DBAbDc8BFdb98FD742fA7028e"
  ],
  "numDeployments": 1,
  "solcInputHash": "007af3db83777e359c2c75805cd1d996",
  "bytecode": "0x60c06040523480156200001157600080fd5b5060405162002b7b38038062002b7b83398101604081905262000034916200037a565b6200003f33620001a7565b6102588363ffffffff161015801562000060575062093a808363ffffffff16105b620000a15760405162461bcd60e51b815260206004820152600c60248201526b0696e76616c696420747761760a41b60448201526064015b60405180910390fd5b63ffffffff83166007556001600160a01b038216620000f05760405162461bcd60e51b815260206004820152600a602482015269756e6465726c79696e6760b01b604482015260640162000098565b806001600160a01b03166080816001600160a01b0316815250506000816001600160a01b031663313ce5676040518163ffffffff1660e01b8152600401602060405180830381865afa1580156200014b573d6000803e3d6000fd5b505050506040513d601f19601f82011682018060405250810190620001719190620003d6565b90506200018060068262000418565b6200018d90600a6200053d565b60a0526200019d838383620001f9565b505050506200054e565b600380546001600160a01b038381166001600160a01b0319831681179093556040519116919082907f8be0079c531659141344cd1fd0a4f28419497f9722a3daafe3b4186f6b6457e090600090a35050565b6001600160a01b03808416600081815260046020526040812054909216919073eeeeeeeeeeeeeeeeeeeeeeeeeeeeeeeeeeeeeeee14156200023d57506012620002a5565b846001600160a01b031663313ce5676040518163ffffffff1660e01b8152600401602060405180830381865afa1580156200027c573d6000803e3d6000fd5b505050506040513d601f19601f82011682018060405250810190620002a29190620003d6565b90505b836001600160a01b0316826001600160a01b0316146200035a576001600160a01b03858116600081815260046020908152604080832080548a87166001600160a01b0319909116811790915560058352818420805460ff8b811660ff1992831617909255600685529483902080549189169190951617909355805194871685529084019190915290917f33232b700ab62b15cace2ecf9e2e94a9c01f0119d48e2c9cb9d5528270d1994e910160405180910390a25b5050505050565b6001600160a01b03811681146200037757600080fd5b50565b6000806000606084860312156200039057600080fd5b835163ffffffff81168114620003a557600080fd5b6020850151909350620003b88162000361565b6040850151909250620003cb8162000361565b809150509250925092565b600060208284031215620003e957600080fd5b815160ff81168114620003fb57600080fd5b9392505050565b634e487b7160e01b600052601160045260246000fd5b600060ff821660ff84168082101562000435576200043562000402565b90039392505050565b600181815b808511156200047f57816000190482111562000463576200046362000402565b808516156200047157918102915b93841c939080029062000443565b509250929050565b600082620004985750600162000537565b81620004a75750600062000537565b8160018114620004c05760028114620004cb57620004eb565b600191505062000537565b60ff841115620004df57620004df62000402565b50506001821b62000537565b5060208310610133831016604e8410600b841016171562000510575081810a62000537565b6200051c83836200043e565b806000190482111562000533576200053362000402565b0290505b92915050565b6000620003fb60ff84168362000487565b60805160a0516125f9620005826000396000818161029101526115cc0152600081816103fe01526115f001526125f96000f3fe608060405234801561001057600080fd5b506004361061014d5760003560e01c80635e657adf116100c3578063bbba205d1161007c578063bbba205d1461018c578063d4bf4ccc146103ca578063f2fde38b146103dd578063f6207326146103f0578063f75aa68d146103f9578063fc57d4df1461042057600080fd5b80635e657adf14610365578063616b3c2714610378578063715018a61461038b5780638da5cb5b146103935780639f599631146103a4578063ad3d19d5146103b757600080fd5b8063276c2cba11610115578063276c2cba146102b35780632ae3c348146102c6578063343e287414610307578063388a93471461031c5780634da219421461032f578063561b83131461034257600080fd5b806309f8110e14610152578063152810fb1461018c5780631a125204146101a95780631e99a0611461020957806325fa01231461028c575b600080fd5b610175610160366004611d20565b60066020526000908152604090205460ff1681565b60405160ff90911681526020015b60405180910390f35b61019b670de0b6b3a764000081565b604051908152602001610183565b6101bc6101b7366004611d3d565b610433565b604051610183919081516001600160a01b03908116825260208084015190830152604080840151908301526060808401519091169082015260809182015115159181019190915260a00190565b610255610217366004611d20565b60006020819052908152604090208054600182015460028301546003909301546001600160a01b03928316939192811690600160a01b900460ff1685565b604080516001600160a01b03968716815260208101959095528401929092529092166060820152901515608082015260a001610183565b61019b7f000000000000000000000000000000000000000000000000000000000000000081565b6101bc6102c1366004611d56565b6104a5565b6102ef6102d4366004611d20565b6004602052600090815260409020546001600160a01b031681565b6040516001600160a01b039091168152602001610183565b61031a610315366004611dc8565b61054f565b005b61031a61032a366004611e10565b610565565b6101bc61033d366004611d20565b61057d565b610175610350366004611d20565b60056020526000908152604090205460ff1681565b61031a610373366004611d3d565b6105f4565b61019b610386366004611e69565b61068b565b61031a6107af565b6003546001600160a01b03166102ef565b6101bc6103b2366004611d20565b6107c3565b61019b6103c5366004611e69565b610830565b61031a6103d8366004611eec565b61087c565b61031a6103eb366004611d20565b6109a9565b61019b60075481565b6102ef7f000000000000000000000000000000000000000000000000000000000000000081565b61019b61042e366004611d20565b610a22565b61043b611cdd565b506000908152600160208181526040808420546001600160a01b03908116855284835293819020815160a0810183528154861681529381015492840192909252600282015490830152600301549182166060820152600160a01b90910460ff161515608082015290565b6104ad611cdd565b60008060006001600087876040516104c6929190611f86565b604080519182900390912082526020808301939093529081016000908120546001600160a01b03908116855284840195909552928101909220825160a0810184528154851681526001820154928101929092526002810154928201929092526003909101549182166060820152600160a01b90910460ff16151560808201529150505b92915050565b610557610ae8565b6105618282610b42565b5050565b61056d610ae8565b61057883838361103a565b505050565b610585611cdd565b506001600160a01b039081166000908152600260208181526040808420548516845283825292839020835160a0810185528154861681526001820154928101929092529182015492810192909252600301549182166060820152600160a01b90910460ff161515608082015290565b6105fc610ae8565b6102588110158015610610575062093a8081105b6106505760405162461bcd60e51b815260206004820152600c60248201526b0696e76616c696420747761760a41b60448201526064015b60405180910390fd5b60078190556040518181527fdac58b37a20c84a78ea340a0206bc95bfbc4d50b216db3a5732643cc86b2803e9060200160405180910390a150565b6000806040518060200160405280866001600160a01b031663bd6d894d6040518163ffffffff1660e01b81526004016020604051808303816000875af11580156106d9573d6000803e3d6000fd5b505050506040513d601f19601f820116820180604052508101906106fd9190611f96565b90529050600061070c86610a22565b90508061074b5760405162461bcd60e51b815260206004820152600d60248201526c696e76616c696420707269636560981b6044820152606401610647565b6040805160208101909152818152841561078657600061076b878361119c565b90506000610779828661119c565b95506107a8945050505050565b600061079284886111ba565b905060006107a083836111ba565b955050505050505b9392505050565b6107b7610ae8565b6107c160006111da565b565b6107cb611cdd565b506001600160a01b0390811660009081526020818152604091829020825160a0810184528154851681526001820154928101929092526002810154928201929092526003909101549182166060820152600160a01b90910460ff161515608082015290565b6000806040518060200160405280866001600160a01b031663182df0f56040518163ffffffff1660e01b8152600401602060405180830381865afa1580156106d9573d6000803e3d6000fd5b610884610ae8565b8483146108c55760405162461bcd60e51b815260206004820152600f60248201526e696e76616c6964206c656e6774687360881b6044820152606401610647565b8481146109065760405162461bcd60e51b815260206004820152600f60248201526e696e76616c6964206c656e6774687360881b6044820152606401610647565b60005b858110156109a05761098e87878381811061092657610926611faf565b905060200201602081019061093b9190611d20565b86868481811061094d5761094d611faf565b90506020020160208101906109629190611d20565b85858581811061097457610974611faf565b90506020020160208101906109899190611fc5565b61103a565b8061099881611ff8565b915050610909565b50505050505050565b6109b1610ae8565b6001600160a01b038116610a165760405162461bcd60e51b815260206004820152602660248201527f4f776e61626c653a206e6577206f776e657220697320746865207a65726f206160448201526564647265737360d01b6064820152608401610647565b610a1f816111da565b50565b600080826001600160a01b0316636f307dc36040518163ffffffff1660e01b8152600401602060405180830381865afa158015610a63573d6000803e3d6000fd5b505050506040513d601f19601f82011682018060405250810190610a879190612013565b6001600160a01b038082166000908152600460205260409020549192501615610ab3576107a88161122c565b6001600160a01b038084166000908152602081905260409020600301541615610adf576107a8836112ed565b50600092915050565b6003546001600160a01b031633146107c15760405162461bcd60e51b815260206004820181905260248201527f4f776e61626c653a2063616c6c6572206973206e6f7420746865206f776e65726044820152606401610647565b816001600160a01b031663fe9c44ae6040518163ffffffff1660e01b8152600401602060405180830381865afa158015610b80573d6000803e3d6000fd5b505050506040513d601f19601f82011682018060405250810190610ba49190612030565b610be15760405162461bcd60e51b815260206004820152600e60248201526d34b73b30b634b21031aa37b5b2b760911b6044820152606401610647565b6000826001600160a01b0316636f307dc36040518163ffffffff1660e01b8152600401602060405180830381865afa158015610c21573d6000803e3d6000fd5b505050506040513d601f19601f82011682018060405250810190610c459190612013565b90506001600160a01b038216610c895760405162461bcd60e51b8152602060048201526009602482015268139bc81b585c9ad95d60ba1b6044820152606401610647565b806001600160a01b0316826001600160a01b0316630dfe16816040518163ffffffff1660e01b8152600401602060405180830381865afa158015610cd1573d6000803e3d6000fd5b505050506040513d601f19601f82011682018060405250810190610cf59190612013565b6001600160a01b03161480610d7c5750806001600160a01b0316826001600160a01b031663d21220a76040518163ffffffff1660e01b8152600401602060405180830381865afa158015610d4d573d6000803e3d6000fd5b505050506040513d601f19601f82011682018060405250810190610d719190612013565b6001600160a01b0316145b610db95760405162461bcd60e51b815260206004820152600e60248201526d1a5b9d985b1a59081b585c9ad95d60921b6044820152606401610647565b6000816001600160a01b03166395d89b416040518163ffffffff1660e01b8152600401600060405180830381865afa158015610df9573d6000803e3d6000fd5b505050506040513d6000823e601f3d908101601f19168201604052610e219190810190612094565b8051906020012090506000826001600160a01b031663313ce5676040518163ffffffff1660e01b8152600401602060405180830381865afa158015610e6a573d6000803e3d6000fd5b505050506040513d601f19601f82011682018060405250810190610e8e9190612148565b610e9990600a612249565b90506000836001600160a01b0316856001600160a01b0316630dfe16816040518163ffffffff1660e01b8152600401602060405180830381865afa158015610ee5573d6000803e3d6000fd5b505050506040513d601f19601f82011682018060405250810190610f099190612013565b6001600160a01b031614610f1e576001610f21565b60005b6040805160a0810182526001600160a01b0380881680835260208084018981528486018981528c851660608701908152881515608088019081528f871660008181528087528a812099518a54908a166001600160a01b0319918216178b5595516001808c019190915594516002808c019190915593516003909a01805493511515600160a01b026001600160a81b03199094169a90991699909917919091179096558b8752908352868620805483168617905592855291905291839020805490921681179091559051919250907f3f3d4bd03348b12ec1e6c0d687a4c6a7416b85c302f44f95262a302ca49524419061102a9088906001600160a01b0391909116815260200190565b60405180910390a2505050505050565b6001600160a01b03808416600081815260046020526040812054909216919073eeeeeeeeeeeeeeeeeeeeeeeeeeeeeeeeeeeeeeee141561107c575060126110e1565b846001600160a01b031663313ce5676040518163ffffffff1660e01b8152600401602060405180830381865afa1580156110ba573d6000803e3d6000fd5b505050506040513d601f19601f820116820180604052508101906110de9190612148565b90505b836001600160a01b0316826001600160a01b031614611195576001600160a01b03858116600081815260046020908152604080832080548a87166001600160a01b0319909116811790915560058352818420805460ff8b811660ff1992831617909255600685529483902080549189169190951617909355805194871685529084019190915290917f33232b700ab62b15cace2ecf9e2e94a9c01f0119d48e2c9cb9d5528270d1994e910160405180910390a25b5050505050565b60006107a86111b384670de0b6b3a7640000611368565b8351611374565b6000806111c78484611380565b90506111d2816113b1565b949350505050565b600380546001600160a01b038381166001600160a01b0319831681179093556040519116919082907f8be0079c531659141344cd1fd0a4f28419497f9722a3daafe3b4186f6b6457e090600090a35050565b6001600160a01b038082166000908152600560209081526040808320546006835281842054600490935290832054929360ff9182169392909116911683611272826113c9565b9050808460ff16600814156112b75761128c84600a612249565b6112a2826b204fce5e3e25026110000000612258565b6112ac919061228d565b979650505050505050565b8460ff16601214156112e0576112ce84600a612249565b6112a282670de0b6b3a7640000612258565b5060009695505050505050565b6000806112f9836107c3565b9050600061130682611444565b9050600160f81b811061134c5760405162461bcd60e51b815260206004820152600e60248201526d416e63686f7220746f6f2062696760901b6044820152606401610647565b6111d26c0c9f2c9cd04674edea4000000082846040015161145b565b60006107a88284612258565b60006107a8828461228d565b60408051602081019091526000815260405180602001604052806113a8856000015185611368565b90529392505050565b805160009061054990670de0b6b3a76400009061228d565b600080600080600080866001600160a01b031663feaf968c6040518163ffffffff1660e01b815260040160a060405180830381865afa158015611410573d6000803e3d6000fd5b505050506040513d601f19601f8201168201806040525081019061143491906122c0565b50919a9950505050505050505050565b60008061144f6115c8565b90506107a88382611623565b600080806000198587098587029250828110838203039150508060001415611495576000841161148a57600080fd5b5082900490506107a8565b8084116114a157600080fd5b60008486880980840393811190920391905060006114c186196001612310565b86169586900495938490049360008190030460010190506114e28184612258565b9093179260006114f3876003612258565b60021890506115028188612258565b61150d906002612328565b6115179082612258565b90506115238188612258565b61152e906002612328565b6115389082612258565b90506115448188612258565b61154f906002612328565b6115599082612258565b90506115658188612258565b611570906002612328565b61157a9082612258565b90506115868188612258565b611591906002612328565b61159b9082612258565b90506115a78188612258565b6115b2906002612328565b6115bc9082612258565b90506107a08186612258565b60007f00000000000000000000000000000000000000000000000000000000000000006116147f00000000000000000000000000000000000000000000000000000000000000006113c9565b61161e919061228d565b905090565b60008061162f84611679565b9050600061163d8483612258565b90506000670de0b6b3a76400008087604001518461165b9190612258565b611665919061228d565b61166f919061228d565b9695505050505050565b600754604080516002808252606082018352600093928492919060208301908036833701905050905081816000815181106116b6576116b6611faf565b63ffffffff90921660209283029190910190910152606084015160405163883bdbfd60e01b81526000916001600160a01b03169063883bdbfd906116fe90859060040161233f565b600060405180830381865afa15801561171b573d6000803e3d6000fd5b505050506040513d6000823e601f3d908101601f191682016040526117439190810190612415565b50905060008363ffffffff1690506000818360008151811061176757611767611faf565b60200260200101518460018151811061178257611782611faf565b602002602001015161179491906124e1565b61179e9190612531565b9050620d89e719600682900b128015906117ca57506117c0620d89e71961256f565b60020b8160060b13155b61180a5760405162461bcd60e51b815260206004820152601160248201527054574150206e6f7420696e2072616e676560781b6044820152606401610647565b627fffff600682900b126118605760405162461bcd60e51b815260206004820152601d60248201527f74696d655765696768746564417665726167655469636b203e206d61780000006044820152606401610647565b6080870151819015611878576118758161256f565b90505b6000611883826118c6565b9050600061189f6001600160a01b03831680600160601b61145b565b90506118b8670de0b6b3a764000082600160601b61145b565b9a9950505050505050505050565b60008060008360020b126118dd578260020b6118ea565b8260020b6118ea90612592565b90506118f9620d89e71961256f565b62ffffff168111156119315760405162461bcd60e51b81526020600482015260016024820152601560fa1b6044820152606401610647565b60006001821661194557600160801b611957565b6ffffcb933bd6fad37aa2d162d1a5940015b70ffffffffffffffffffffffffffffffffff1690506002821615611996576080611991826ffff97272373d413259a46990580e213a612258565b901c90505b60048216156119c05760806119bb826ffff2e50f5f656932ef12357cf3c7fdcc612258565b901c90505b60088216156119ea5760806119e5826fffe5caca7e10e4e61c3624eaa0941cd0612258565b901c90505b6010821615611a14576080611a0f826fffcb9843d60f6159c9db58835c926644612258565b901c90505b6020821615611a3e576080611a39826fff973b41fa98c081472e6896dfb254c0612258565b901c90505b6040821615611a68576080611a63826fff2ea16466c96a3843ec78b326b52861612258565b901c90505b6080821615611a92576080611a8d826ffe5dee046a99a2a811c461f1969c3053612258565b901c90505b610100821615611abd576080611ab8826ffcbe86c7900a88aedcffc83b479aa3a4612258565b901c90505b610200821615611ae8576080611ae3826ff987a7253ac413176f2b074cf7815e54612258565b901c90505b610400821615611b13576080611b0e826ff3392b0822b70005940c7a398e4b70f3612258565b901c90505b610800821615611b3e576080611b39826fe7159475a2c29b7443b29c7fa6e889d9612258565b901c90505b611000821615611b69576080611b64826fd097f3bdfd2022b8845ad8f792aa5825612258565b901c90505b612000821615611b94576080611b8f826fa9f746462d870fdf8a65dc1f90e061e5612258565b901c90505b614000821615611bbf576080611bba826f70d869a156d2a1b890bb3df62baf32f7612258565b901c90505b618000821615611bea576080611be5826f31be135f97d08fd981231505542fcfa6612258565b901c90505b62010000821615611c16576080611c11826f09aa508b5b7a84e1c677de54f3e99bc9612258565b901c90505b62020000821615611c41576080611c3c826e5d6af8dedb81196699c329225ee604612258565b901c90505b62040000821615611c6b576080611c66826d2216e584f5fa1ea926041bedfe98612258565b901c90505b62080000821615611c93576080611c8e826b048a170391f7dc42444e8fa2612258565b901c90505b60008460020b1315611cae57611cab8160001961228d565b90505b611cbd640100000000826125af565b15611cc9576001611ccc565b60005b6111d29060ff16602083901c612310565b6040805160a08101825260008082526020820181905291810182905260608101829052608081019190915290565b6001600160a01b0381168114610a1f57600080fd5b600060208284031215611d3257600080fd5b81356107a881611d0b565b600060208284031215611d4f57600080fd5b5035919050565b60008060208385031215611d6957600080fd5b823567ffffffffffffffff80821115611d8157600080fd5b818501915085601f830112611d9557600080fd5b813581811115611da457600080fd5b866020828501011115611db657600080fd5b60209290920196919550909350505050565b60008060408385031215611ddb57600080fd5b8235611de681611d0b565b91506020830135611df681611d0b565b809150509250929050565b60ff81168114610a1f57600080fd5b600080600060608486031215611e2557600080fd5b8335611e3081611d0b565b92506020840135611e4081611d0b565b91506040840135611e5081611e01565b809150509250925092565b8015158114610a1f57600080fd5b600080600060608486031215611e7e57600080fd5b8335611e8981611d0b565b9250602084013591506040840135611e5081611e5b565b60008083601f840112611eb257600080fd5b50813567ffffffffffffffff811115611eca57600080fd5b6020830191508360208260051b8501011115611ee557600080fd5b9250929050565b60008060008060008060608789031215611f0557600080fd5b863567ffffffffffffffff80821115611f1d57600080fd5b611f298a838b01611ea0565b90985096506020890135915080821115611f4257600080fd5b611f4e8a838b01611ea0565b90965094506040890135915080821115611f6757600080fd5b50611f7489828a01611ea0565b979a9699509497509295939492505050565b8183823760009101908152919050565b600060208284031215611fa857600080fd5b5051919050565b634e487b7160e01b600052603260045260246000fd5b600060208284031215611fd757600080fd5b81356107a881611e01565b634e487b7160e01b600052601160045260246000fd5b600060001982141561200c5761200c611fe2565b5060010190565b60006020828403121561202557600080fd5b81516107a881611d0b565b60006020828403121561204257600080fd5b81516107a881611e5b565b634e487b7160e01b600052604160045260246000fd5b604051601f8201601f1916810167ffffffffffffffff8111828210171561208c5761208c61204d565b604052919050565b600060208083850312156120a757600080fd5b825167ffffffffffffffff808211156120bf57600080fd5b818501915085601f8301126120d357600080fd5b8151818111156120e5576120e561204d565b6120f7601f8201601f19168501612063565b9150808252868482850101111561210d57600080fd5b60005b8181101561212b578381018501518382018601528401612110565b8181111561213c5760008583850101525b50909695505050505050565b60006020828403121561215a57600080fd5b81516107a881611e01565b600181815b808511156121a057816000190482111561218657612186611fe2565b8085161561219357918102915b93841c939080029061216a565b509250929050565b6000826121b757506001610549565b816121c457506000610549565b81600181146121da57600281146121e457612200565b6001915050610549565b60ff8411156121f5576121f5611fe2565b50506001821b610549565b5060208310610133831016604e8410600b8410161715612223575081810a610549565b61222d8383612165565b806000190482111561224157612241611fe2565b029392505050565b60006107a860ff8416836121a8565b600081600019048311821515161561227257612272611fe2565b500290565b634e487b7160e01b600052601260045260246000fd5b60008261229c5761229c612277565b500490565b805169ffffffffffffffffffff811681146122bb57600080fd5b919050565b600080600080600060a086880312156122d857600080fd5b6122e1866122a1565b9450602086015193506040860151925060608601519150612304608087016122a1565b90509295509295909350565b6000821982111561232357612323611fe2565b500190565b60008282101561233a5761233a611fe2565b500390565b6020808252825182820181905260009190848201906040850190845b8181101561213c57835163ffffffff168352928401929184019160010161235b565b600067ffffffffffffffff8211156123975761239761204d565b5060051b60200190565b600082601f8301126123b257600080fd5b815160206123c76123c28361237d565b612063565b82815260059290921b840181019181810190868411156123e657600080fd5b8286015b8481101561240a5780516123fd81611d0b565b83529183019183016123ea565b509695505050505050565b6000806040838503121561242857600080fd5b825167ffffffffffffffff8082111561244057600080fd5b818501915085601f83011261245457600080fd5b815160206124646123c28361237d565b82815260059290921b8401810191818101908984111561248357600080fd5b948201945b838610156124b15785518060060b81146124a25760008081fd5b82529482019490820190612488565b918801519196509093505050808211156124ca57600080fd5b506124d7858286016123a1565b9150509250929050565b60008160060b8360060b6000811281667fffffffffffff190183128115161561250c5761250c611fe2565b81667fffffffffffff01831381161561252757612527611fe2565b5090039392505050565b60008160060b8360060b8061254857612548612277565b667fffffffffffff1982146000198214161561256657612566611fe2565b90059392505050565b60008160020b627fffff1981141561258957612589611fe2565b60000392915050565b6000600160ff1b8214156125a8576125a8611fe2565b5060000390565b6000826125be576125be612277565b50069056fea2646970667358221220467d54f27fde50aa145c12bf59e8600443c2d20e12355cea123f6ad387162aa764736f6c634300080a0033",
  "devdoc": {
    "kind": "dev",
    "methods": {
      "constructor": {
        "details": "Note that to avoid immature TWAPs, the system must run for at least a single twapPeriod before using.      NOTE: Reported prices are set to 1 during construction. We assume that this contract will not be voted in by      governance until prices have been updated through `validate` for each TokenConfig.",
        "params": {
          "twapPeriod_": "The time difference to calculate twap price"
        }
      },
      "getEvaluation(address,uint256,bool)": {
        "params": {
          "amount": "Amount of tokens to evaluate according to 'reverse' order",
          "cToken": "Market to evaluate",
          "reverse": "Order of evaluation"
        },
        "returns": {
          "_0": "Depending on 'reverse' order:                     false - return USD amount equal to 'amount' of 'cToken' in wei                     true - return cTokens equal to 'amount' of USD represented in wei                            e.g. 123e18 = 123.00$"
        }
      },
      "getEvaluationStored(address,uint256,bool)": {
        "params": {
          "amount": "Amount of tokens to evaluate according to 'reverse' order",
          "cToken": "Market to evaluate",
          "reverse": "Order of evaluation"
        },
        "returns": {
          "_0": "Depending on 'reverse' order:                     false - return USD amount equal to 'amount' of 'cToken' in wei                     true - return cTokens equal to 'amount' of USD represented in wei                            e.g. 123e18 = 123.00$"
        }
      },
      "getTokenConfigByCToken(address)": {
        "params": {
          "cToken": "The address of the cToken of the config to get"
        },
        "returns": {
          "_0": "The config object"
        }
      },
      "getTokenConfigBySymbol(string)": {
        "params": {
          "symbol": "The symbol of the config to get"
        },
        "returns": {
          "_0": "The config object"
        }
      },
      "getTokenConfigBySymbolHash(bytes32)": {
        "params": {
          "symbolHash": "The keccack256 of the symbol of the config to get"
        },
        "returns": {
          "_0": "The config object"
        }
      },
      "getTokenConfigByUnderlying(address)": {
        "details": "The underlying address of ETH is the zero address",
        "params": {
          "underlying": "The address of the underlying asset of the config to get"
        },
        "returns": {
          "_0": "The config object"
        }
      },
      "getUnderlyingPrice(address)": {
        "params": {
          "cToken": "The cToken to get the underlying price of"
        },
        "returns": {
          "_0": "The underlying asset price mantissa (scaled by 1e(36 - assetDecimals)).         Zero means the price is unavailable."
        }
      },
      "owner()": {
        "details": "Returns the address of the current owner."
      },
      "renounceOwnership()": {
        "details": "Leaves the contract without owner. It will not be possible to call `onlyOwner` functions anymore. Can only be called by the current owner. NOTE: Renouncing ownership will leave the contract without an owner, thereby removing any functionality that is only available to the owner."
      },
      "setTokenConfig(address,address)": {
        "params": {
          "cToken": "The address of the Compound Token",
          "uniswapMarket": "The address of the V3 pool being used as the anchor for this market"
        }
      },
      "setTwapPeriod(uint256)": {
        "params": {
          "newTwap": "The time interval to for TWAP price calculation"
        }
      },
      "transferOwnership(address)": {
        "details": "Transfers ownership of the contract to a new account (`newOwner`). Can only be called by the current owner."
      }
    },
    "version": 1
  },
  "userdoc": {
    "events": {
      "NewFeedForAsset(address,address,address)": {
        "notice": "The event emitted when new PriceFeed added (updated)"
      },
      "NewTwapPeriod(uint256)": {
        "notice": "The event emitted when twapPeriod updated"
      },
      "PriceUpdated(bytes32,uint256)": {
        "notice": "The event emitted when the stored price is updated"
      }
    },
    "kind": "user",
    "methods": {
      "ETH_BASE_UNIT()": {
        "notice": "The number of wei in 1 ETH"
      },
      "EXP_SCALE()": {
        "notice": "A common scaling factor to maintain precision"
      },
      "assetsDecimals(address)": {
        "notice": "assets decimals by underlying address "
      },
      "baseAssetFeed()": {
        "notice": "chainlink price feed ETH / USD"
      },
      "baseAssetFeedDenominator()": {
        "notice": "denominator to scale price from chainlink price feed"
      },
      "cTokenConfig(address)": {
        "notice": "cToken configs"
      },
      "chainLinkFeedDecimals(address)": {
        "notice": "ChainLink Feed decimals by underlying address"
      },
      "chainLinkFeeds(address)": {
        "notice": "ChainLink Feed address by underlying address"
      },
      "constructor": {
        "notice": "Construct a Uniswap anchored view for a set of token configurations"
      },
      "getEvaluation(address,uint256,bool)": {
        "notice": "Evaluates input amount according to stored price, accrues interest"
      },
      "getEvaluationStored(address,uint256,bool)": {
        "notice": "Evaluates input amount according to stored price, doesn't accrue interest"
      },
      "getTokenConfigByCToken(address)": {
        "notice": "Get the config for the cToken"
      },
      "getTokenConfigBySymbol(string)": {
        "notice": "Get the config for symbol"
      },
      "getTokenConfigBySymbolHash(bytes32)": {
        "notice": "Get the config for the symbolHash"
      },
      "getTokenConfigByUnderlying(address)": {
        "notice": "Get the config for an underlying asset"
      },
      "getUnderlyingPrice(address)": {
        "notice": "Get the underlying price of a cToken asset"
      },
      "setTokenConfig(address,address)": {
        "notice": "Sets config to fetch underlying price"
      },
      "setTwapPeriod(uint256)": {
        "notice": "Sets config to fetch underlying price"
      },
      "twapPeriod()": {
        "notice": "The time interval to for TWAP price calculation"
      }
    },
    "version": 1
  },
  "storageLayout": {
    "storage": [
      {
        "astId": 28871,
        "contract": "contracts/Oracles/TonpoundPriceOracle.sol:TonpoundPriceOracle",
        "label": "cTokenConfig",
        "offset": 0,
        "slot": "0",
        "type": "t_mapping(t_address,t_struct(TokenConfig)28865_storage)"
      },
      {
        "astId": 28876,
        "contract": "contracts/Oracles/TonpoundPriceOracle.sol:TonpoundPriceOracle",
        "label": "cTokenBySymbolHash",
        "offset": 0,
        "slot": "1",
        "type": "t_mapping(t_bytes32,t_address)"
      },
      {
        "astId": 28881,
        "contract": "contracts/Oracles/TonpoundPriceOracle.sol:TonpoundPriceOracle",
        "label": "cTokenByUnderlying",
        "offset": 0,
        "slot": "2",
        "type": "t_mapping(t_address,t_address)"
      },
      {
        "astId": 7,
        "contract": "contracts/Oracles/TonpoundPriceOracle.sol:TonpoundPriceOracle",
        "label": "_owner",
        "offset": 0,
        "slot": "3",
        "type": "t_address"
      },
      {
        "astId": 27955,
        "contract": "contracts/Oracles/TonpoundPriceOracle.sol:TonpoundPriceOracle",
        "label": "chainLinkFeeds",
        "offset": 0,
        "slot": "4",
        "type": "t_mapping(t_address,t_address)"
      },
      {
        "astId": 27960,
        "contract": "contracts/Oracles/TonpoundPriceOracle.sol:TonpoundPriceOracle",
        "label": "chainLinkFeedDecimals",
        "offset": 0,
        "slot": "5",
        "type": "t_mapping(t_address,t_uint8)"
      },
      {
        "astId": 27965,
        "contract": "contracts/Oracles/TonpoundPriceOracle.sol:TonpoundPriceOracle",
        "label": "assetsDecimals",
        "offset": 0,
        "slot": "6",
        "type": "t_mapping(t_address,t_uint8)"
      },
      {
        "astId": 27983,
        "contract": "contracts/Oracles/TonpoundPriceOracle.sol:TonpoundPriceOracle",
        "label": "twapPeriod",
        "offset": 0,
        "slot": "7",
        "type": "t_uint256"
      }
    ],
    "types": {
      "t_address": {
        "encoding": "inplace",
        "label": "address",
        "numberOfBytes": "20"
      },
      "t_bool": {
        "encoding": "inplace",
        "label": "bool",
        "numberOfBytes": "1"
      },
      "t_bytes32": {
        "encoding": "inplace",
        "label": "bytes32",
        "numberOfBytes": "32"
      },
      "t_mapping(t_address,t_address)": {
        "encoding": "mapping",
        "key": "t_address",
        "label": "mapping(address => address)",
        "numberOfBytes": "32",
        "value": "t_address"
      },
      "t_mapping(t_address,t_struct(TokenConfig)28865_storage)": {
        "encoding": "mapping",
        "key": "t_address",
        "label": "mapping(address => struct UniswapConfig.TokenConfig)",
        "numberOfBytes": "32",
        "value": "t_struct(TokenConfig)28865_storage"
      },
      "t_mapping(t_address,t_uint8)": {
        "encoding": "mapping",
        "key": "t_address",
        "label": "mapping(address => uint8)",
        "numberOfBytes": "32",
        "value": "t_uint8"
      },
      "t_mapping(t_bytes32,t_address)": {
        "encoding": "mapping",
        "key": "t_bytes32",
        "label": "mapping(bytes32 => address)",
        "numberOfBytes": "32",
        "value": "t_address"
      },
      "t_struct(TokenConfig)28865_storage": {
        "encoding": "inplace",
        "label": "struct UniswapConfig.TokenConfig",
        "members": [
          {
            "astId": 28856,
            "contract": "contracts/Oracles/TonpoundPriceOracle.sol:TonpoundPriceOracle",
            "label": "underlying",
            "offset": 0,
            "slot": "0",
            "type": "t_address"
          },
          {
            "astId": 28858,
            "contract": "contracts/Oracles/TonpoundPriceOracle.sol:TonpoundPriceOracle",
            "label": "symbolHash",
            "offset": 0,
            "slot": "1",
            "type": "t_bytes32"
          },
          {
            "astId": 28860,
            "contract": "contracts/Oracles/TonpoundPriceOracle.sol:TonpoundPriceOracle",
            "label": "baseUnit",
            "offset": 0,
            "slot": "2",
            "type": "t_uint256"
          },
          {
            "astId": 28862,
            "contract": "contracts/Oracles/TonpoundPriceOracle.sol:TonpoundPriceOracle",
            "label": "uniswapMarket",
            "offset": 0,
            "slot": "3",
            "type": "t_address"
          },
          {
            "astId": 28864,
            "contract": "contracts/Oracles/TonpoundPriceOracle.sol:TonpoundPriceOracle",
            "label": "isUniswapReversed",
            "offset": 20,
            "slot": "3",
            "type": "t_bool"
          }
        ],
        "numberOfBytes": "128"
      },
      "t_uint256": {
        "encoding": "inplace",
        "label": "uint256",
        "numberOfBytes": "32"
      },
      "t_uint8": {
        "encoding": "inplace",
        "label": "uint8",
        "numberOfBytes": "1"
      }
    }
  }
}