{
  "address": "0xCaC4885304849f4D221919B2aC7d17b473d26871",
  "abi": [
    {
      "anonymous": false,
      "inputs": [
        {
          "indexed": false,
          "internalType": "address",
          "name": "asset",
          "type": "address"
        },
        {
          "indexed": false,
          "internalType": "uint256",
          "name": "previousPriceMantissa",
          "type": "uint256"
        },
        {
          "indexed": false,
          "internalType": "uint256",
          "name": "requestedPriceMantissa",
          "type": "uint256"
        },
        {
          "indexed": false,
          "internalType": "uint256",
          "name": "newPriceMantissa",
          "type": "uint256"
        }
      ],
      "name": "PricePosted",
      "type": "event"
    },
    {
      "inputs": [],
      "name": "EXP_SCALE",
      "outputs": [
        {
          "internalType": "uint256",
          "name": "",
          "type": "uint256"
        }
      ],
      "stateMutability": "view",
      "type": "function"
    },
    {
      "inputs": [
        {
          "internalType": "address",
          "name": "asset",
          "type": "address"
        }
      ],
      "name": "assetPrices",
      "outputs": [
        {
          "internalType": "uint256",
          "name": "",
          "type": "uint256"
        }
      ],
      "stateMutability": "view",
      "type": "function"
    },
    {
      "inputs": [
        {
          "internalType": "contract CToken",
          "name": "cToken",
          "type": "address"
        },
        {
          "internalType": "uint256",
          "name": "amount",
          "type": "uint256"
        },
        {
          "internalType": "bool",
          "name": "reverse",
          "type": "bool"
        }
      ],
      "name": "getEvaluation",
      "outputs": [
        {
          "internalType": "uint256",
          "name": "",
          "type": "uint256"
        }
      ],
      "stateMutability": "nonpayable",
      "type": "function"
    },
    {
      "inputs": [
        {
          "internalType": "contract CToken",
          "name": "cToken",
          "type": "address"
        },
        {
          "internalType": "uint256",
          "name": "amount",
          "type": "uint256"
        },
        {
          "internalType": "bool",
          "name": "reverse",
          "type": "bool"
        }
      ],
      "name": "getEvaluationStored",
      "outputs": [
        {
          "internalType": "uint256",
          "name": "",
          "type": "uint256"
        }
      ],
      "stateMutability": "view",
      "type": "function"
    },
    {
      "inputs": [
        {
          "internalType": "contract CToken",
          "name": "cToken",
          "type": "address"
        }
      ],
      "name": "getUnderlyingPrice",
      "outputs": [
        {
          "internalType": "uint256",
          "name": "",
          "type": "uint256"
        }
      ],
      "stateMutability": "view",
      "type": "function"
    },
    {
      "inputs": [],
      "name": "isPriceOracle",
      "outputs": [
        {
          "internalType": "bool",
          "name": "",
          "type": "bool"
        }
      ],
      "stateMutability": "view",
      "type": "function"
    },
    {
      "inputs": [
        {
          "internalType": "address",
          "name": "asset",
          "type": "address"
        },
        {
          "internalType": "uint256",
          "name": "price",
          "type": "uint256"
        }
      ],
      "name": "setDirectPrice",
      "outputs": [],
      "stateMutability": "nonpayable",
      "type": "function"
    },
    {
      "inputs": [
        {
          "internalType": "contract CToken",
          "name": "cToken",
          "type": "address"
        },
        {
          "internalType": "uint256",
          "name": "underlyingPriceMantissa",
          "type": "uint256"
        }
      ],
      "name": "setUnderlyingPrice",
      "outputs": [],
      "stateMutability": "nonpayable",
      "type": "function"
    }
  ],
  "transactionHash": "0xbcd9d29026580aa70c69121191a711cbb8c0edde62685ce687cfd5d55156b607",
  "args": [],
  "numDeployments": 3,
  "solcInputHash": "702661431a1f260ccdf0a5f2b7a57d1e",
  "bytecode": "0x608060405234801561001057600080fd5b50610875806100206000396000f3fe608060405234801561001057600080fd5b50600436106100885760003560e01c806366331bba1161005b57806366331bba14610104578063ad3d19d51461011c578063bbba205d1461012f578063fc57d4df1461013e57600080fd5b806309a8acb01461008d578063127ffda0146100a25780635e9a523c146100b5578063616b3c27146100f1575b600080fd5b6100a061009b36600461061b565b610151565b005b6100a06100b036600461061b565b6101ca565b6100de6100c3366004610647565b6001600160a01b031660009081526020819052604090205490565b6040519081526020015b60405180910390f35b6100de6100ff366004610664565b610250565b61010c600181565b60405190151581526020016100e8565b6100de61012a366004610664565b610378565b6100de670de0b6b3a764000081565b6100de61014c366004610647565b6103c4565b6001600160a01b03821660008181526020818152604091829020548251938452908301528101829052606081018290527fdd71a1d19fcba687442a1d5c58578f1e409af71a79d10fd95a4d66efd8fa9ae79060800160405180910390a16001600160a01b03909116600090815260208190526040902055565b60006101d5836103f2565b6001600160a01b03811660008181526020818152604091829020548251938452908301528101849052606081018490529091507fdd71a1d19fcba687442a1d5c58578f1e409af71a79d10fd95a4d66efd8fa9ae79060800160405180910390a16001600160a01b031660009081526020819052604090205550565b6000806040518060200160405280866001600160a01b031663bd6d894d6040518163ffffffff1660e01b81526004016020604051808303816000875af115801561029e573d6000803e3d6000fd5b505050506040513d601f19601f820116820180604052508101906102c291906106ab565b9052905060006102d1866103c4565b9050806103145760405162461bcd60e51b815260206004820152600d60248201526c696e76616c696420707269636560981b604482015260640160405180910390fd5b6040805160208101909152818152841561034f576000610334878361050b565b90506000610342828661050b565b9550610371945050505050565b600061035b8488610529565b905060006103698383610529565b955050505050505b9392505050565b6000806040518060200160405280866001600160a01b031663182df0f56040518163ffffffff1660e01b8152600401602060405180830381865afa15801561029e573d6000803e3d6000fd5b60008060006103d2846103f2565b6001600160a01b0316815260208101919091526040016000205492915050565b600080610480836001600160a01b03166395d89b416040518163ffffffff1660e01b8152600401600060405180830381865afa158015610436573d6000803e3d6000fd5b505050506040513d6000823e601f3d908101601f1916820160405261045e919081019061070a565b604051806040016040528060048152602001630c68aa8960e31b815250610549565b156104a0575073eeeeeeeeeeeeeeeeeeeeeeeeeeeeeeeeeeeeeeee610505565b826001600160a01b0316636f307dc36040518163ffffffff1660e01b8152600401602060405180830381865afa1580156104de573d6000803e3d6000fd5b505050506040513d601f19601f8201168201806040525081019061050291906107b7565b90505b92915050565b600061050261052284670de0b6b3a76400006105a2565b83516105ae565b60008061053684846105ba565b9050610541816105eb565b949350505050565b60008160405160200161055c91906107d4565b604051602081830303815290604052805190602001208360405160200161058391906107d4565b6040516020818303038152906040528051906020012014905092915050565b600061050282846107f0565b6000610502828461081d565b60408051602081019091526000815260405180602001604052806105e28560000151856105a2565b90529392505050565b805160009061050590670de0b6b3a76400009061081d565b6001600160a01b038116811461061857600080fd5b50565b6000806040838503121561062e57600080fd5b823561063981610603565b946020939093013593505050565b60006020828403121561065957600080fd5b813561037181610603565b60008060006060848603121561067957600080fd5b833561068481610603565b925060208401359150604084013580151581146106a057600080fd5b809150509250925092565b6000602082840312156106bd57600080fd5b5051919050565b634e487b7160e01b600052604160045260246000fd5b60005b838110156106f55781810151838201526020016106dd565b83811115610704576000848401525b50505050565b60006020828403121561071c57600080fd5b815167ffffffffffffffff8082111561073457600080fd5b818401915084601f83011261074857600080fd5b81518181111561075a5761075a6106c4565b604051601f8201601f19908116603f01168101908382118183101715610782576107826106c4565b8160405282815287602084870101111561079b57600080fd5b6107ac8360208301602088016106da565b979650505050505050565b6000602082840312156107c957600080fd5b815161037181610603565b600082516107e68184602087016106da565b9190910192915050565b600081600019048311821515161561081857634e487b7160e01b600052601160045260246000fd5b500290565b60008261083a57634e487b7160e01b600052601260045260246000fd5b50049056fea2646970667358221220e15c25c70ad7e9f5c6dde4bbbc4f4b5cb9239d7855a384b62a0e5daaece7698864736f6c634300080a0033",
  "devdoc": {
    "kind": "dev",
    "methods": {
      "getEvaluation(address,uint256,bool)": {
        "params": {
          "amount": "Amount of tokens to evaluate according to 'reverse' order",
          "cToken": "Market to evaluate",
          "reverse": "Order of evaluation"
        },
        "returns": {
          "_0": "Depending on 'reverse' order:                     false - return USD amount equal to 'amount' of 'cToken' in wei                     true - return cTokens equal to 'amount' of USD "
        }
      },
      "getEvaluationStored(address,uint256,bool)": {
        "params": {
          "amount": "Amount of tokens to evaluate according to 'reverse' order",
          "cToken": "Market to evaluate",
          "reverse": "Order of evaluation"
        },
        "returns": {
          "_0": "Depending on 'reverse' order:                     false - return USD amount equal to 'amount' of 'cToken' in wei                     true - return cTokens equal to 'amount' of USD "
        }
      },
      "getUnderlyingPrice(address)": {
        "params": {
          "cToken": "The cToken to get the underlying price of"
        },
        "returns": {
          "_0": "The underlying asset price mantissa (scaled by 1e18).  Zero means the price is unavailable."
        }
      }
    },
    "version": 1
  },
  "userdoc": {
    "kind": "user",
    "methods": {
      "EXP_SCALE()": {
        "notice": "A common scaling factor to maintain precision"
      },
      "getEvaluation(address,uint256,bool)": {
        "notice": "Evaluates input amount according to stored price, accrues interest"
      },
      "getEvaluationStored(address,uint256,bool)": {
        "notice": "Evaluates input amount according to stored price, doesn't accrue interest"
      },
      "getUnderlyingPrice(address)": {
        "notice": "Get the underlying price of a cToken asset"
      },
      "isPriceOracle()": {
        "notice": "Indicator that this is a PriceOracle contract (for inspection)"
      }
    },
    "version": 1
  },
  "storageLayout": {
    "storage": [
      {
        "astId": 4549,
        "contract": "contracts/Oracles/SimplePriceOracleV2.sol:SimplePriceOracleV2",
        "label": "prices",
        "offset": 0,
        "slot": "0",
        "type": "t_mapping(t_address,t_uint256)"
      }
    ],
    "types": {
      "t_address": {
        "encoding": "inplace",
        "label": "address",
        "numberOfBytes": "20"
      },
      "t_mapping(t_address,t_uint256)": {
        "encoding": "mapping",
        "key": "t_address",
        "label": "mapping(address => uint256)",
        "numberOfBytes": "32",
        "value": "t_uint256"
      },
      "t_uint256": {
        "encoding": "inplace",
        "label": "uint256",
        "numberOfBytes": "32"
      }
    }
  }
}