{
  "address": "0x232752179943175b1dcAD9A3764FC7eec3776628",
  "abi": [
    {
      "inputs": [
        {
          "internalType": "uint32",
          "name": "anchorPeriod_",
          "type": "uint32"
        },
        {
          "internalType": "address",
          "name": "baseUnderlying",
          "type": "address"
        },
        {
          "internalType": "contract AggregatorV3Interface",
          "name": "baseAssetFeed_",
          "type": "address"
        }
      ],
      "stateMutability": "nonpayable",
      "type": "constructor"
    },
    {
      "anonymous": false,
      "inputs": [
        {
          "indexed": true,
          "internalType": "address",
          "name": "cToken",
          "type": "address"
        },
        {
          "indexed": false,
          "internalType": "address",
          "name": "uniswapMarket",
          "type": "address"
        }
      ],
      "name": "ConfigUpdate",
      "type": "event"
    },
    {
      "anonymous": false,
      "inputs": [
        {
          "indexed": true,
          "internalType": "bytes32",
          "name": "symbolHash",
          "type": "bytes32"
        }
      ],
      "name": "FailoverActivated",
      "type": "event"
    },
    {
      "anonymous": false,
      "inputs": [
        {
          "indexed": true,
          "internalType": "bytes32",
          "name": "symbolHash",
          "type": "bytes32"
        }
      ],
      "name": "FailoverDeactivated",
      "type": "event"
    },
    {
      "anonymous": false,
      "inputs": [
        {
          "indexed": true,
          "internalType": "address",
          "name": "asset",
          "type": "address"
        },
        {
          "indexed": false,
          "internalType": "address",
          "name": "oldFeed",
          "type": "address"
        },
        {
          "indexed": false,
          "internalType": "address",
          "name": "newFeed",
          "type": "address"
        }
      ],
      "name": "NewFeedForAsset",
      "type": "event"
    },
    {
      "anonymous": false,
      "inputs": [
        {
          "indexed": true,
          "internalType": "address",
          "name": "previousOwner",
          "type": "address"
        },
        {
          "indexed": true,
          "internalType": "address",
          "name": "newOwner",
          "type": "address"
        }
      ],
      "name": "OwnershipTransferred",
      "type": "event"
    },
    {
      "anonymous": false,
      "inputs": [
        {
          "indexed": true,
          "internalType": "bytes32",
          "name": "symbolHash",
          "type": "bytes32"
        },
        {
          "indexed": false,
          "internalType": "uint256",
          "name": "price",
          "type": "uint256"
        }
      ],
      "name": "PriceUpdated",
      "type": "event"
    },
    {
      "inputs": [],
      "name": "ETH_BASE_UNIT",
      "outputs": [
        {
          "internalType": "uint256",
          "name": "",
          "type": "uint256"
        }
      ],
      "stateMutability": "view",
      "type": "function"
    },
    {
      "inputs": [],
      "name": "EXP_SCALE",
      "outputs": [
        {
          "internalType": "uint256",
          "name": "",
          "type": "uint256"
        }
      ],
      "stateMutability": "view",
      "type": "function"
    },
    {
      "inputs": [
        {
          "internalType": "address",
          "name": "_underlying",
          "type": "address"
        },
        {
          "internalType": "address",
          "name": "_chainlinkFeed",
          "type": "address"
        },
        {
          "internalType": "uint8",
          "name": "_priceFeedDecimals",
          "type": "uint8"
        }
      ],
      "name": "_setPriceFeedForUnderlying",
      "outputs": [],
      "stateMutability": "nonpayable",
      "type": "function"
    },
    {
      "inputs": [
        {
          "internalType": "address[]",
          "name": "_underlyings",
          "type": "address[]"
        },
        {
          "internalType": "address[]",
          "name": "_chainlinkFeeds",
          "type": "address[]"
        },
        {
          "internalType": "uint8[]",
          "name": "_priceFeedsDecimals",
          "type": "uint8[]"
        }
      ],
      "name": "_setPriceFeedsForUnderlyings",
      "outputs": [],
      "stateMutability": "nonpayable",
      "type": "function"
    },
    {
      "inputs": [],
      "name": "anchorPeriod",
      "outputs": [
        {
          "internalType": "uint32",
          "name": "",
          "type": "uint32"
        }
      ],
      "stateMutability": "view",
      "type": "function"
    },
    {
      "inputs": [
        {
          "internalType": "address",
          "name": "",
          "type": "address"
        }
      ],
      "name": "assetsDecimals",
      "outputs": [
        {
          "internalType": "uint8",
          "name": "",
          "type": "uint8"
        }
      ],
      "stateMutability": "view",
      "type": "function"
    },
    {
      "inputs": [],
      "name": "baseAssetFeed",
      "outputs": [
        {
          "internalType": "contract AggregatorV3Interface",
          "name": "",
          "type": "address"
        }
      ],
      "stateMutability": "view",
      "type": "function"
    },
    {
      "inputs": [],
      "name": "baseAssetFeedDenominator",
      "outputs": [
        {
          "internalType": "uint256",
          "name": "",
          "type": "uint256"
        }
      ],
      "stateMutability": "view",
      "type": "function"
    },
    {
      "inputs": [
        {
          "internalType": "address",
          "name": "",
          "type": "address"
        }
      ],
      "name": "cTokenConfig",
      "outputs": [
        {
          "internalType": "address",
          "name": "underlying",
          "type": "address"
        },
        {
          "internalType": "bytes32",
          "name": "symbolHash",
          "type": "bytes32"
        },
        {
          "internalType": "uint256",
          "name": "baseUnit",
          "type": "uint256"
        },
        {
          "internalType": "address",
          "name": "uniswapMarket",
          "type": "address"
        },
        {
          "internalType": "bool",
          "name": "isUniswapReversed",
          "type": "bool"
        }
      ],
      "stateMutability": "view",
      "type": "function"
    },
    {
      "inputs": [
        {
          "internalType": "address",
          "name": "",
          "type": "address"
        }
      ],
      "name": "chainLinkFeedDecimals",
      "outputs": [
        {
          "internalType": "uint8",
          "name": "",
          "type": "uint8"
        }
      ],
      "stateMutability": "view",
      "type": "function"
    },
    {
      "inputs": [
        {
          "internalType": "address",
          "name": "",
          "type": "address"
        }
      ],
      "name": "chainLinkFeeds",
      "outputs": [
        {
          "internalType": "address",
          "name": "",
          "type": "address"
        }
      ],
      "stateMutability": "view",
      "type": "function"
    },
    {
      "inputs": [
        {
          "internalType": "address",
          "name": "cToken",
          "type": "address"
        },
        {
          "internalType": "uint256",
          "name": "amount",
          "type": "uint256"
        },
        {
          "internalType": "bool",
          "name": "reverse",
          "type": "bool"
        }
      ],
      "name": "getEvaluation",
      "outputs": [
        {
          "internalType": "uint256",
          "name": "",
          "type": "uint256"
        }
      ],
      "stateMutability": "nonpayable",
      "type": "function"
    },
    {
      "inputs": [
        {
          "internalType": "address",
          "name": "cToken",
          "type": "address"
        },
        {
          "internalType": "uint256",
          "name": "amount",
          "type": "uint256"
        },
        {
          "internalType": "bool",
          "name": "reverse",
          "type": "bool"
        }
      ],
      "name": "getEvaluationStored",
      "outputs": [
        {
          "internalType": "uint256",
          "name": "",
          "type": "uint256"
        }
      ],
      "stateMutability": "view",
      "type": "function"
    },
    {
      "inputs": [
        {
          "internalType": "address",
          "name": "cToken",
          "type": "address"
        }
      ],
      "name": "getTokenConfigByCToken",
      "outputs": [
        {
          "components": [
            {
              "internalType": "address",
              "name": "underlying",
              "type": "address"
            },
            {
              "internalType": "bytes32",
              "name": "symbolHash",
              "type": "bytes32"
            },
            {
              "internalType": "uint256",
              "name": "baseUnit",
              "type": "uint256"
            },
            {
              "internalType": "address",
              "name": "uniswapMarket",
              "type": "address"
            },
            {
              "internalType": "bool",
              "name": "isUniswapReversed",
              "type": "bool"
            }
          ],
          "internalType": "struct UniswapConfig.TokenConfig",
          "name": "",
          "type": "tuple"
        }
      ],
      "stateMutability": "view",
      "type": "function"
    },
    {
      "inputs": [
        {
          "internalType": "string",
          "name": "symbol",
          "type": "string"
        }
      ],
      "name": "getTokenConfigBySymbol",
      "outputs": [
        {
          "components": [
            {
              "internalType": "address",
              "name": "underlying",
              "type": "address"
            },
            {
              "internalType": "bytes32",
              "name": "symbolHash",
              "type": "bytes32"
            },
            {
              "internalType": "uint256",
              "name": "baseUnit",
              "type": "uint256"
            },
            {
              "internalType": "address",
              "name": "uniswapMarket",
              "type": "address"
            },
            {
              "internalType": "bool",
              "name": "isUniswapReversed",
              "type": "bool"
            }
          ],
          "internalType": "struct UniswapConfig.TokenConfig",
          "name": "",
          "type": "tuple"
        }
      ],
      "stateMutability": "view",
      "type": "function"
    },
    {
      "inputs": [
        {
          "internalType": "bytes32",
          "name": "symbolHash",
          "type": "bytes32"
        }
      ],
      "name": "getTokenConfigBySymbolHash",
      "outputs": [
        {
          "components": [
            {
              "internalType": "address",
              "name": "underlying",
              "type": "address"
            },
            {
              "internalType": "bytes32",
              "name": "symbolHash",
              "type": "bytes32"
            },
            {
              "internalType": "uint256",
              "name": "baseUnit",
              "type": "uint256"
            },
            {
              "internalType": "address",
              "name": "uniswapMarket",
              "type": "address"
            },
            {
              "internalType": "bool",
              "name": "isUniswapReversed",
              "type": "bool"
            }
          ],
          "internalType": "struct UniswapConfig.TokenConfig",
          "name": "",
          "type": "tuple"
        }
      ],
      "stateMutability": "view",
      "type": "function"
    },
    {
      "inputs": [
        {
          "internalType": "address",
          "name": "underlying",
          "type": "address"
        }
      ],
      "name": "getTokenConfigByUnderlying",
      "outputs": [
        {
          "components": [
            {
              "internalType": "address",
              "name": "underlying",
              "type": "address"
            },
            {
              "internalType": "bytes32",
              "name": "symbolHash",
              "type": "bytes32"
            },
            {
              "internalType": "uint256",
              "name": "baseUnit",
              "type": "uint256"
            },
            {
              "internalType": "address",
              "name": "uniswapMarket",
              "type": "address"
            },
            {
              "internalType": "bool",
              "name": "isUniswapReversed",
              "type": "bool"
            }
          ],
          "internalType": "struct UniswapConfig.TokenConfig",
          "name": "",
          "type": "tuple"
        }
      ],
      "stateMutability": "view",
      "type": "function"
    },
    {
      "inputs": [
        {
          "internalType": "address",
          "name": "cToken",
          "type": "address"
        }
      ],
      "name": "getUnderlyingPrice",
      "outputs": [
        {
          "internalType": "uint256",
          "name": "",
          "type": "uint256"
        }
      ],
      "stateMutability": "view",
      "type": "function"
    },
    {
      "inputs": [],
      "name": "owner",
      "outputs": [
        {
          "internalType": "address",
          "name": "",
          "type": "address"
        }
      ],
      "stateMutability": "view",
      "type": "function"
    },
    {
      "inputs": [],
      "name": "renounceOwnership",
      "outputs": [],
      "stateMutability": "nonpayable",
      "type": "function"
    },
    {
      "inputs": [
        {
          "internalType": "address",
          "name": "cToken",
          "type": "address"
        },
        {
          "internalType": "address",
          "name": "uniswapMarket",
          "type": "address"
        }
      ],
      "name": "setTokenConfig",
      "outputs": [],
      "stateMutability": "nonpayable",
      "type": "function"
    },
    {
      "inputs": [
        {
          "internalType": "address",
          "name": "newOwner",
          "type": "address"
        }
      ],
      "name": "transferOwnership",
      "outputs": [],
      "stateMutability": "nonpayable",
      "type": "function"
    }
  ],
  "transactionHash": "0x5dad20ba15b4b8b54414b8ba2ea3cc95414f0f1208fc27353fb6956e8ad09719",
  "args": [
    "1800",
    "0xf8D79637987438007E34D9AA3002202d1fB35d40",
    "0xD4a33860578De61DBAbDc8BFdb98FD742fA7028e"
  ],
  "numDeployments": 5,
  "solcInputHash": "3bb01f57bb8b98766508b195d64c418a",
  "bytecode": "0x60e06040523480156200001157600080fd5b50604051620029513803806200295183398101604081905262000034916200035d565b6200003f336200018a565b60008363ffffffff1611620000845760405162461bcd60e51b81526020600482015260066024820152651c195c9a5bd960d21b60448201526064015b60405180910390fd5b63ffffffff831660c0526001600160a01b038216620000d35760405162461bcd60e51b815260206004820152600a602482015269756e6465726c79696e6760b01b60448201526064016200007b565b806001600160a01b03166080816001600160a01b0316815250506000816001600160a01b031663313ce5676040518163ffffffff1660e01b8152600401602060405180830381865afa1580156200012e573d6000803e3d6000fd5b505050506040513d601f19601f82011682018060405250810190620001549190620003b9565b905062000163600682620003fb565b6200017090600a62000520565b60a05262000180838383620001dc565b5050505062000531565b600380546001600160a01b038381166001600160a01b0319831681179093556040519116919082907f8be0079c531659141344cd1fd0a4f28419497f9722a3daafe3b4186f6b6457e090600090a35050565b6001600160a01b03808416600081815260046020526040812054909216919073eeeeeeeeeeeeeeeeeeeeeeeeeeeeeeeeeeeeeeee1415620002205750601262000288565b846001600160a01b031663313ce5676040518163ffffffff1660e01b8152600401602060405180830381865afa1580156200025f573d6000803e3d6000fd5b505050506040513d601f19601f82011682018060405250810190620002859190620003b9565b90505b836001600160a01b0316826001600160a01b0316146200033d576001600160a01b03858116600081815260046020908152604080832080548a87166001600160a01b0319909116811790915560058352818420805460ff8b811660ff1992831617909255600685529483902080549189169190951617909355805194871685529084019190915290917f33232b700ab62b15cace2ecf9e2e94a9c01f0119d48e2c9cb9d5528270d1994e910160405180910390a25b5050505050565b6001600160a01b03811681146200035a57600080fd5b50565b6000806000606084860312156200037357600080fd5b835163ffffffff811681146200038857600080fd5b60208501519093506200039b8162000344565b6040850151909250620003ae8162000344565b809150509250925092565b600060208284031215620003cc57600080fd5b815160ff81168114620003de57600080fd5b9392505050565b634e487b7160e01b600052601160045260246000fd5b600060ff821660ff841680821015620004185762000418620003e5565b90039392505050565b600181815b8085111562000462578160001904821115620004465762000446620003e5565b808516156200045457918102915b93841c939080029062000426565b509250929050565b6000826200047b575060016200051a565b816200048a575060006200051a565b8160018114620004a35760028114620004ae57620004ce565b60019150506200051a565b60ff841115620004c257620004c2620003e5565b50506001821b6200051a565b5060208310610133831016604e8410600b8410161715620004f3575081810a6200051a565b620004ff838362000421565b8060001904821115620005165762000516620003e5565b0290505b92915050565b6000620003de60ff8416836200046a565b60805160a05160c0516123db62000576600039600081816103c40152611451015260008181610286015261139001526000818161041301526113b401526123db6000f3fe608060405234801561001057600080fd5b50600436106101425760003560e01c8063616b3c27116100b8578063bbba205d1161007c578063bbba205d14610181578063d4bf4ccc146103ac578063e9206d78146103bf578063f2fde38b146103fb578063f75aa68d1461040e578063fc57d4df1461043557600080fd5b8063616b3c271461035a578063715018a61461036d5780638da5cb5b146103755780639f59963114610386578063ad3d19d51461039957600080fd5b8063276c2cba1161010a578063276c2cba146102a85780632ae3c348146102bb578063343e2874146102fc578063388a9347146103115780634da2194214610324578063561b83131461033757600080fd5b806309f8110e14610147578063152810fb146101815780631a1252041461019e5780631e99a061146101fe57806325fa012314610281575b600080fd5b61016a610155366004611b02565b60066020526000908152604090205460ff1681565b60405160ff90911681526020015b60405180910390f35b610190670de0b6b3a764000081565b604051908152602001610178565b6101b16101ac366004611b1f565b610448565b604051610178919081516001600160a01b03908116825260208084015190830152604080840151908301526060808401519091169082015260809182015115159181019190915260a00190565b61024a61020c366004611b02565b60006020819052908152604090208054600182015460028301546003909301546001600160a01b03928316939192811690600160a01b900460ff1685565b604080516001600160a01b03968716815260208101959095528401929092529092166060820152901515608082015260a001610178565b6101907f000000000000000000000000000000000000000000000000000000000000000081565b6101b16102b6366004611b38565b6104ba565b6102e46102c9366004611b02565b6004602052600090815260409020546001600160a01b031681565b6040516001600160a01b039091168152602001610178565b61030f61030a366004611baa565b610564565b005b61030f61031f366004611bf2565b61057a565b6101b1610332366004611b02565b610592565b61016a610345366004611b02565b60056020526000908152604090205460ff1681565b610190610368366004611c4b565b610609565b61030f610732565b6003546001600160a01b03166102e4565b6101b1610394366004611b02565b610746565b6101906103a7366004611c4b565b6107b3565b61030f6103ba366004611cce565b6107ff565b6103e67f000000000000000000000000000000000000000000000000000000000000000081565b60405163ffffffff9091168152602001610178565b61030f610409366004611b02565b61092c565b6102e47f000000000000000000000000000000000000000000000000000000000000000081565b610190610443366004611b02565b6109a5565b610450611abf565b506000908152600160208181526040808420546001600160a01b03908116855284835293819020815160a0810183528154861681529381015492840192909252600282015490830152600301549182166060820152600160a01b90910460ff161515608082015290565b6104c2611abf565b60008060006001600087876040516104db929190611d68565b604080519182900390912082526020808301939093529081016000908120546001600160a01b03908116855284840195909552928101909220825160a0810184528154851681526001820154928101929092526002810154928201929092526003909101549182166060820152600160a01b90910460ff16151560808201529150505b92915050565b61056c610a6b565b6105768282610ac5565b5050565b610582610a6b565b61058d838383610dfe565b505050565b61059a611abf565b506001600160a01b039081166000908152600260208181526040808420548516845283825292839020835160a0810185528154861681526001820154928101929092529182015492810192909252600301549182166060820152600160a01b90910460ff161515608082015290565b6000806040518060200160405280866001600160a01b031663bd6d894d6040518163ffffffff1660e01b81526004016020604051808303816000875af1158015610657573d6000803e3d6000fd5b505050506040513d601f19601f8201168201806040525081019061067b9190611d78565b90529050600061068a866109a5565b9050806106ce5760405162461bcd60e51b815260206004820152600d60248201526c696e76616c696420707269636560981b60448201526064015b60405180910390fd5b604080516020810190915281815284156107095760006106ee8783610f60565b905060006106fc8286610f60565b955061072b945050505050565b60006107158488610f7e565b905060006107238383610f7e565b955050505050505b9392505050565b61073a610a6b565b6107446000610f9e565b565b61074e611abf565b506001600160a01b0390811660009081526020818152604091829020825160a0810184528154851681526001820154928101929092526002810154928201929092526003909101549182166060820152600160a01b90910460ff161515608082015290565b6000806040518060200160405280866001600160a01b031663182df0f56040518163ffffffff1660e01b8152600401602060405180830381865afa158015610657573d6000803e3d6000fd5b610807610a6b565b8483146108485760405162461bcd60e51b815260206004820152600f60248201526e696e76616c6964206c656e6774687360881b60448201526064016106c5565b8481146108895760405162461bcd60e51b815260206004820152600f60248201526e696e76616c6964206c656e6774687360881b60448201526064016106c5565b60005b85811015610923576109118787838181106108a9576108a9611d91565b90506020020160208101906108be9190611b02565b8686848181106108d0576108d0611d91565b90506020020160208101906108e59190611b02565b8585858181106108f7576108f7611d91565b905060200201602081019061090c9190611da7565b610dfe565b8061091b81611dda565b91505061088c565b50505050505050565b610934610a6b565b6001600160a01b0381166109995760405162461bcd60e51b815260206004820152602660248201527f4f776e61626c653a206e6577206f776e657220697320746865207a65726f206160448201526564647265737360d01b60648201526084016106c5565b6109a281610f9e565b50565b600080826001600160a01b0316636f307dc36040518163ffffffff1660e01b8152600401602060405180830381865afa1580156109e6573d6000803e3d6000fd5b505050506040513d601f19601f82011682018060405250810190610a0a9190611df5565b6001600160a01b038082166000908152600460205260409020549192501615610a365761072b81610ff0565b6001600160a01b038084166000908152602081905260409020600301541615610a625761072b836110b1565b50600092915050565b6003546001600160a01b031633146107445760405162461bcd60e51b815260206004820181905260248201527f4f776e61626c653a2063616c6c6572206973206e6f7420746865206f776e657260448201526064016106c5565b816001600160a01b031663fe9c44ae6040518163ffffffff1660e01b8152600401602060405180830381865afa158015610b03573d6000803e3d6000fd5b505050506040513d601f19601f82011682018060405250810190610b279190611e12565b610b645760405162461bcd60e51b815260206004820152600e60248201526d34b73b30b634b21031aa37b5b2b760911b60448201526064016106c5565b6000826001600160a01b0316636f307dc36040518163ffffffff1660e01b8152600401602060405180830381865afa158015610ba4573d6000803e3d6000fd5b505050506040513d601f19601f82011682018060405250810190610bc89190611df5565b90506001600160a01b038216610c0c5760405162461bcd60e51b8152602060048201526009602482015268139bc81b585c9ad95d60ba1b60448201526064016106c5565b6000816001600160a01b03166395d89b416040518163ffffffff1660e01b8152600401600060405180830381865afa158015610c4c573d6000803e3d6000fd5b505050506040513d6000823e601f3d908101601f19168201604052610c749190810190611e76565b8051906020012090506000826001600160a01b031663313ce5676040518163ffffffff1660e01b8152600401602060405180830381865afa158015610cbd573d6000803e3d6000fd5b505050506040513d601f19601f82011682018060405250810190610ce19190611f2a565b610cec90600a61202b565b6040805160a0810182526001600160a01b0380871680835260208084018881528486018781528b8516606087019081526000608088018181528f88168083528287528a832099518a54908a166001600160a01b0319918216178b55955160018b81019190915594516002808c019190915593516003909a01805492511515600160a01b026001600160a81b03199093169a90991699909917179096558a86529083528685208054831687179055928452919052838220805490911683179055915192935090917f3f3d4bd03348b12ec1e6c0d687a4c6a7416b85c302f44f95262a302ca495244190610dee9088906001600160a01b0391909116815260200190565b60405180910390a2505050505050565b6001600160a01b03808416600081815260046020526040812054909216919073eeeeeeeeeeeeeeeeeeeeeeeeeeeeeeeeeeeeeeee1415610e4057506012610ea5565b846001600160a01b031663313ce5676040518163ffffffff1660e01b8152600401602060405180830381865afa158015610e7e573d6000803e3d6000fd5b505050506040513d601f19601f82011682018060405250810190610ea29190611f2a565b90505b836001600160a01b0316826001600160a01b031614610f59576001600160a01b03858116600081815260046020908152604080832080548a87166001600160a01b0319909116811790915560058352818420805460ff8b811660ff1992831617909255600685529483902080549189169190951617909355805194871685529084019190915290917f33232b700ab62b15cace2ecf9e2e94a9c01f0119d48e2c9cb9d5528270d1994e910160405180910390a25b5050505050565b600061072b610f7784670de0b6b3a764000061112c565b8351611138565b600080610f8b8484611144565b9050610f9681611175565b949350505050565b600380546001600160a01b038381166001600160a01b0319831681179093556040519116919082907f8be0079c531659141344cd1fd0a4f28419497f9722a3daafe3b4186f6b6457e090600090a35050565b6001600160a01b038082166000908152600560209081526040808320546006835281842054600490935290832054929360ff91821693929091169116836110368261118d565b9050808460ff166008141561107b5761105084600a61202b565b611066826b204fce5e3e2502611000000061203a565b611070919061206f565b979650505050505050565b8460ff16601214156110a45761109284600a61202b565b61106682670de0b6b3a764000061203a565b5060009695505050505050565b6000806110bd83610746565b905060006110ca82611208565b9050600160f81b81106111105760405162461bcd60e51b815260206004820152600e60248201526d416e63686f7220746f6f2062696760901b60448201526064016106c5565b610f966c0c9f2c9cd04674edea4000000082846040015161121f565b600061072b828461203a565b600061072b828461206f565b604080516020810190915260008152604051806020016040528061116c85600001518561112c565b90529392505050565b805160009061055e90670de0b6b3a76400009061206f565b600080600080600080866001600160a01b031663feaf968c6040518163ffffffff1660e01b815260040160a060405180830381865afa1580156111d4573d6000803e3d6000fd5b505050506040513d601f19601f820116820180604052508101906111f891906120a2565b50919a9950505050505050505050565b60008061121361138c565b905061072b83826113e7565b600080806000198587098587029250828110838203039150508060001415611259576000841161124e57600080fd5b50829004905061072b565b80841161126557600080fd5b6000848688098084039381119092039190506000611285861960016120f2565b86169586900495938490049360008190030460010190506112a6818461203a565b9093179260006112b787600361203a565b60021890506112c6818861203a565b6112d190600261210a565b6112db908261203a565b90506112e7818861203a565b6112f290600261210a565b6112fc908261203a565b9050611308818861203a565b61131390600261210a565b61131d908261203a565b9050611329818861203a565b61133490600261210a565b61133e908261203a565b905061134a818861203a565b61135590600261210a565b61135f908261203a565b905061136b818861203a565b61137690600261210a565b611380908261203a565b9050610723818661203a565b60007f00000000000000000000000000000000000000000000000000000000000000006113d87f000000000000000000000000000000000000000000000000000000000000000061118d565b6113e2919061206f565b905090565b6000806113f38461143d565b90506000611401848361203a565b90506000670de0b6b3a76400008087604001518461141f919061203a565b611429919061206f565b611433919061206f565b9695505050505050565b6040805160028082526060820183526000927f00000000000000000000000000000000000000000000000000000000000000009284929091602083019080368337019050509050818160008151811061149857611498611d91565b63ffffffff90921660209283029190910190910152606084015160405163883bdbfd60e01b81526000916001600160a01b03169063883bdbfd906114e0908590600401612121565b600060405180830381865afa1580156114fd573d6000803e3d6000fd5b505050506040513d6000823e601f3d908101601f1916820160405261152591908101906121f7565b50905060008363ffffffff1690506000818360008151811061154957611549611d91565b60200260200101518460018151811061156457611564611d91565b602002602001015161157691906122c3565b6115809190612313565b9050620d89e719600682900b128015906115ac57506115a2620d89e719612351565b60020b8160060b13155b6115ec5760405162461bcd60e51b815260206004820152601160248201527054574150206e6f7420696e2072616e676560781b60448201526064016106c5565b627fffff600682900b126116425760405162461bcd60e51b815260206004820152601d60248201527f74696d655765696768746564417665726167655469636b203e206d617800000060448201526064016106c5565b608087015181901561165a5761165781612351565b90505b6000611665826116a8565b905060006116816001600160a01b03831680600160601b61121f565b905061169a670de0b6b3a764000082600160601b61121f565b9a9950505050505050505050565b60008060008360020b126116bf578260020b6116cc565b8260020b6116cc90612374565b90506116db620d89e719612351565b62ffffff168111156117135760405162461bcd60e51b81526020600482015260016024820152601560fa1b60448201526064016106c5565b60006001821661172757600160801b611739565b6ffffcb933bd6fad37aa2d162d1a5940015b70ffffffffffffffffffffffffffffffffff1690506002821615611778576080611773826ffff97272373d413259a46990580e213a61203a565b901c90505b60048216156117a257608061179d826ffff2e50f5f656932ef12357cf3c7fdcc61203a565b901c90505b60088216156117cc5760806117c7826fffe5caca7e10e4e61c3624eaa0941cd061203a565b901c90505b60108216156117f65760806117f1826fffcb9843d60f6159c9db58835c92664461203a565b901c90505b602082161561182057608061181b826fff973b41fa98c081472e6896dfb254c061203a565b901c90505b604082161561184a576080611845826fff2ea16466c96a3843ec78b326b5286161203a565b901c90505b608082161561187457608061186f826ffe5dee046a99a2a811c461f1969c305361203a565b901c90505b61010082161561189f57608061189a826ffcbe86c7900a88aedcffc83b479aa3a461203a565b901c90505b6102008216156118ca5760806118c5826ff987a7253ac413176f2b074cf7815e5461203a565b901c90505b6104008216156118f55760806118f0826ff3392b0822b70005940c7a398e4b70f361203a565b901c90505b61080082161561192057608061191b826fe7159475a2c29b7443b29c7fa6e889d961203a565b901c90505b61100082161561194b576080611946826fd097f3bdfd2022b8845ad8f792aa582561203a565b901c90505b612000821615611976576080611971826fa9f746462d870fdf8a65dc1f90e061e561203a565b901c90505b6140008216156119a157608061199c826f70d869a156d2a1b890bb3df62baf32f761203a565b901c90505b6180008216156119cc5760806119c7826f31be135f97d08fd981231505542fcfa661203a565b901c90505b620100008216156119f85760806119f3826f09aa508b5b7a84e1c677de54f3e99bc961203a565b901c90505b62020000821615611a23576080611a1e826e5d6af8dedb81196699c329225ee60461203a565b901c90505b62040000821615611a4d576080611a48826d2216e584f5fa1ea926041bedfe9861203a565b901c90505b62080000821615611a75576080611a70826b048a170391f7dc42444e8fa261203a565b901c90505b60008460020b1315611a9057611a8d8160001961206f565b90505b611a9f64010000000082612391565b15611aab576001611aae565b60005b610f969060ff16602083901c6120f2565b6040805160a08101825260008082526020820181905291810182905260608101829052608081019190915290565b6001600160a01b03811681146109a257600080fd5b600060208284031215611b1457600080fd5b813561072b81611aed565b600060208284031215611b3157600080fd5b5035919050565b60008060208385031215611b4b57600080fd5b823567ffffffffffffffff80821115611b6357600080fd5b818501915085601f830112611b7757600080fd5b813581811115611b8657600080fd5b866020828501011115611b9857600080fd5b60209290920196919550909350505050565b60008060408385031215611bbd57600080fd5b8235611bc881611aed565b91506020830135611bd881611aed565b809150509250929050565b60ff811681146109a257600080fd5b600080600060608486031215611c0757600080fd5b8335611c1281611aed565b92506020840135611c2281611aed565b91506040840135611c3281611be3565b809150509250925092565b80151581146109a257600080fd5b600080600060608486031215611c6057600080fd5b8335611c6b81611aed565b9250602084013591506040840135611c3281611c3d565b60008083601f840112611c9457600080fd5b50813567ffffffffffffffff811115611cac57600080fd5b6020830191508360208260051b8501011115611cc757600080fd5b9250929050565b60008060008060008060608789031215611ce757600080fd5b863567ffffffffffffffff80821115611cff57600080fd5b611d0b8a838b01611c82565b90985096506020890135915080821115611d2457600080fd5b611d308a838b01611c82565b90965094506040890135915080821115611d4957600080fd5b50611d5689828a01611c82565b979a9699509497509295939492505050565b8183823760009101908152919050565b600060208284031215611d8a57600080fd5b5051919050565b634e487b7160e01b600052603260045260246000fd5b600060208284031215611db957600080fd5b813561072b81611be3565b634e487b7160e01b600052601160045260246000fd5b6000600019821415611dee57611dee611dc4565b5060010190565b600060208284031215611e0757600080fd5b815161072b81611aed565b600060208284031215611e2457600080fd5b815161072b81611c3d565b634e487b7160e01b600052604160045260246000fd5b604051601f8201601f1916810167ffffffffffffffff81118282101715611e6e57611e6e611e2f565b604052919050565b60006020808385031215611e8957600080fd5b825167ffffffffffffffff80821115611ea157600080fd5b818501915085601f830112611eb557600080fd5b815181811115611ec757611ec7611e2f565b611ed9601f8201601f19168501611e45565b91508082528684828501011115611eef57600080fd5b60005b81811015611f0d578381018501518382018601528401611ef2565b81811115611f1e5760008583850101525b50909695505050505050565b600060208284031215611f3c57600080fd5b815161072b81611be3565b600181815b80851115611f82578160001904821115611f6857611f68611dc4565b80851615611f7557918102915b93841c9390800290611f4c565b509250929050565b600082611f995750600161055e565b81611fa65750600061055e565b8160018114611fbc5760028114611fc657611fe2565b600191505061055e565b60ff841115611fd757611fd7611dc4565b50506001821b61055e565b5060208310610133831016604e8410600b8410161715612005575081810a61055e565b61200f8383611f47565b806000190482111561202357612023611dc4565b029392505050565b600061072b60ff841683611f8a565b600081600019048311821515161561205457612054611dc4565b500290565b634e487b7160e01b600052601260045260246000fd5b60008261207e5761207e612059565b500490565b805169ffffffffffffffffffff8116811461209d57600080fd5b919050565b600080600080600060a086880312156120ba57600080fd5b6120c386612083565b94506020860151935060408601519250606086015191506120e660808701612083565b90509295509295909350565b6000821982111561210557612105611dc4565b500190565b60008282101561211c5761211c611dc4565b500390565b6020808252825182820181905260009190848201906040850190845b81811015611f1e57835163ffffffff168352928401929184019160010161213d565b600067ffffffffffffffff82111561217957612179611e2f565b5060051b60200190565b600082601f83011261219457600080fd5b815160206121a96121a48361215f565b611e45565b82815260059290921b840181019181810190868411156121c857600080fd5b8286015b848110156121ec5780516121df81611aed565b83529183019183016121cc565b509695505050505050565b6000806040838503121561220a57600080fd5b825167ffffffffffffffff8082111561222257600080fd5b818501915085601f83011261223657600080fd5b815160206122466121a48361215f565b82815260059290921b8401810191818101908984111561226557600080fd5b948201945b838610156122935785518060060b81146122845760008081fd5b8252948201949082019061226a565b918801519196509093505050808211156122ac57600080fd5b506122b985828601612183565b9150509250929050565b60008160060b8360060b6000811281667fffffffffffff19018312811516156122ee576122ee611dc4565b81667fffffffffffff01831381161561230957612309611dc4565b5090039392505050565b60008160060b8360060b8061232a5761232a612059565b667fffffffffffff1982146000198214161561234857612348611dc4565b90059392505050565b60008160020b627fffff1981141561236b5761236b611dc4565b60000392915050565b6000600160ff1b82141561238a5761238a611dc4565b5060000390565b6000826123a0576123a0612059565b50069056fea2646970667358221220afaae3f8908e09359b90a43eb4fe6598ce91ebd55dffd849733eb9bc90b563db64736f6c634300080a0033",
  "devdoc": {
    "kind": "dev",
    "methods": {
      "constructor": {
        "details": "Note that to avoid immature TWAPs, the system must run for at least a single anchorPeriod before using.      NOTE: Reported prices are set to 1 during construction. We assume that this contract will not be voted in by      governance until prices have been updated through `validate` for each TokenConfig.",
        "params": {
          "anchorPeriod_": "The minimum amount of time required for the old Uniswap price accumulator to be replaced"
        }
      },
      "getEvaluation(address,uint256,bool)": {
        "params": {
          "amount": "Amount of tokens to evaluate according to 'reverse' order",
          "cToken": "Market to evaluate",
          "reverse": "Order of evaluation"
        },
        "returns": {
          "_0": "Depending on 'reverse' order:                     false - return USD amount equal to 'amount' of 'cToken' in wei                     true - return cTokens equal to 'amount' of USD represented in wei                            e.g. 123e18 = 123.00$"
        }
      },
      "getEvaluationStored(address,uint256,bool)": {
        "params": {
          "amount": "Amount of tokens to evaluate according to 'reverse' order",
          "cToken": "Market to evaluate",
          "reverse": "Order of evaluation"
        },
        "returns": {
          "_0": "Depending on 'reverse' order:                     false - return USD amount equal to 'amount' of 'cToken' in wei                     true - return cTokens equal to 'amount' of USD represented in wei                            e.g. 123e18 = 123.00$"
        }
      },
      "getTokenConfigByCToken(address)": {
        "params": {
          "cToken": "The address of the cToken of the config to get"
        },
        "returns": {
          "_0": "The config object"
        }
      },
      "getTokenConfigBySymbol(string)": {
        "params": {
          "symbol": "The symbol of the config to get"
        },
        "returns": {
          "_0": "The config object"
        }
      },
      "getTokenConfigBySymbolHash(bytes32)": {
        "params": {
          "symbolHash": "The keccack256 of the symbol of the config to get"
        },
        "returns": {
          "_0": "The config object"
        }
      },
      "getTokenConfigByUnderlying(address)": {
        "details": "The underlying address of ETH is the zero address",
        "params": {
          "underlying": "The address of the underlying asset of the config to get"
        },
        "returns": {
          "_0": "The config object"
        }
      },
      "getUnderlyingPrice(address)": {
        "params": {
          "cToken": "The cToken to get the underlying price of"
        },
        "returns": {
          "_0": "The underlying asset price mantissa (scaled by 1e(36 - assetDecimals)).         Zero means the price is unavailable."
        }
      },
      "owner()": {
        "details": "Returns the address of the current owner."
      },
      "renounceOwnership()": {
        "details": "Leaves the contract without owner. It will not be possible to call `onlyOwner` functions anymore. Can only be called by the current owner. NOTE: Renouncing ownership will leave the contract without an owner, thereby removing any functionality that is only available to the owner."
      },
      "setTokenConfig(address,address)": {
        "params": {
          "cToken": "The address of the Compound Token",
          "uniswapMarket": "The address of the V3 pool being used as the anchor for this market"
        }
      },
      "transferOwnership(address)": {
        "details": "Transfers ownership of the contract to a new account (`newOwner`). Can only be called by the current owner."
      }
    },
    "version": 1
  },
  "userdoc": {
    "events": {
      "FailoverActivated(bytes32)": {
        "notice": "The event emitted when failover is activated"
      },
      "FailoverDeactivated(bytes32)": {
        "notice": "The event emitted when failover is deactivated"
      },
      "NewFeedForAsset(address,address,address)": {
        "notice": "The event emitted when new PriceFeed added (updated)"
      },
      "PriceUpdated(bytes32,uint256)": {
        "notice": "The event emitted when the stored price is updated"
      }
    },
    "kind": "user",
    "methods": {
      "ETH_BASE_UNIT()": {
        "notice": "The number of wei in 1 ETH"
      },
      "EXP_SCALE()": {
        "notice": "A common scaling factor to maintain precision"
      },
      "anchorPeriod()": {
        "notice": "The time interval to search for TWAPs when calling the Uniswap V3 observe function"
      },
      "assetsDecimals(address)": {
        "notice": "assets decimals by underlying address "
      },
      "baseAssetFeed()": {
        "notice": "chainlink price feed ETH / USD"
      },
      "baseAssetFeedDenominator()": {
        "notice": "denominator to scale price from chainlink price feed"
      },
      "cTokenConfig(address)": {
        "notice": "cToken configs"
      },
      "chainLinkFeedDecimals(address)": {
        "notice": "ChainLink Feed decimals by underlying address"
      },
      "chainLinkFeeds(address)": {
        "notice": "ChainLink Feed address by underlying address"
      },
      "constructor": {
        "notice": "Construct a Uniswap anchored view for a set of token configurations"
      },
      "getEvaluation(address,uint256,bool)": {
        "notice": "Evaluates input amount according to stored price, accrues interest"
      },
      "getEvaluationStored(address,uint256,bool)": {
        "notice": "Evaluates input amount according to stored price, doesn't accrue interest"
      },
      "getTokenConfigByCToken(address)": {
        "notice": "Get the config for the cToken"
      },
      "getTokenConfigBySymbol(string)": {
        "notice": "Get the config for symbol"
      },
      "getTokenConfigBySymbolHash(bytes32)": {
        "notice": "Get the config for the symbolHash"
      },
      "getTokenConfigByUnderlying(address)": {
        "notice": "Get the config for an underlying asset"
      },
      "getUnderlyingPrice(address)": {
        "notice": "Get the underlying price of a cToken asset"
      },
      "setTokenConfig(address,address)": {
        "notice": "Sets config to fetch underlying price"
      }
    },
    "version": 1
  },
  "storageLayout": {
    "storage": [
      {
        "astId": 8257,
        "contract": "contracts/Oracles/TonpoundPriceOracle.sol:TonpoundPriceOracle",
        "label": "cTokenConfig",
        "offset": 0,
        "slot": "0",
        "type": "t_mapping(t_address,t_struct(TokenConfig)8251_storage)"
      },
      {
        "astId": 8262,
        "contract": "contracts/Oracles/TonpoundPriceOracle.sol:TonpoundPriceOracle",
        "label": "cTokenBySymbolHash",
        "offset": 0,
        "slot": "1",
        "type": "t_mapping(t_bytes32,t_address)"
      },
      {
        "astId": 8267,
        "contract": "contracts/Oracles/TonpoundPriceOracle.sol:TonpoundPriceOracle",
        "label": "cTokenByUnderlying",
        "offset": 0,
        "slot": "2",
        "type": "t_mapping(t_address,t_address)"
      },
      {
        "astId": 7,
        "contract": "contracts/Oracles/TonpoundPriceOracle.sol:TonpoundPriceOracle",
        "label": "_owner",
        "offset": 0,
        "slot": "3",
        "type": "t_address"
      },
      {
        "astId": 7371,
        "contract": "contracts/Oracles/TonpoundPriceOracle.sol:TonpoundPriceOracle",
        "label": "chainLinkFeeds",
        "offset": 0,
        "slot": "4",
        "type": "t_mapping(t_address,t_address)"
      },
      {
        "astId": 7376,
        "contract": "contracts/Oracles/TonpoundPriceOracle.sol:TonpoundPriceOracle",
        "label": "chainLinkFeedDecimals",
        "offset": 0,
        "slot": "5",
        "type": "t_mapping(t_address,t_uint8)"
      },
      {
        "astId": 7381,
        "contract": "contracts/Oracles/TonpoundPriceOracle.sol:TonpoundPriceOracle",
        "label": "assetsDecimals",
        "offset": 0,
        "slot": "6",
        "type": "t_mapping(t_address,t_uint8)"
      }
    ],
    "types": {
      "t_address": {
        "encoding": "inplace",
        "label": "address",
        "numberOfBytes": "20"
      },
      "t_bool": {
        "encoding": "inplace",
        "label": "bool",
        "numberOfBytes": "1"
      },
      "t_bytes32": {
        "encoding": "inplace",
        "label": "bytes32",
        "numberOfBytes": "32"
      },
      "t_mapping(t_address,t_address)": {
        "encoding": "mapping",
        "key": "t_address",
        "label": "mapping(address => address)",
        "numberOfBytes": "32",
        "value": "t_address"
      },
      "t_mapping(t_address,t_struct(TokenConfig)8251_storage)": {
        "encoding": "mapping",
        "key": "t_address",
        "label": "mapping(address => struct UniswapConfig.TokenConfig)",
        "numberOfBytes": "32",
        "value": "t_struct(TokenConfig)8251_storage"
      },
      "t_mapping(t_address,t_uint8)": {
        "encoding": "mapping",
        "key": "t_address",
        "label": "mapping(address => uint8)",
        "numberOfBytes": "32",
        "value": "t_uint8"
      },
      "t_mapping(t_bytes32,t_address)": {
        "encoding": "mapping",
        "key": "t_bytes32",
        "label": "mapping(bytes32 => address)",
        "numberOfBytes": "32",
        "value": "t_address"
      },
      "t_struct(TokenConfig)8251_storage": {
        "encoding": "inplace",
        "label": "struct UniswapConfig.TokenConfig",
        "members": [
          {
            "astId": 8242,
            "contract": "contracts/Oracles/TonpoundPriceOracle.sol:TonpoundPriceOracle",
            "label": "underlying",
            "offset": 0,
            "slot": "0",
            "type": "t_address"
          },
          {
            "astId": 8244,
            "contract": "contracts/Oracles/TonpoundPriceOracle.sol:TonpoundPriceOracle",
            "label": "symbolHash",
            "offset": 0,
            "slot": "1",
            "type": "t_bytes32"
          },
          {
            "astId": 8246,
            "contract": "contracts/Oracles/TonpoundPriceOracle.sol:TonpoundPriceOracle",
            "label": "baseUnit",
            "offset": 0,
            "slot": "2",
            "type": "t_uint256"
          },
          {
            "astId": 8248,
            "contract": "contracts/Oracles/TonpoundPriceOracle.sol:TonpoundPriceOracle",
            "label": "uniswapMarket",
            "offset": 0,
            "slot": "3",
            "type": "t_address"
          },
          {
            "astId": 8250,
            "contract": "contracts/Oracles/TonpoundPriceOracle.sol:TonpoundPriceOracle",
            "label": "isUniswapReversed",
            "offset": 20,
            "slot": "3",
            "type": "t_bool"
          }
        ],
        "numberOfBytes": "128"
      },
      "t_uint256": {
        "encoding": "inplace",
        "label": "uint256",
        "numberOfBytes": "32"
      },
      "t_uint8": {
        "encoding": "inplace",
        "label": "uint8",
        "numberOfBytes": "1"
      }
    }
  }
}